{
    "contractName": "ERC20Wrapper",
    "abi": [
        {
            "constant": false,
            "inputs": [
                {
                    "name": "spender",
                    "type": "address"
                },
                {
                    "name": "value",
                    "type": "uint256"
                }
            ],
            "name": "approve",
            "outputs": [
                {
                    "name": "",
                    "type": "bool"
                }
            ],
            "payable": false,
            "stateMutability": "nonpayable",
            "type": "function"
        },
        {
            "constant": true,
            "inputs": [],
            "name": "totalSupply",
            "outputs": [
                {
                    "name": "",
                    "type": "uint256"
                }
            ],
            "payable": false,
            "stateMutability": "view",
            "type": "function"
        },
        {
            "constant": false,
            "inputs": [
                {
                    "name": "sender",
                    "type": "address"
                },
                {
                    "name": "recipient",
                    "type": "address"
                },
                {
                    "name": "amount",
                    "type": "uint256"
                }
            ],
            "name": "transferFrom",
            "outputs": [
                {
                    "name": "",
                    "type": "bool"
                }
            ],
            "payable": false,
            "stateMutability": "nonpayable",
            "type": "function"
        },
        {
            "constant": false,
            "inputs": [
                {
                    "name": "spender",
                    "type": "address"
                },
                {
                    "name": "addedValue",
                    "type": "uint256"
                }
            ],
            "name": "increaseAllowance",
            "outputs": [
                {
                    "name": "",
                    "type": "bool"
                }
            ],
            "payable": false,
            "stateMutability": "nonpayable",
            "type": "function"
        },
        {
            "constant": true,
            "inputs": [
                {
                    "name": "account",
                    "type": "address"
                }
            ],
            "name": "balanceOf",
            "outputs": [
                {
                    "name": "",
                    "type": "uint256"
                }
            ],
            "payable": false,
            "stateMutability": "view",
            "type": "function"
        },
        {
            "constant": false,
            "inputs": [
                {
                    "name": "spender",
                    "type": "address"
                },
                {
                    "name": "subtractedValue",
                    "type": "uint256"
                }
            ],
            "name": "decreaseAllowance",
            "outputs": [
                {
                    "name": "",
                    "type": "bool"
                }
            ],
            "payable": false,
            "stateMutability": "nonpayable",
            "type": "function"
        },
        {
            "constant": false,
            "inputs": [
                {
                    "name": "recipient",
                    "type": "address"
                },
                {
                    "name": "amount",
                    "type": "uint256"
                }
            ],
            "name": "transfer",
            "outputs": [
                {
                    "name": "",
                    "type": "bool"
                }
            ],
            "payable": false,
            "stateMutability": "nonpayable",
            "type": "function"
        },
        {
            "constant": true,
            "inputs": [
                {
                    "name": "owner",
                    "type": "address"
                },
                {
                    "name": "spender",
                    "type": "address"
                }
            ],
            "name": "allowance",
            "outputs": [
                {
                    "name": "",
                    "type": "uint256"
                }
            ],
            "payable": false,
            "stateMutability": "view",
            "type": "function"
        },
        {
            "anonymous": false,
            "inputs": [
                {
                    "indexed": true,
                    "name": "from",
                    "type": "address"
                },
                {
                    "indexed": true,
                    "name": "to",
                    "type": "address"
                },
                {
                    "indexed": false,
                    "name": "value",
                    "type": "uint256"
                }
            ],
            "name": "Transfer",
            "type": "event"
        },
        {
            "anonymous": false,
            "inputs": [
                {
                    "indexed": true,
                    "name": "owner",
                    "type": "address"
                },
                {
                    "indexed": true,
                    "name": "spender",
                    "type": "address"
                },
                {
                    "indexed": false,
                    "name": "value",
                    "type": "uint256"
                }
            ],
            "name": "Approval",
            "type": "event"
        },
        {
            "constant": false,
            "inputs": [],
            "name": "mint",
            "outputs": [
                {
                    "name": "",
                    "type": "bool"
                }
            ],
            "payable": true,
            "stateMutability": "payable",
            "type": "function"
        },
        {
            "constant": false,
            "inputs": [
                {
                    "name": "amount",
                    "type": "uint256"
                }
            ],
            "name": "burn",
            "outputs": [],
            "payable": false,
            "stateMutability": "nonpayable",
            "type": "function"
        }
    ],
    "bytecode": "0x608060405234801561001057600080fd5b50610a4a806100206000396000f3fe6080604052600436106100ae576000357c01000000000000000000000000000000000000000000000000000000009004806342966c681161007657806342966c68146101ab57806370a08231146101d7578063a457c2d71461020a578063a9059cbb14610243578063dd62ed3e1461027c576100ae565b8063095ea7b3146100b35780631249c58b1461010057806318160ddd1461010857806323b872dd1461012f5780633950935114610172575b600080fd5b3480156100bf57600080fd5b506100ec600480360360408110156100d657600080fd5b50600160a060020a0381351690602001356102b7565b604080519115158252519081900360200190f35b6100ec6102cd565b34801561011457600080fd5b5061011d610336565b60408051918252519081900360200190f35b34801561013b57600080fd5b506100ec6004803603606081101561015257600080fd5b50600160a060020a0381358116916020810135909116906040013561033c565b34801561017e57600080fd5b506100ec6004803603604081101561019557600080fd5b50600160a060020a038135169060200135610393565b3480156101b757600080fd5b506101d5600480360360208110156101ce57600080fd5b50356103cf565b005b3480156101e357600080fd5b5061011d600480360360208110156101fa57600080fd5b5035600160a060020a031661040a565b34801561021657600080fd5b506100ec6004803603604081101561022d57600080fd5b50600160a060020a038135169060200135610425565b34801561024f57600080fd5b506100ec6004803603604081101561026657600080fd5b50600160a060020a038135169060200135610461565b34801561028857600080fd5b5061011d6004803603604081101561029f57600080fd5b50600160a060020a038135811691602001351661046e565b60006102c4338484610499565b50600192915050565b6000803411610326576040805160e560020a62461bcd02815260206004820152601160248201527f6e6f2065746865722070726f7669646564000000000000000000000000000000604482015290519081900360640190fd5b610330333461058b565b50600190565b60025490565b600061034984848461067e565b600160a060020a038416600090815260016020908152604080832033808552925290912054610389918691610384908663ffffffff6107c616565b610499565b5060019392505050565b336000818152600160209081526040808320600160a060020a038716845290915281205490916102c4918590610384908663ffffffff61082616565b6103d9338261088a565b604051339082156108fc029083906000818181858888f19350505050158015610406573d6000803e3d6000fd5b5050565b600160a060020a031660009081526020819052604090205490565b336000818152600160209081526040808320600160a060020a038716845290915281205490916102c4918590610384908663ffffffff6107c616565b60006102c433848461067e565b600160a060020a03918216600090815260016020908152604080832093909416825291909152205490565b600160a060020a0383166104e15760405160e560020a62461bcd0281526004018080602001828103825260248152602001806109f26024913960400191505060405180910390fd5b600160a060020a0382166105295760405160e560020a62461bcd02815260040180806020018281038252602281526020018061098a6022913960400191505060405180910390fd5b600160a060020a03808416600081815260016020908152604080832094871680845294825291829020859055815185815291517f8c5be1e5ebec7d5bd14f71427d1e84f3dd0314c0f7b2291e5b200ac8c7c3b9259281900390910190a3505050565b600160a060020a0382166105e9576040805160e560020a62461bcd02815260206004820152601f60248201527f45524332303a206d696e7420746f20746865207a65726f206164647265737300604482015290519081900360640190fd5b6002546105fc908263ffffffff61082616565b600255600160a060020a038216600090815260208190526040902054610628908263ffffffff61082616565b600160a060020a0383166000818152602081815260408083209490945583518581529351929391927fddf252ad1be2c89b69c2b068fc378daa952ba7f163c4a11628f55a4df523b3ef9281900390910190a35050565b600160a060020a0383166106c65760405160e560020a62461bcd0281526004018080602001828103825260258152602001806109cd6025913960400191505060405180910390fd5b600160a060020a03821661070e5760405160e560020a62461bcd0281526004018080602001828103825260238152602001806109676023913960400191505060405180910390fd5b600160a060020a038316600090815260208190526040902054610737908263ffffffff6107c616565b600160a060020a03808516600090815260208190526040808220939093559084168152205461076c908263ffffffff61082616565b600160a060020a038084166000818152602081815260409182902094909455805185815290519193928716927fddf252ad1be2c89b69c2b068fc378daa952ba7f163c4a11628f55a4df523b3ef92918290030190a3505050565b600082821115610820576040805160e560020a62461bcd02815260206004820152601e60248201527f536166654d6174683a207375627472616374696f6e206f766572666c6f770000604482015290519081900360640190fd5b50900390565b600082820183811015610883576040805160e560020a62461bcd02815260206004820152601b60248201527f536166654d6174683a206164646974696f6e206f766572666c6f770000000000604482015290519081900360640190fd5b9392505050565b600160a060020a0382166108d25760405160e560020a62461bcd0281526004018080602001828103825260218152602001806109ac6021913960400191505060405180910390fd5b6002546108e5908263ffffffff6107c616565b600255600160a060020a038216600090815260208190526040902054610911908263ffffffff6107c616565b600160a060020a038316600081815260208181526040808320949094558351858152935191937fddf252ad1be2c89b69c2b068fc378daa952ba7f163c4a11628f55a4df523b3ef929081900390910190a3505056fe45524332303a207472616e7366657220746f20746865207a65726f206164647265737345524332303a20617070726f766520746f20746865207a65726f206164647265737345524332303a206275726e2066726f6d20746865207a65726f206164647265737345524332303a207472616e736665722066726f6d20746865207a65726f206164647265737345524332303a20617070726f76652066726f6d20746865207a65726f2061646472657373a265627a7a72305820a18c9141e149ad9ecbfbd4fd09df44a93d55148eb367353c7c7aa62a7d9ef55364736f6c634300050a0032",
    "source": "pragma solidity 0.5.10;\n\nimport \"@openzeppelin/contracts/token/ERC20/ERC20.sol\";\n\n\ncontract ERC20Wrapper is ERC20 {\n\n    /// @notice mints as many tokens as ethers are provided\n    /// @return true if successfull\n    function mint() public payable returns (bool) {\n        require(msg.value > 0, \"no ether provided\");\n        _mint(msg.sender, msg.value);\n        return true;\n    }\n\n    /// @notice burns tokens and receives locked ether for it\n    /// @param amount the amount of ether to be burned / ether to be received\n    function burn(uint256 amount) public {\n        _burn(msg.sender, amount);\n        msg.sender.transfer(amount);\n    }\n}",
    "sourcePath": "/home/junaid/Desktop/work/in3-contracts/contracts/ERC20Wrapper.sol",
    "compiler": {
        "name": "solc",
        "version": "0.5.10+commit.5a6ea5b1.Emscripten.clang"
    },
    "schemaVersion": "3.0.11",
    "updatedAt": "2020-01-07T15:58:17.546Z",
    "devdoc": {
        "methods": {
            "allowance(address,address)": {
                "details": "See `IERC20.allowance`."
            },
            "approve(address,uint256)": {
                "details": "See `IERC20.approve`.     * Requirements:     * - `spender` cannot be the zero address."
            },
            "balanceOf(address)": {
                "details": "See `IERC20.balanceOf`."
            },
            "burn(uint256)": {
                "params": {
                    "amount": "the amount of ether to be burned / ether to be received"
                }
            },
            "decreaseAllowance(address,uint256)": {
                "details": "Atomically decreases the allowance granted to `spender` by the caller.     * This is an alternative to `approve` that can be used as a mitigation for problems described in `IERC20.approve`.     * Emits an `Approval` event indicating the updated allowance.     * Requirements:     * - `spender` cannot be the zero address. - `spender` must have allowance for the caller of at least `subtractedValue`."
            },
            "increaseAllowance(address,uint256)": {
                "details": "Atomically increases the allowance granted to `spender` by the caller.     * This is an alternative to `approve` that can be used as a mitigation for problems described in `IERC20.approve`.     * Emits an `Approval` event indicating the updated allowance.     * Requirements:     * - `spender` cannot be the zero address."
            },
            "mint()": {
                "return": "true if successfull"
            },
            "totalSupply()": {
                "details": "See `IERC20.totalSupply`."
            },
            "transfer(address,uint256)": {
                "details": "See `IERC20.transfer`.     * Requirements:     * - `recipient` cannot be the zero address. - the caller must have a balance of at least `amount`."
            },
            "transferFrom(address,address,uint256)": {
                "details": "See `IERC20.transferFrom`.     * Emits an `Approval` event indicating the updated allowance. This is not required by the EIP. See the note at the beginning of `ERC20`;     * Requirements: - `sender` and `recipient` cannot be the zero address. - `sender` must have a balance of at least `value`. - the caller must have allowance for `sender`'s tokens of at least `amount`."
            }
        }
    },
    "userdoc": {
        "methods": {
            "burn(uint256)": {
                "notice": "burns tokens and receives locked ether for it"
            },
            "mint()": {
                "notice": "mints as many tokens as ethers are provided"
            }
        }
    }
}