{
  "contractName": "NodeRegistryLogic",
  "abi": [
    {
      "constant": true,
      "inputs": [],
      "name": "adminKey",
      "outputs": [
        {
          "name": "",
          "type": "address"
        }
      ],
      "payable": false,
      "stateMutability": "view",
      "type": "function"
    },
    {
      "constant": true,
      "inputs": [],
      "name": "minDeposit",
      "outputs": [
        {
          "name": "",
          "type": "uint256"
        }
      ],
      "payable": false,
      "stateMutability": "view",
      "type": "function"
    },
    {
      "constant": true,
      "inputs": [],
      "name": "timestampAdminKeyActive",
      "outputs": [
        {
          "name": "",
          "type": "uint256"
        }
      ],
      "payable": false,
      "stateMutability": "view",
      "type": "function"
    },
    {
      "constant": true,
      "inputs": [],
      "name": "maxDepositFirstYear",
      "outputs": [
        {
          "name": "",
          "type": "uint256"
        }
      ],
      "payable": false,
      "stateMutability": "view",
      "type": "function"
    },
    {
      "constant": true,
      "inputs": [],
      "name": "nodeRegistryData",
      "outputs": [
        {
          "name": "",
          "type": "address"
        }
      ],
      "payable": false,
      "stateMutability": "view",
      "type": "function"
    },
    {
      "constant": true,
      "inputs": [],
      "name": "updateTimeout",
      "outputs": [
        {
          "name": "",
          "type": "uint256"
        }
      ],
      "payable": false,
      "stateMutability": "view",
      "type": "function"
    },
    {
      "constant": true,
      "inputs": [],
      "name": "pendingNewLogic",
      "outputs": [
        {
          "name": "",
          "type": "address"
        }
      ],
      "payable": false,
      "stateMutability": "view",
      "type": "function"
    },
    {
      "constant": true,
      "inputs": [],
      "name": "blockRegistry",
      "outputs": [
        {
          "name": "",
          "type": "address"
        }
      ],
      "payable": false,
      "stateMutability": "view",
      "type": "function"
    },
    {
      "constant": true,
      "inputs": [],
      "name": "VERSION",
      "outputs": [
        {
          "name": "",
          "type": "uint256"
        }
      ],
      "payable": false,
      "stateMutability": "view",
      "type": "function"
    },
    {
      "inputs": [
        {
          "name": "_blockRegistry",
          "type": "address"
        },
        {
          "name": "_nodeRegistryData",
          "type": "address"
        },
        {
          "name": "_minDeposit",
          "type": "uint256"
        }
      ],
      "payable": false,
      "stateMutability": "nonpayable",
      "type": "constructor"
    },
    {
      "anonymous": false,
      "inputs": [
        {
          "indexed": false,
          "name": "url",
          "type": "string"
        },
        {
          "indexed": false,
          "name": "props",
          "type": "uint192"
        },
        {
          "indexed": false,
          "name": "signer",
          "type": "address"
        },
        {
          "indexed": false,
          "name": "deposit",
          "type": "uint256"
        }
      ],
      "name": "LogNodeRegistered",
      "type": "event"
    },
    {
      "anonymous": false,
      "inputs": [
        {
          "indexed": false,
          "name": "signer",
          "type": "address"
        }
      ],
      "name": "LogNodeConvicted",
      "type": "event"
    },
    {
      "anonymous": false,
      "inputs": [
        {
          "indexed": false,
          "name": "url",
          "type": "string"
        },
        {
          "indexed": false,
          "name": "signer",
          "type": "address"
        }
      ],
      "name": "LogNodeRemoved",
      "type": "event"
    },
    {
      "anonymous": false,
      "inputs": [
        {
          "indexed": false,
          "name": "url",
          "type": "string"
        },
        {
          "indexed": false,
          "name": "props",
          "type": "uint192"
        },
        {
          "indexed": false,
          "name": "signer",
          "type": "address"
        },
        {
          "indexed": false,
          "name": "deposit",
          "type": "uint256"
        }
      ],
      "name": "LogNodeUpdated",
      "type": "event"
    },
    {
      "anonymous": false,
      "inputs": [
        {
          "indexed": false,
          "name": "signer",
          "type": "address"
        },
        {
          "indexed": false,
          "name": "oldOwner",
          "type": "address"
        },
        {
          "indexed": false,
          "name": "newOwner",
          "type": "address"
        }
      ],
      "name": "LogOwnershipChanged",
      "type": "event"
    },
    {
      "anonymous": false,
      "inputs": [
        {
          "indexed": false,
          "name": "newPendingContract",
          "type": "address"
        }
      ],
      "name": "LogNewPendingContract",
      "type": "event"
    },
    {
      "anonymous": false,
      "inputs": [
        {
          "indexed": false,
          "name": "signer",
          "type": "address"
        },
        {
          "indexed": false,
          "name": "owner",
          "type": "address"
        },
        {
          "indexed": false,
          "name": "deposit",
          "type": "uint256"
        },
        {
          "indexed": false,
          "name": "erc20Token",
          "type": "address"
        }
      ],
      "name": "LogDepositReturned",
      "type": "event"
    },
    {
      "constant": false,
      "inputs": [],
      "name": "activateNewLogic",
      "outputs": [],
      "payable": false,
      "stateMutability": "nonpayable",
      "type": "function"
    },
    {
      "constant": false,
      "inputs": [
        {
          "name": "_signer",
          "type": "address"
        }
      ],
      "name": "adminRemoveNodeFromRegistry",
      "outputs": [],
      "payable": false,
      "stateMutability": "nonpayable",
      "type": "function"
    },
    {
      "constant": false,
      "inputs": [
        {
          "name": "_newLogic",
          "type": "address"
        }
      ],
      "name": "adminUpdateLogic",
      "outputs": [],
      "payable": false,
      "stateMutability": "nonpayable",
      "type": "function"
    },
    {
      "constant": false,
      "inputs": [
        {
          "name": "_hash",
          "type": "bytes32"
        }
      ],
      "name": "convict",
      "outputs": [],
      "payable": false,
      "stateMutability": "nonpayable",
      "type": "function"
    },
    {
      "constant": false,
      "inputs": [
        {
          "name": "_url",
          "type": "string"
        },
        {
          "name": "_props",
          "type": "uint192"
        },
        {
          "name": "_weight",
          "type": "uint64"
        },
        {
          "name": "_deposit",
          "type": "uint256"
        }
      ],
      "name": "registerNode",
      "outputs": [],
      "payable": false,
      "stateMutability": "nonpayable",
      "type": "function"
    },
    {
      "constant": false,
      "inputs": [
        {
          "name": "_url",
          "type": "string"
        },
        {
          "name": "_props",
          "type": "uint192"
        },
        {
          "name": "_signer",
          "type": "address"
        },
        {
          "name": "_weight",
          "type": "uint64"
        },
        {
          "name": "_depositAmount",
          "type": "uint256"
        },
        {
          "name": "_v",
          "type": "uint8"
        },
        {
          "name": "_r",
          "type": "bytes32"
        },
        {
          "name": "_s",
          "type": "bytes32"
        }
      ],
      "name": "registerNodeFor",
      "outputs": [],
      "payable": false,
      "stateMutability": "nonpayable",
      "type": "function"
    },
    {
      "constant": false,
      "inputs": [
        {
          "name": "_signer",
          "type": "address"
        }
      ],
      "name": "returnDeposit",
      "outputs": [],
      "payable": false,
      "stateMutability": "nonpayable",
      "type": "function"
    },
    {
      "constant": false,
      "inputs": [
        {
          "name": "_signer",
          "type": "address"
        },
        {
          "name": "_blockhash",
          "type": "bytes32"
        },
        {
          "name": "_blockNumber",
          "type": "uint256"
        },
        {
          "name": "_v",
          "type": "uint8"
        },
        {
          "name": "_r",
          "type": "bytes32"
        },
        {
          "name": "_s",
          "type": "bytes32"
        }
      ],
      "name": "revealConvict",
      "outputs": [],
      "payable": false,
      "stateMutability": "nonpayable",
      "type": "function"
    },
    {
      "constant": false,
      "inputs": [
        {
          "name": "_signer",
          "type": "address"
        },
        {
          "name": "_newOwner",
          "type": "address"
        }
      ],
      "name": "transferOwnership",
      "outputs": [],
      "payable": false,
      "stateMutability": "nonpayable",
      "type": "function"
    },
    {
      "constant": false,
      "inputs": [
        {
          "name": "_signer",
          "type": "address"
        }
      ],
      "name": "unregisteringNode",
      "outputs": [],
      "payable": false,
      "stateMutability": "nonpayable",
      "type": "function"
    },
    {
      "constant": false,
      "inputs": [
        {
          "name": "_signer",
          "type": "address"
        },
        {
          "name": "_url",
          "type": "string"
        },
        {
          "name": "_props",
          "type": "uint192"
        },
        {
          "name": "_weight",
          "type": "uint64"
        },
        {
          "name": "_additionalDeposit",
          "type": "uint256"
        }
      ],
      "name": "updateNode",
      "outputs": [],
      "payable": false,
      "stateMutability": "nonpayable",
      "type": "function"
    },
    {
      "constant": true,
      "inputs": [],
      "name": "supportedToken",
      "outputs": [
        {
          "name": "",
          "type": "address"
        }
      ],
      "payable": false,
      "stateMutability": "view",
      "type": "function"
    },
    {
      "constant": true,
      "inputs": [],
      "name": "totalNodes",
      "outputs": [
        {
          "name": "",
          "type": "uint256"
        }
      ],
      "payable": false,
      "stateMutability": "view",
      "type": "function"
    }
  ],
  "bytecode": "0x60806040523480156200001157600080fd5b5060405162003c2338038062003c23833981016040819052620000349162000143565b600160a060020a03831662000080576040517f08c379a0000000000000000000000000000000000000000000000000000000008152600401620000779062000245565b60405180910390fd5b60008054600160a060020a03808616600160a060020a031992831617909255426301e133800160025560038054909116331790558216620000ef576040517f08c379a0000000000000000000000000000000000000000000000000000000008152600401620000779062000233565b60018054600160a060020a031916600160a060020a03939093169290921790915560078190556107d00260065550620002ae565b8051620001308162000289565b92915050565b80516200013081620002a3565b6000806000606084860312156200015957600080fd5b600062000167868662000123565b93505060206200017a8682870162000123565b92505060406200018d8682870162000136565b9150509250925092565b6000620001a660208362000257565b7f6e6f206e6f6465526567697374727920616464726573732070726f7669646564815260200192915050565b6000620001e160218362000257565b7f6e6f20626c6f636b526567697374727920616464726573732070726f7669646581527f6400000000000000000000000000000000000000000000000000000000000000602082015260400192915050565b60208082528101620001308162000197565b602080825281016200013081620001d2565b90815260200190565b600062000130826200027a565b6000620001308262000260565b600160a060020a031690565b90565b62000294816200026d565b8114620002a057600080fd5b50565b620002948162000286565b61396580620002be6000396000f3fe608060405234801561001057600080fd5b50600436106101465760003560e060020a900480639822fdf2116100bc578063bdef930311610080578063bdef93031461023f578063c2db4dda14610252578063c64751bd14610265578063d402353e14610278578063ecf55ad51461028b578063ffa1ad741461029357610146565b80639822fdf214610201578063aa89859314610209578063aee9ea461461021c578063afa099a314610224578063b474ec7a1461022c57610146565b80636d4354211161010e5780636d435421146101bb578063701ccdef146101ce5780637d84f2b1146101d65780638aeb927b146101e95780638e7908b6146101f15780639592d424146101f957610146565b80630ee0599c1461014b5780631b401f6514610169578063233044d01461017e57806341b3d1851461019357806363c099f7146101a8575b600080fd5b61015361029b565b60405161016091906134e8565b60405180910390f35b61017c6101773660046126ed565b610336565b005b610186610666565b604051610160919061330a565b61019b610675565b604051610160919061348a565b61017c6101b63660046127d4565b61067b565b61017c6101c9366004612713565b610a9c565b61019b610d69565b61017c6101e43660046128ff565b610d6f565b61019b610f19565b610153610f1f565b61019b610f2e565b61017c610fc4565b61017c6102173660046129ca565b6110ac565b61019b6110f9565b6101866110ff565b61017c61023a3660046126ed565b61110e565b61017c61024d3660046126ed565b6111d0565b61017c6102603660046126ed565b611500565b61017c6102733660046128a5565b6116f8565b61017c61028636600461274d565b611771565b610153611fd6565b61019b611fe5565b600154604080517f0ee0599c0000000000000000000000000000000000000000000000000000000081529051600092600160a060020a031691630ee0599c916004808301926020929190829003018186803b1580156102f957600080fd5b505afa15801561030d573d6000803e3d6000fd5b505050506040513d601f19601f8201168201806040525061033191908101906128e1565b905090565b61033e61240d565b60015460405160e060020a635d7611b9028152600160a060020a0390911690635d7611b99061037190859060040161330a565b60a06040518083038186803b15801561038957600080fd5b505afa15801561039d573d6000803e3d6000fd5b505050506040513d601f19601f820116820180604052506103c19190810190612a7c565b905060018160400151146103f35760405160e560020a62461bcd0281526004016103ea906136b0565b60405180910390fd5b6020810151600160a060020a031633146104225760405160e560020a62461bcd0281526004016103ea906135c0565b61042a61244f565b60015460808301516040517f06a8ea88000000000000000000000000000000000000000000000000000000008152600160a060020a03909216916306a8ea88916104769160040161348a565b60006040518083038186803b15801561048e57600080fd5b505afa1580156104a2573d6000803e3d6000fd5b505050506040513d6000823e601f3d908101601f191682016040526104ca9190810190612a47565b905082600160a060020a03168160a00151600160a060020a0316146105045760405160e560020a62461bcd0281526004016103ea906135d0565b6001546040517f1b401f65000000000000000000000000000000000000000000000000000000008152600160a060020a0390911690631b401f659061054d90869060040161330a565b602060405180830381600087803b15801561056757600080fd5b505af115801561057b573d6000803e3d6000fd5b505050506040513d601f19601f8201168201806040525061059f9190810190612857565b50600154600160a060020a0316636cea2d818460036040518363ffffffff1660e060020a0281526004016105d492919061347c565b602060405180830381600087803b1580156105ee57600080fd5b505af1158015610602573d6000803e3d6000fd5b505050506040513d601f19601f820116820180604052506106269190810190612857565b5080516040517f78267f80e41fea0cce6d47208671d5c1d990b9fdaefd72a3989de95cde34bc6291610659918690613590565b60405180910390a1505050565b600354600160a060020a031681565b60075481565b61068361240d565b60015460405160e060020a635d7611b9028152600160a060020a0390911690635d7611b9906106b6908a9060040161330a565b60a06040518083038186803b1580156106ce57600080fd5b505afa1580156106e2573d6000803e3d6000fd5b505050506040513d601f19601f820116820180604052506107069190810190612a7c565b9050600181604001511461072f5760405160e560020a62461bcd0281526004016103ea906136b0565b6020810151600160a060020a0316331461075e5760405160e560020a62461bcd0281526004016103ea906135c0565b61076661244f565b6001546040517f0ce02d8f000000000000000000000000000000000000000000000000000000008152600160a060020a0390911690630ce02d8f906107af908b9060040161330a565b60006040518083038186803b1580156107c757600080fd5b505afa1580156107db573d6000803e3d6000fd5b505050506040513d6000823e601f3d908101601f191682016040526108039190810190612a47565b905087600160a060020a03168160a00151600160a060020a03161461083d5760405160e560020a62461bcd0281526004016103ea906135d0565b602081015161084b81611fef565b83156109ad57600154604080517f0ee0599c0000000000000000000000000000000000000000000000000000000081529051600092600160a060020a031691630ee0599c916004808301926020929190829003018186803b1580156108af57600080fd5b505afa1580156108c3573d6000803e3d6000fd5b505050506040513d601f19601f820116820180604052506108e791908101906128e1565b6001546040517f23b872dd000000000000000000000000000000000000000000000000000000008152919250600160a060020a03808416926323b872dd926109389233929116908a90600401613318565b602060405180830381600087803b15801561095257600080fd5b505af1158015610966573d6000803e3d6000fd5b505050506040513d601f19601f8201168201806040525061098a9190810190612857565b6109a95760405160e560020a62461bcd0281526004016103ea906135b0565b5083015b6001546040517f63c099f7000000000000000000000000000000000000000000000000000000008152600160a060020a03909116906363c099f790610a00908c908c908c908c908c90899060040161340c565b602060405180830381600087803b158015610a1a57600080fd5b505af1158015610a2e573d6000803e3d6000fd5b505050506040513d601f19601f82011682018060405250610a529190810190612857565b5081516040517f9e0188ed368406809d657d164afbf5a01a67f62175294c19bf38e4741ca3583691610a899189908d9086906134f6565b60405180910390a1505050505050505050565b600160a060020a038116610ac55760405160e560020a62461bcd0281526004016103ea90613680565b610acd61240d565b60015460405160e060020a635d7611b9028152600160a060020a0390911690635d7611b990610b0090869060040161330a565b60a06040518083038186803b158015610b1857600080fd5b505afa158015610b2c573d6000803e3d6000fd5b505050506040513d601f19601f82011682018060405250610b509190810190612a7c565b90506001816040015114610b795760405160e560020a62461bcd0281526004016103ea906136b0565b6020810151600160a060020a03163314610ba85760405160e560020a62461bcd0281526004016103ea906135c0565b610bb061244f565b60015460808301516040517f06a8ea88000000000000000000000000000000000000000000000000000000008152600160a060020a03909216916306a8ea8891610bfc9160040161348a565b60006040518083038186803b158015610c1457600080fd5b505afa158015610c28573d6000803e3d6000fd5b505050506040513d6000823e601f3d908101601f19168201604052610c509190810190612a47565b905083600160a060020a03168160a00151600160a060020a031614610c8a5760405160e560020a62461bcd0281526004016103ea906135d0565b6001546040517f6d435421000000000000000000000000000000000000000000000000000000008152600160a060020a0390911690636d43542190610cd59087908790600401613362565b602060405180830381600087803b158015610cef57600080fd5b505af1158015610d03573d6000803e3d6000fd5b505050506040513d601f19601f82011682018060405250610d279190810190612857565b507fc9c065a583ca07c50dabe212e03f5c8f67ac75a99544c771e7222650481ea35b843385604051610d5b9392919061337d565b60405180910390a150505050565b60025481565b60606040518060400160405280601c81526020017f19457468657265756d205369676e6564204d6573736167653a0a333200000000815250905060008a8a8a8933604051602001610dc49594939291906132c4565b60405160208183030381529060405280519060200120905060008282604051602001610df19291906132a2565b6040516020818303038152906040528051906020012090508560ff16601b1480610e1e57508560ff16601c145b610e3d5760405160e560020a62461bcd0281526004016103ea906135e0565b600060018288888860405160008152602001604052604051610e6294939291906134b3565b6020604051602081039080840390855afa158015610e84573d6000803e3d6000fd5b50505060206040510351905080600160a060020a03168a600160a060020a031614610ec45760405160e560020a62461bcd0281526004016103ea90613710565b610f0a8d8d8080601f0160208091040260200160405190810160405280939291908181526020018383808284376000920191909152508f92508e91503390508c8e612042565b50505050505050505050505050565b60065481565b600154600160a060020a031681565b600154604080517f9592d4240000000000000000000000000000000000000000000000000000000081529051600092600160a060020a031691639592d424916004808301926020929190829003018186803b158015610f8c57600080fd5b505afa158015610fa0573d6000803e3d6000fd5b505050506040513d601f19601f8201168201806040525061033191908101906128c3565b600454610fe65760405160e560020a62461bcd0281526004016103ea906136e0565b600454421161100a5760405160e560020a62461bcd0281526004016103ea906136f0565b6001546005546040517f912f137e000000000000000000000000000000000000000000000000000000008152600160a060020a039283169263912f137e926110579291169060040161330a565b602060405180830381600087803b15801561107157600080fd5b505af1158015611085573d6000803e3d6000fd5b505050506040513d601f19601f820116820180604052506110a99190810190612857565b50565b6110f285858080601f0160208091040260200160405190810160405280939291908181526020018383808284376000920191909152508792503391508190508587612042565b5050505050565b60045481565b600554600160a060020a031681565b600354600160a060020a0316331461113b5760405160e560020a62461bcd0281526004016103ea906135f0565b600160a060020a0381166111645760405160e560020a62461bcd0281526004016103ea906136a0565b42623df680016004556005805473ffffffffffffffffffffffffffffffffffffffff1916600160a060020a0383161790556040517f81999cf75d957cdfb35457e4d189c32a4cfe3fbd45d7a90cd14a5b368da15be5906111c590839061330a565b60405180910390a150565b6111d861240d565b60015460405160e060020a635d7611b9028152600160a060020a0390911690635d7611b99061120b90859060040161330a565b60a06040518083038186803b15801561122357600080fd5b505afa158015611237573d6000803e3d6000fd5b505050506040513d601f19601f8201168201806040525061125b9190810190612a7c565b6020810151909150600160a060020a0316331461128d5760405160e560020a62461bcd0281526004016103ea90613660565b60038160400151146112b45760405160e560020a62461bcd0281526004016103ea906136b0565b42816000015167ffffffffffffffff1611156112e55760405160e560020a62461bcd0281526004016103ea90613640565b606081018051600080845260208401819052604080850182905292819052608084015260015491517f3dd703a80000000000000000000000000000000000000000000000000000000081529091600160a060020a031690633dd703a8906113529086908690600401613461565b602060405180830381600087803b15801561136c57600080fd5b505af1158015611380573d6000803e3d6000fd5b505050506040513d601f19601f820116820180604052506113a49190810190612857565b506001546040517f3fafa911000000000000000000000000000000000000000000000000000000008152600160a060020a0390911690633fafa911906113f09033908590600401613340565b602060405180830381600087803b15801561140a57600080fd5b505af115801561141e573d6000803e3d6000fd5b505050506040513d601f19601f820116820180604052506114429190810190612857565b507f5bb19bc85bbfc7fab030191d7229d0ffd5d04970e8b45fb08ffa648d8d60512d833383600160009054906101000a9004600160a060020a0316600160a060020a0316630ee0599c6040518163ffffffff1660e060020a02815260040160206040518083038186803b1580156114b857600080fd5b505afa1580156114cc573d6000803e3d6000fd5b505050506040513d601f19601f820116820180604052506114f091908101906128e1565b60405161065994939291906133a5565b600354600160a060020a0316331461152d5760405160e560020a62461bcd0281526004016103ea906135f0565b6002544211156115525760405160e560020a62461bcd0281526004016103ea90613610565b61155a61240d565b60015460405160e060020a635d7611b9028152600160a060020a0390911690635d7611b99061158d90859060040161330a565b60a06040518083038186803b1580156115a557600080fd5b505afa1580156115b9573d6000803e3d6000fd5b505050506040513d601f19601f820116820180604052506115dd9190810190612a7c565b905060018160400151146116065760405160e560020a62461bcd0281526004016103ea906136b0565b61160e61244f565b60015460808301516040517f06a8ea88000000000000000000000000000000000000000000000000000000008152600160a060020a03909216916306a8ea889161165a9160040161348a565b60006040518083038186803b15801561167257600080fd5b505afa158015611686573d6000803e3d6000fd5b505050506040513d6000823e601f3d908101601f191682016040526116ae9190810190612a47565b6001546040517f1b401f65000000000000000000000000000000000000000000000000000000008152919250600160a060020a031690631b401f659061054d90869060040161330a565b6001546040517f3026b65b000000000000000000000000000000000000000000000000000000008152600160a060020a0390911690633026b65b906117439084903390600401613498565b600060405180830381600087803b15801561175d57600080fd5b505af11580156110f2573d6000803e3d6000fd5b8260ff16601b148061178657508260ff16601c145b6117a55760405160e560020a62461bcd0281526004016103ea90613720565b834080611848576000546040517fe877b873000000000000000000000000000000000000000000000000000000008152600160a060020a039091169063e877b873906117f590889060040161348a565b60206040518083038186803b15801561180d57600080fd5b505afa158015611821573d6000803e3d6000fd5b505050506040513d601f19601f8201168201806040525061184591908101906128c3565b90505b806118685760405160e560020a62461bcd0281526004016103ea90613650565b8581141561188b5760405160e560020a62461bcd0281526004016103ea906136d0565b600086338686866040516020016118a6959493929190613212565b60408051601f198184030181529082905280516020909101206001547fa82a2653000000000000000000000000000000000000000000000000000000008352909250600091600160a060020a039091169063a82a26539061190d9033908690600401613340565b60206040518083038186803b15801561192557600080fd5b505afa158015611939573d6000803e3d6000fd5b505050506040513d601f19601f8201168201806040525061195d91908101906128c3565b90508061197f5760405160e560020a62461bcd0281526004016103ea90613700565b8060020143116119a45760405160e560020a62461bcd0281526004016103ea90613620565b88600160a060020a031660018989600160009054906101000a9004600160a060020a0316600160a060020a03166304ef898d6040518163ffffffff1660e060020a02815260040160206040518083038186803b158015611a0357600080fd5b505afa158015611a17573d6000803e3d6000fd5b505050506040513d601f19601f82011682018060405250611a3b91908101906128c3565b604051602001611a4d9392919061326b565b6040516020818303038152906040528051906020012088888860405160008152602001604052604051611a8394939291906134b3565b6020604051602081039080840390855afa158015611aa5573d6000803e3d6000fd5b50505060206040510351600160a060020a031614611ad85760405160e560020a62461bcd0281526004016103ea90613690565b611ae061240d565b60015460405160e060020a635d7611b9028152600160a060020a0390911690635d7611b990611b13908d9060040161330a565b60a06040518083038186803b158015611b2b57600080fd5b505afa158015611b3f573d6000803e3d6000fd5b505050506040513d601f19601f82011682018060405250611b639190810190612a7c565b9050600181604001511480611b7c575060038160400151145b611b9b5760405160e560020a62461bcd0281526004016103ea906136b0565b6000600182604001511415611e5357611bb261244f565b6001546040517f0ce02d8f000000000000000000000000000000000000000000000000000000008152600160a060020a0390911690630ce02d8f90611bfb908f9060040161330a565b60006040518083038186803b158015611c1357600080fd5b505afa158015611c27573d6000803e3d6000fd5b505050506040513d6000823e601f3d908101601f19168201604052611c4f9190810190612a47565b60208101516001546040517f7400d073000000000000000000000000000000000000000000000000000000008152919450919250600160a060020a0390911690637400d07390611ca6908f906000906004016133f1565b602060405180830381600087803b158015611cc057600080fd5b505af1158015611cd4573d6000803e3d6000fd5b505050506040513d601f19601f82011682018060405250611cf89190810190612857565b506001546040517fc2db4dda000000000000000000000000000000000000000000000000000000008152600160a060020a039091169063c2db4dda90611d42908f9060040161330a565b600060405180830381600087803b158015611d5c57600080fd5b505af1158015611d70573d6000803e3d6000fd5b50506001546040517f6cea2d81000000000000000000000000000000000000000000000000000000008152600160a060020a039091169250636cea2d819150611dc0908f9060029060040161347c565b602060405180830381600087803b158015611dda57600080fd5b505af1158015611dee573d6000803e3d6000fd5b505050506040513d601f19601f82011682018060405250611e129190810190612857565b5080516040517f78267f80e41fea0cce6d47208671d5c1d990b9fdaefd72a3989de95cde34bc6291611e45918f90613590565b60405180910390a150611f09565b50606081015160026040808401919091526000606084015260015490517f3dd703a8000000000000000000000000000000000000000000000000000000008152600160a060020a0390911690633dd703a890611eb5908e908690600401613461565b602060405180830381600087803b158015611ecf57600080fd5b505af1158015611ee3573d6000803e3d6000fd5b505050506040513d601f19601f82011682018060405250611f079190810190612857565b505b600154600160a060020a0316633fafa91133600284046040518363ffffffff1660e060020a028152600401611f3f929190613340565b602060405180830381600087803b158015611f5957600080fd5b505af1158015611f6d573d6000803e3d6000fd5b505050506040513d601f19601f82011682018060405250611f919190810190612857565b507f99cf870e2c7ee878455cc590c43877ba030304a8a5dd703bcfbd5c4822009f788b604051611fc1919061330a565b60405180910390a15050505050505050505050565b600054600160a060020a031681565b650b2fd2558df581565b6007548110156120145760405160e560020a62461bcd0281526004016103ea90613670565b6002544210156110a95760065481106110a95760405160e560020a62461bcd0281526004016103ea906136c0565b61204b82611fef565b600154604080517f0ee0599c0000000000000000000000000000000000000000000000000000000081529051600092600160a060020a031691630ee0599c916004808301926020929190829003018186803b1580156120a957600080fd5b505afa1580156120bd573d6000803e3d6000fd5b505050506040513d601f19601f820116820180604052506120e191908101906128e1565b6001546040517f23b872dd000000000000000000000000000000000000000000000000000000008152919250600160a060020a03808416926323b872dd9261213292899291169088906004016133e3565b602060405180830381600087803b15801561214c57600080fd5b505af1158015612160573d6000803e3d6000fd5b505050506040513d601f19601f820116820180604052506121849190810190612857565b6121a35760405160e560020a62461bcd0281526004016103ea906135b0565b6121ab61240d565b60015460405160e060020a635d7611b9028152600160a060020a0390911690635d7611b9906121de90899060040161330a565b60a06040518083038186803b1580156121f657600080fd5b505afa15801561220a573d6000803e3d6000fd5b505050506040513d601f19601f8201168201806040525061222e9190810190612a7c565b885160208a01206001546040517fde7dda740000000000000000000000000000000000000000000000000000000081529293509091600091600160a060020a03169063de7dda749061228490859060040161348a565b604080518083038186803b15801561229b57600080fd5b505afa1580156122af573d6000803e3d6000fd5b505050506040513d601f19601f820116820180604052506122d39190810190612875565b50905080156122f75760405160e560020a62461bcd0281526004016103ea90613630565b60408301511561231c5760405160e560020a62461bcd0281526004016103ea90613600565b600180546040517f14cfd6e9000000000000000000000000000000000000000000000000000000008152600160a060020a03909116916314cfd6e991612371918e918e918e918c918f918f9190600401613523565b602060405180830381600087803b15801561238b57600080fd5b505af115801561239f573d6000803e3d6000fd5b505050506040513d601f19601f820116820180604052506123c39190810190612857565b507f0299d04a77b985319ad1c515644fefc6dce93659db62ce6dc2c184421d603f728a8a8a896040516123f994939291906134f6565b60405180910390a150505050505050505050565b6040518060a00160405280600067ffffffffffffffff1681526020016000600160a060020a031681526020016000815260200160008152602001600081525090565b6040805160e081018252606080825260006020830181905292820183905281018290526080810182905260a0810182905260c081019190915290565b8035612496816138d8565b92915050565b8051612496816138d8565b8051612496816138ec565b8035612496816138f5565b8051612496816138f5565b8051612496816138fe565b60008083601f8401126124e557600080fd5b50813567ffffffffffffffff8111156124fd57600080fd5b60208301915083600182028301111561251557600080fd5b9250929050565b600082601f83011261252d57600080fd5b815161254061253b82613757565b613730565b9150808252602083016020830185838301111561255c57600080fd5b61256783828461380d565b50505092915050565b600060e0828403121561258257600080fd5b61258c60e0613730565b825190915067ffffffffffffffff8111156125a657600080fd5b6125b28482850161251c565b82525060206125c3848483016124bd565b60208301525060406125d7848285016126d7565b60408301525060606125eb848285016126c1565b60608301525060806125ff848285016126d7565b60808301525060a06126138482850161249c565b60a08301525060c0612627848285016124bd565b60c08301525092915050565b600060a0828403121561264557600080fd5b61264f60a0613730565b9050600061265d84846126d7565b825250602061266e8484830161249c565b6020830152506040612682848285016124bd565b6040830152506060612696848285016124bd565b60608301525060806126aa848285016124bd565b60808301525092915050565b803561249681613907565b805161249681613907565b803561249681613910565b805161249681613910565b803561249681613919565b6000602082840312156126ff57600080fd5b600061270b848461248b565b949350505050565b6000806040838503121561272657600080fd5b6000612732858561248b565b92505060206127438582860161248b565b9150509250929050565b60008060008060008060c0878903121561276657600080fd5b6000612772898961248b565b965050602061278389828a016124b2565b955050604061279489828a016124b2565b94505060606127a589828a016126e2565b93505060806127b689828a016124b2565b92505060a06127c789828a016124b2565b9150509295509295509295565b60008060008060008060a087890312156127ed57600080fd5b60006127f9898961248b565b965050602087013567ffffffffffffffff81111561281657600080fd5b61282289828a016124d3565b9550955050604061283589828a016126b6565b935050606061284689828a016126cc565b92505060806127c789828a016124b2565b60006020828403121561286957600080fd5b600061270b84846124a7565b6000806040838503121561288857600080fd5b600061289485856124a7565b92505060206127438582860161249c565b6000602082840312156128b757600080fd5b600061270b84846124b2565b6000602082840312156128d557600080fd5b600061270b84846124bd565b6000602082840312156128f357600080fd5b600061270b84846124c8565b60008060008060008060008060006101008a8c03121561291e57600080fd5b893567ffffffffffffffff81111561293557600080fd5b6129418c828d016124d3565b995099505060206129548c828d016126b6565b97505060406129658c828d0161248b565b96505060606129768c828d016126cc565b95505060806129878c828d016124b2565b94505060a06129988c828d016126e2565b93505060c06129a98c828d016124b2565b92505060e06129ba8c828d016124b2565b9150509295985092959850929598565b6000806000806000608086880312156129e257600080fd5b853567ffffffffffffffff8111156129f957600080fd5b612a05888289016124d3565b95509550506020612a18888289016126b6565b9350506040612a29888289016126cc565b9250506060612a3a888289016124b2565b9150509295509295909350565b600060208284031215612a5957600080fd5b815167ffffffffffffffff811115612a7057600080fd5b61270b84828501612570565b600060a08284031215612a8e57600080fd5b600061270b8484612633565b612aa3816137eb565b82525050565b612aa3612ab582613791565b613839565b612aa381613791565b612aa3816137a1565b612aa3612ad8826137a1565b6137a1565b6000612ae88261377f565b612af28185613783565b9350612b0281856020860161380d565b9290920192915050565b612aa3816137a4565b612aa3816137f6565b6000612b2a8385613788565b9350612b37838584613801565b612b408361386b565b9093019392505050565b6000612b568385613783565b9350612b63838584613801565b50500190565b6000612b748261377f565b612b7e8185613788565b9350612b8e81856020860161380d565b612b408161386b565b6000612ba4601b83613788565b7f455243323020746f6b656e207472616e73666572206661696c65640000000000815260200192915050565b6000612bdd600d83613788565b7f6e6f7420746865206f776e657200000000000000000000000000000000000000815260200192915050565b6000612c16600c83613788565b7f77726f6e67207369676e65720000000000000000000000000000000000000000815260200192915050565b6000612c4f601183613788565b7f696e76616c6964207369676e6174757265000000000000000000000000000000815260200192915050565b6000612c88600d83613788565b7f6e6f74207468652061646d696e00000000000000000000000000000000000000815260200192915050565b6000612cc1601583613788565b7f7369676e657220616c726561647920696e207573650000000000000000000000815260200192915050565b6000612cfa601083613788565b7f6f6e6c7920696e20317374207965617200000000000000000000000000000000815260200192915050565b6000612d33601a83613788565b7f72657665616c436f6e76696374207374696c6c206c6f636b6564000000000000815260200192915050565b6000612d6c601283613788565b7f75726c20616c726561647920696e207573650000000000000000000000000000815260200192915050565b6000612da5601483613788565b7f6465706f736974207374696c6c206c6f636b6564000000000000000000000000815260200192915050565b6000612dde600f83613788565b7f626c6f636b206e6f7420666f756e640000000000000000000000000000000000815260200192915050565b6000612e17601983613788565b7f6e6f7420746865206f776e6572206f6620746865206e6f646500000000000000815260200192915050565b6000612e50601283613788565b7f6e6f7420656e6f756768206465706f7369740000000000000000000000000000815260200192915050565b6000612e89600f83613788565b7f307830206e6f7420616c6c6f7765640000000000000000000000000000000000815260200192915050565b6000612ec2603283613788565b7f74686520626c6f636b20776173206e6f74207369676e6564206279207468652081527f7369676e6572206f6620746865206e6f64650000000000000000000000000000602082015260400192915050565b6000612f21601883613788565b7f30782061646472657373206e6f7420737570706f727465640000000000000000815260200192915050565b6000612f5a600b83613788565b7f77726f6e67207374616765000000000000000000000000000000000000000000815260200192915050565b6000612f93601783613788565b7f4c696d6974206f66203530204554482072656163686564000000000000000000815260200192915050565b6000612fcc602683613788565b7f796f752074727920746f20636f6e766963742077697468206120636f7272656381527f7420686173680000000000000000000000000000000000000000000000000000602082015260400192915050565b600061302b600e83613788565b7f6e6f2074696d656f757420736574000000000000000000000000000000000000815260200192915050565b6000613064601483613788565b7f74696d656f7574206e6f7420796574206f766572000000000000000000000000815260200192915050565b600061309d601283613788565b7f77726f6e6720636f6e7669637420686173680000000000000000000000000000815260200192915050565b60006130d6603083613788565b7f6e6f742074686520636f7272656374207369676e6174757265206f662074686581527f207369676e65722070726f766964656400000000000000000000000000000000602082015260400192915050565b6000613135600f83613788565b7f77726f6e67207369676e61747572650000000000000000000000000000000000815260200192915050565b805160a083019061317284826131de565b5060208201516131856020850182612aba565b5060408201516131986040850182612ac3565b5060608201516131ab6060850182612ac3565b5060808201516131be6080850182612ac3565b50505050565b612aa3816137bb565b612aa36131d9826137bb565b61384a565b612aa3816137d8565b612aa36131f3826137d8565b613855565b612aa3816137e5565b612aa361320d826137e5565b613860565b600061321e8288612acc565b60208201915061322e8287612aa9565b60148201915061323e8286613201565b60018201915061324e8285612acc565b60208201915061325e8284612acc565b5060200195945050505050565b60006132778286612acc565b6020820191506132878285612acc565b6020820191506132978284612acc565b506020019392505050565b60006132ae8285612add565b91506132ba8284612acc565b5060200192915050565b60006132d1828789612b4a565b91506132dd82866131cd565b6018820191506132ed82856131e7565b6008820191506132fd8284612aa9565b5060140195945050505050565b602081016124968284612aba565b606081016133268286612a9a565b6133336020830185612aba565b61270b6040830184612ac3565b6040810161334e8285612a9a565b61335b6020830184612ac3565b9392505050565b604081016133708285612aba565b61335b6020830184612aba565b6060810161338b8286612aba565b6133986020830185612a9a565b61270b6040830184612aba565b608081016133b38287612aba565b6133c06020830186612a9a565b6133cd6040830185612ac3565b6133da6060830184612aba565b95945050505050565b606081016133268286612aba565b604081016133ff8285612aba565b61335b6020830184612b15565b60a0810161341a8289612aba565b818103602083015261342d818789612b1e565b905061343c60408301866131c4565b61344960608301856131de565b6134566080830184612ac3565b979650505050505050565b60c0810161346f8285612aba565b61335b6020830184613161565b6040810161334e8285612aba565b602081016124968284612ac3565b604081016134a68285612ac3565b61335b6020830184612a9a565b608081016134c18287612ac3565b6134ce60208301866131f8565b6134db6040830185612ac3565b6133da6060830184612ac3565b602081016124968284612b0c565b608080825281016135078187612b69565b905061351660208301866131c4565b6134db6040830185612aba565b60e08082528101613534818a612b69565b905061354360208301896131c4565b6135506040830188612aba565b61355d60608301876131de565b61356a6080830186612aba565b61357760a0830185612ac3565b61358460c0830184612ac3565b98975050505050505050565b604080825281016135a18185612b69565b905061335b6020830184612aba565b6020808252810161249681612b97565b6020808252810161249681612bd0565b6020808252810161249681612c09565b6020808252810161249681612c42565b6020808252810161249681612c7b565b6020808252810161249681612cb4565b6020808252810161249681612ced565b6020808252810161249681612d26565b6020808252810161249681612d5f565b6020808252810161249681612d98565b6020808252810161249681612dd1565b6020808252810161249681612e0a565b6020808252810161249681612e43565b6020808252810161249681612e7c565b6020808252810161249681612eb5565b6020808252810161249681612f14565b6020808252810161249681612f4d565b6020808252810161249681612f86565b6020808252810161249681612fbf565b602080825281016124968161301e565b6020808252810161249681613057565b6020808252810161249681613090565b60208082528101612496816130c9565b6020808252810161249681613128565b60405181810167ffffffffffffffff8111828210171561374f57600080fd5b604052919050565b600067ffffffffffffffff82111561376e57600080fd5b506020601f91909101601f19160190565b5190565b919050565b90815260200190565b6000612496826137af565b151590565b90565b600061249682613791565b600160a060020a031690565b77ffffffffffffffffffffffffffffffffffffffffffffffff1690565b67ffffffffffffffff1690565b60ff1690565b6000612496826137a4565b6000612496826137a1565b82818337506000910152565b60005b83811015613828578181015183820152602001613810565b838111156131be5750506000910152565b6000612496826000612496826138c6565b6000612496826138b8565b600061249682613875565b600061249682613893565b601f01601f191690565b78010000000000000000000000000000000000000000000000000290565b7f01000000000000000000000000000000000000000000000000000000000000000290565b680100000000000000000290565b6c010000000000000000000000000290565b6138e181613791565b81146110a957600080fd5b6138e18161379c565b6138e1816137a1565b6138e1816137a4565b6138e1816137bb565b6138e1816137d8565b6138e1816137e556fea365627a7a7230582018ac4d2d910675f20fe79cdfb179abb4633c7780a99284a99e68bd0d32442d1c6c6578706572696d656e74616cf564736f6c634300050a0040",
  "source": "/***********************************************************\n* This file is part of the Slock.it IoT Layer.             *\n* The Slock.it IoT Layer contains:                         *\n*   - USN (Universal Sharing Network)                      *\n*   - INCUBED (Trustless INcentivized remote Node Network) *\n************************************************************\n* Copyright (C) 2016 - 2018 Slock.it GmbH                  *\n* All Rights Reserved.                                     *\n************************************************************\n* You may use, distribute and modify this code under the   *\n* terms of the license contract you have concluded with    *\n* Slock.it GmbH.                                           *\n* For information about liability, maintenance etc. also   *\n* refer to the contract concluded with Slock.it GmbH.      *\n************************************************************\n* For more information, please refer to https://slock.it   *\n* For questions, please contact info@slock.it              *\n***********************************************************/\n\npragma solidity 0.5.10;\npragma experimental ABIEncoderV2;\n\nimport \"./BlockhashRegistry.sol\";\nimport \"./NodeRegistryData.sol\";\nimport \"./IERC20.sol\";\n\n\n/// @title Registry for IN3-nodes\ncontract NodeRegistryLogic {\n\n    /// node has been registered\n    event LogNodeRegistered(string url, uint192 props, address signer, uint deposit);\n\n    /// a node was convicted\n    event LogNodeConvicted(address signer);\n\n    /// a Node is removed\n    event LogNodeRemoved(string url, address signer);\n\n    /// a node has been updated\n    event LogNodeUpdated(string url, uint192 props, address signer, uint deposit);\n\n    /// the ownership of a node changed\n    event LogOwnershipChanged(address signer, address oldOwner, address newOwner);\n\n    /// a new logic contract got proposed\n    event LogNewPendingContract(address newPendingContract);\n\n    /// deposit has been returned\n    event LogDepositReturned(address signer, address owner, uint deposit, address erc20Token);\n\n    /// Different Stages a node can have\n    enum Stages {\n        NotInUse,                           /// node is not in use, so a new node with the same address can be registered\n        Active,                             /// node is active, so a new node with the same address cannot be registered\n        Convicted,                          /// node is convited, so he is inactive, but cannot be registered anymore\n        DepositNotWithdrawn                 /// node is not in use anymore, but still has some deposit stored within the contract\n    }\n\n    /// add your additional storage here. If you add information before this line you will break in3 nodelist\n    /// blockhash registry address\n    BlockhashRegistry public blockRegistry;\n\n    /// address for the data of the nodeRegistry\n    NodeRegistryData public nodeRegistryData;\n\n    /// timestamp until the unregisterKey is active\n    uint public timestampAdminKeyActive;\n\n    /// admin-key to remove some server, only usable within the 1st year\n    address public adminKey;\n\n    /// timestamp when an update of the logic-contract can be applied\n    uint public updateTimeout;\n\n    /// address of an updated logic contract to be applied\n    address public pendingNewLogic;\n\n    /// capping the max deposit timeout on 1 year\n    uint constant internal YEAR_DEFINITION = 1 days * 365;\n\n    /// limit for ether per node in the 1st year\n    uint public maxDepositFirstYear;\n\n    /// min deposit required for registering a node\n    uint public minDeposit;\n\n    /// version: major minor fork(000) date(yyyy/mm/dd)\n    uint constant public VERSION = 12300020190709;\n\n    modifier onlyAdmin {\n        require(msg.sender == adminKey, \"not the admin\");\n        _;\n    }\n\n    /// @notice constructor\n    /// @param _blockRegistry address of a BlockhashRegistry-contract\n    /// @param _nodeRegistryData address of the nodeRegistryData-contract\n    /// @dev cannot be deployed in a genesis block\n    constructor(BlockhashRegistry _blockRegistry, NodeRegistryData _nodeRegistryData, uint _minDeposit) public {\n\n        require(address(_blockRegistry) != address(0x0), \"no blockRegistry address provided\");\n        blockRegistry = _blockRegistry;\n\n        // solium-disable-next-line security/no-block-members\n        timestampAdminKeyActive = block.timestamp + YEAR_DEFINITION;  // solhint-disable-line not-rely-on-time\n        adminKey = msg.sender;\n        require(address(_nodeRegistryData) != address(0x0), \"no nodeRegistry address provided\");\n        nodeRegistryData = _nodeRegistryData;\n\n        minDeposit = _minDeposit;\n        maxDepositFirstYear = 2000 * minDeposit;\n    }\n\n    /// @notice applies the pending update\n    /// @dev this will remove the current contract as owner of the NodeRegistryData\n    /// @dev only callable after 47 since the new logicContract has been registered\n    function activateNewLogic() external {\n        require(updateTimeout != 0, \"no timeout set\");\n        // solium-disable-next-line security/no-block-members\n        require(block.timestamp > updateTimeout, \"timeout not yet over\"); // solhint-disable-line not-rely-on-time\n\n        nodeRegistryData.adminSetLogic(pendingNewLogic);\n    }\n\n    /// @notice removes an in3-server from the registry\n    /// @param _signer the signer-address of the in3-node\n    /// @dev only callable by the adminKey-account\n    /// @dev only callable in the 1st year after deployment\n    function adminRemoveNodeFromRegistry(address _signer)\n        external\n        onlyAdmin\n    {\n        // solium-disable-next-line security/no-block-members\n        require(block.timestamp <= timestampAdminKeyActive, \"only in 1st year\"); // solhint-disable-line not-rely-on-time\n\n        NodeRegistryData.SignerInformation memory si = nodeRegistryData.getSignerInformation(_signer);\n        require(si.stage == uint(Stages.Active), \"wrong stage\");\n        NodeRegistryData.In3Node memory in3Node = nodeRegistryData.getIn3NodeInformation(si.index);\n\n        nodeRegistryData.unregisteringNode(_signer);\n        nodeRegistryData.adminSetStage(_signer, uint(Stages.DepositNotWithdrawn));\n\n        emit LogNodeRemoved(in3Node.url, _signer);\n\n    }\n\n    /// @notice sets the address for a new (pending) logic\n    ///         the update can only be applied after 47 days,\n    ///         giving all the nodes enough time to unregister their node if they dislike the update\n    /// @dev only callable by the owner of the contract\n    /// @param _newLogic the address of the new logic contract\n    function adminUpdateLogic(address _newLogic) external onlyAdmin {\n        require(_newLogic != address(0x0), \"0x address not supported\");\n\n        // solium-disable-next-line security/no-block-members\n        updateTimeout = block.timestamp + 47 days; // solhint-disable-line not-rely-on-time\n        pendingNewLogic = _newLogic;\n\n        emit LogNewPendingContract(_newLogic);\n    }\n\n    /// @notice commits a blocknumber and a hash\n    /// @notice must be called before revealConvict\n    /// @param _hash keccak256(wrong blockhash, msg.sender, v, r, s); used to prevent frontrunning.\n    /// @dev The v,r,s paramaters are from the signature of the wrong blockhash that the node provided\n    function convict(bytes32 _hash) external {\n        nodeRegistryData.setConvict(_hash, msg.sender);\n    }\n\n    /// @notice register a new node with the sender as owner\n    /// @dev the supported tokens have to be approved by the owner first\n    /// @param _url the url of the node, has to be unique\n    /// @param _props properties of the node\n    /// @param _weight how many requests per second the node is able to handle\n    /// @param _deposit the deposit in erc20 tokens\n    function registerNode(\n        string calldata _url,\n        uint192 _props,\n        uint64 _weight,\n        uint _deposit\n    )\n        external\n    {\n\n        _registerNodeInternal(\n            _url,\n            _props,\n            msg.sender,\n            msg.sender,\n            _deposit,\n            _weight\n        );\n    }\n\n    /// @notice register a new node as a owner using a different signer address\n    /// @dev the supported tokens have to be approved by the owner first\n    /// @param _url the url of the node, has to be unique\n    /// @param _props properties of the node\n    /// @param _signer the signer of the in3-node\n    /// @param _weight how many requests per second the node is able to handle\n    /// @param _depositAmount deposit in erc20 tokens\n    /// @param _v v of the signed message\n    /// @param _r r of the signed message\n    /// @param _s s of the signed message\n    /// @dev will call the registerNodeInteral function\n    /// @dev in order to prove that the owner has controll over the signer-address he has to sign a message\n    /// @dev which is calculated by the hash of the url, properties, weight and the owner\n    /// @dev will revert when a wrong signature has been provided\n    function registerNodeFor(\n        string calldata _url,\n        uint192 _props,\n        address _signer,\n        uint64 _weight,\n        uint _depositAmount,\n        uint8 _v,\n        bytes32 _r,\n        bytes32 _s\n    )\n        external\n    {\n\n        bytes memory prefix = \"\\x19Ethereum Signed Message:\\n32\";\n        bytes32 tempHash = keccak256(\n            abi.encodePacked(\n                _url,\n                _props,\n                _weight,\n                msg.sender\n            )\n        );\n        bytes32 prefixedHash = keccak256(abi.encodePacked(prefix, tempHash));\n\n        require(_v == 27 || _v == 28, \"invalid signature\");\n\n        address signer = ecrecover(\n            prefixedHash,\n            _v,\n            _r,\n            _s\n        );\n\n        require(_signer == signer, \"not the correct signature of the signer provided\");\n\n        _registerNodeInternal(\n            _url,\n            _props,\n            _signer,\n            msg.sender,\n            _depositAmount,\n            _weight\n        );\n    }\n\n    /// @notice returns the deposit of a former node after the timeout has passed\n    /// @dev only callable by the owner of the former signer\n    /// @param _signer the former signer\n    function returnDeposit(address _signer) external {\n        NodeRegistryData.SignerInformation memory si = nodeRegistryData.getSignerInformation(_signer);\n        require(si.owner == msg.sender, \"not the owner of the node\");\n        require(si.stage == uint(Stages.DepositNotWithdrawn), \"wrong stage\");\n        // solium-disable-next-line security/no-block-members\n        require(si.lockedTime <= block.timestamp, \"deposit still locked\"); // solhint-disable-line not-rely-on-time\n\n        uint depositAmount = si.depositAmount;\n\n        si.lockedTime = 0;\n        si.owner = address(0x0);\n        si.stage = 0;\n        si.depositAmount = 0;\n        si.index = 0;\n\n        nodeRegistryData.adminSetSignerInfo(_signer, si);\n        nodeRegistryData.adminTransferDeposit(msg.sender, depositAmount);\n\n        emit LogDepositReturned(\n            _signer,\n            msg.sender,\n            depositAmount,\n            address(nodeRegistryData.supportedToken())\n        );\n    }\n\n    /// @notice reveals the wrongly provided blockhash, so that the node-owner will lose its deposit\n    /// @param _signer the address that signed the wrong blockhash\n    /// @param _blockhash the wrongly provided blockhash\n    /// @param _blockNumber number of the wrongly provided blockhash\n    /// @param _v v of the signature\n    /// @param _r r of the signature\n    /// @param _s s of the signature\n    /// @dev reverts if a block with that number cannot be found in either the latest 256 blocks or the blockhash registry\n    /// @dev reverts when tryin to convict someone with a correct blockhash\n    /// @dev reverts when trying to reveal immediately after calling convict\n    /// @dev reverts when the _signer did not sign the block\n    /// @dev reverts when the wrong convict hash (see convict-function) is used\n    function revealConvict(\n        address _signer,\n        bytes32 _blockhash,\n        uint _blockNumber,\n        uint8 _v,\n        bytes32 _r,\n        bytes32 _s\n    )\n        external\n    {\n        require(_v == 27 || _v == 28, \"wrong signature\");\n\n        // solium-disable-next-line security/no-block-members\n        bytes32 evmBlockhash = blockhash(_blockNumber);\n\n        if (evmBlockhash == 0x0) {\n            evmBlockhash = blockRegistry.blockhashMapping(_blockNumber);\n        }\n\n        require(evmBlockhash != 0x0, \"block not found\");\n\n        // if the blockhash is correct you cannot convict the node\n        require(evmBlockhash != _blockhash, \"you try to convict with a correct hash\");\n\n        bytes32 wrongBlockHashIdent = keccak256(\n            abi.encodePacked(\n                _blockhash, msg.sender, _v, _r, _s\n            )\n        );\n\n        uint convictBlockNumber = nodeRegistryData.convictMapping(msg.sender, wrongBlockHashIdent);\n        // as we cannot deploy the contract at block 0, a convicting at block 0 is also impossible\n        // and as 0 is the standard value this also means that the convict hash is also wrong\n        require(convictBlockNumber != 0, \"wrong convict hash\");\n\n        require(block.number > convictBlockNumber + 2, \"revealConvict still locked\");\n        require(\n            ecrecover(\n                keccak256(\n                    abi.encodePacked(\n                        _blockhash,\n                        _blockNumber,\n                        nodeRegistryData.registryId()\n                    )\n                ),\n                _v, _r, _s) == _signer,\n            \"the block was not signed by the signer of the node\");\n        NodeRegistryData.SignerInformation memory si = nodeRegistryData.getSignerInformation(_signer);\n        require(si.stage == uint(Stages.Active) || si.stage == uint(Stages.DepositNotWithdrawn), \"wrong stage\");\n\n        uint deposit = 0;\n        if (si.stage == uint(Stages.Active)) {\n            NodeRegistryData.In3Node memory in3Node = nodeRegistryData.getNodeInfromationBySigner(_signer);\n            deposit = in3Node.deposit;\n            nodeRegistryData.adminSetNodeDeposit(_signer, 0);\n            nodeRegistryData.adminRemoveNodeFromRegistry(_signer);\n            nodeRegistryData.adminSetStage(_signer, uint(Stages.Convicted));\n            emit LogNodeRemoved(in3Node.url, _signer);\n\n        } else {\n            deposit = si.depositAmount;\n\n            si.stage = uint(Stages.Convicted);\n            si.depositAmount = 0;\n            nodeRegistryData.adminSetSignerInfo(_signer, si);\n        }\n\n        nodeRegistryData.adminTransferDeposit(msg.sender, deposit/2);\n        emit LogNodeConvicted(_signer);\n\n    }\n\n    /// @notice changes the ownership of an in3-node\n    /// @param _signer the signer-address of the in3-node, used as an identifier\n    /// @param _newOwner the new owner\n    /// @dev reverts when trying to change ownership of an inactive node\n    /// @dev reverts when trying to pass ownership to 0x0\n    /// @dev reverts when the sender is not the current owner\n    function transferOwnership(address _signer, address _newOwner)\n        external\n    {\n        require(_newOwner != address(0x0), \"0x0 not allowed\");\n        NodeRegistryData.SignerInformation memory si = nodeRegistryData.getSignerInformation(_signer);\n        require(si.stage == uint(Stages.Active), \"wrong stage\");\n        require(si.owner == msg.sender, \"not the owner\");\n\n        NodeRegistryData.In3Node memory in3Node = nodeRegistryData.getIn3NodeInformation(si.index);\n        require(in3Node.signer == _signer, \"wrong signer\");\n\n        nodeRegistryData.transferOwnership(_signer, _newOwner);\n\n        emit LogOwnershipChanged(_signer, msg.sender, _newOwner);\n    }\n\n    /// @notice a node owner can unregister a node, removing it from the nodeList\n    /// @notice doing so will also lock his deposit for the timeout of the node\n    /// @param _signer the signer of the in3-node\n    /// @dev reverts when the provided address is not an in3-signer\n    /// @dev reverts when not called by the owner of the node\n    /// @dev reverts when the node is not active\n    function unregisteringNode(address _signer)\n        external\n    {\n        NodeRegistryData.SignerInformation memory si = nodeRegistryData.getSignerInformation(_signer);\n        require(si.stage == uint(Stages.Active), \"wrong stage\");\n        require(si.owner == msg.sender, \"not the owner\");\n\n        NodeRegistryData.In3Node memory in3Node = nodeRegistryData.getIn3NodeInformation(si.index);\n        require(in3Node.signer == _signer, \"wrong signer\");\n\n        nodeRegistryData.unregisteringNode(_signer);\n\n        nodeRegistryData.adminSetStage(_signer, uint(Stages.DepositNotWithdrawn));\n\n        emit LogNodeRemoved(in3Node.url, _signer);\n\n    }\n\n    /// @notice updates a node by changing its props\n    /// @dev if there is an additional deposit the owner has to approve the tokenTransfer before\n    /// @param _signer the signer-address of the in3-node, used as an identifier\n    /// @param _url the url, will be changed if different from the current one\n    /// @param _props the new properties, will be changed if different from the current onec\n    /// @param _weight the amount of requests per second the node is able to handle\n    /// @param _additionalDeposit the additional deposit in erc20-token\n    /// @dev reverts when the sender is not the owner of the node\n    /// @dev reverts when the signer does not own a node\n    /// @dev reverts when trying to change the url to an already existing one\n    function updateNode(\n        address _signer,\n        string calldata _url,\n        uint192 _props,\n        uint64 _weight,\n        uint _additionalDeposit\n    )\n        external\n    {\n\n        NodeRegistryData.SignerInformation memory si = nodeRegistryData.getSignerInformation(_signer);\n        require(si.stage == uint(Stages.Active), \"wrong stage\");\n        require(si.owner == msg.sender, \"not the owner\");\n\n        NodeRegistryData.In3Node memory node = nodeRegistryData.getNodeInfromationBySigner(_signer);\n        require(node.signer == _signer, \"wrong signer\");\n\n        uint deposit = node.deposit;\n        _checkNodePropertiesInternal(deposit);\n\n        if (_additionalDeposit > 0) {\n            IERC20 supportedToken = nodeRegistryData.supportedToken();\n            require(supportedToken.transferFrom(msg.sender, address(nodeRegistryData), _additionalDeposit), \"ERC20 token transfer failed\");\n            deposit += _additionalDeposit;\n        }\n\n        nodeRegistryData.updateNode(\n            _signer,\n            _url,\n            _props,\n            _weight,\n            deposit\n        );\n\n        emit LogNodeUpdated(\n            node.url,\n            _props,\n            _signer,\n            deposit\n        );\n    }\n\n    /// @notice returns the supported ERC20 token for registering a node\n    /// @return the supported ERC20 token\n    function supportedToken() external view returns (IERC20) {\n        return nodeRegistryData.supportedToken();\n    }\n\n    /// @notice length of the nodelist\n    /// @return the number of total in3-nodes\n    function totalNodes() external view returns (uint) {\n        return nodeRegistryData.totalNodes();\n    }\n\n    /// @notice function to check whether the allowed amount of deposit per server has been reached\n    /// @param _deposit the new amount of deposit a server has\n    /// @dev will fail when the deposit is greater than the maxDepositFirstYear in the 1st year\n    /// @dev will fail when the deposit is less than the minDeposit\n    function _checkNodePropertiesInternal(uint256 _deposit) internal view {\n\n        require(_deposit >= minDeposit, \"not enough deposit\");\n\n        // solium-disable-next-line security/no-block-members\n        if (block.timestamp < timestampAdminKeyActive) { // solhint-disable-line not-rely-on-time\n            require(_deposit < maxDepositFirstYear, \"Limit of 50 ETH reached\");\n        }\n    }\n\n    /// @notice helper function for registering a node\n    /// @param _url the url of the node\n    /// @param _props the properties of the node\n    /// @param _signer the signer of the node\n    /// @param _owner the owner of the node\n    /// @param _deposit the deposit of the node\n    /// @param _weight the weight of the node (# of requests per second he is able to handle)\n    function _registerNodeInternal (\n        string memory _url,\n        uint192 _props,\n        address _signer,\n        address _owner,\n        uint _deposit,\n        uint64 _weight\n    )\n        internal\n    {\n        _checkNodePropertiesInternal(_deposit);\n\n        IERC20 supportedERC20Token = nodeRegistryData.supportedToken();\n\n        require(supportedERC20Token.transferFrom(_owner, address(nodeRegistryData), _deposit), \"ERC20 token transfer failed\");\n\n        NodeRegistryData.SignerInformation memory si = nodeRegistryData.getSignerInformation(_signer);\n        bytes32 urlHash = keccak256(bytes(_url));\n\n        (bool _used,) = nodeRegistryData.urlIndex(urlHash);\n\n        require(!_used, \"url already in use\");\n\n        require(si.stage == uint(Stages.NotInUse), \"signer already in use\");\n\n        nodeRegistryData.registerNodeFor(\n            _url,\n            _props,\n            _signer,\n            _weight,\n            _owner,\n            _deposit,\n            uint(Stages.Active)\n        );\n\n        emit LogNodeRegistered(\n            _url,\n            _props,\n            _signer,\n            _deposit\n        );\n\n    }\n\n}\n",
  "sourcePath": "/home/junaid/Desktop/work/in3-contracts/contracts/NodeRegistryLogic.sol",
  "compiler": {
    "name": "solc",
    "version": "0.5.10+commit.5a6ea5b1.Emscripten.clang"
  },
  "schemaVersion": "3.0.11",
  "updatedAt": "2020-01-07T15:58:17.561Z",
  "devdoc": {
    "methods": {
      "activateNewLogic()": {
        "details": "this will remove the current contract as owner of the NodeRegistryDataonly callable after 47 since the new logicContract has been registered"
      },
      "adminRemoveNodeFromRegistry(address)": {
        "details": "only callable by the adminKey-accountonly callable in the 1st year after deployment",
        "params": {
          "_signer": "the signer-address of the in3-node"
        }
      },
      "adminUpdateLogic(address)": {
        "details": "only callable by the owner of the contract",
        "params": {
          "_newLogic": "the address of the new logic contract"
        }
      },
      "constructor": {
        "details": "cannot be deployed in a genesis block",
        "params": {
          "_blockRegistry": "address of a BlockhashRegistry-contract",
          "_nodeRegistryData": "address of the nodeRegistryData-contract"
        }
      },
      "convict(bytes32)": {
        "details": "The v,r,s paramaters are from the signature of the wrong blockhash that the node provided",
        "params": {
          "_hash": "keccak256(wrong blockhash, msg.sender, v, r, s); used to prevent frontrunning."
        }
      },
      "registerNode(string,uint192,uint64,uint256)": {
        "details": "the supported tokens have to be approved by the owner first",
        "params": {
          "_deposit": "the deposit in erc20 tokens",
          "_props": "properties of the node",
          "_url": "the url of the node, has to be unique",
          "_weight": "how many requests per second the node is able to handle"
        }
      },
      "registerNodeFor(string,uint192,address,uint64,uint256,uint8,bytes32,bytes32)": {
        "details": "the supported tokens have to be approved by the owner firstwill call the registerNodeInteral functionin order to prove that the owner has controll over the signer-address he has to sign a messagewhich is calculated by the hash of the url, properties, weight and the ownerwill revert when a wrong signature has been provided",
        "params": {
          "_depositAmount": "deposit in erc20 tokens",
          "_props": "properties of the node",
          "_r": "r of the signed message",
          "_s": "s of the signed message",
          "_signer": "the signer of the in3-node",
          "_url": "the url of the node, has to be unique",
          "_v": "v of the signed message",
          "_weight": "how many requests per second the node is able to handle"
        }
      },
      "returnDeposit(address)": {
        "details": "only callable by the owner of the former signer",
        "params": {
          "_signer": "the former signer"
        }
      },
      "revealConvict(address,bytes32,uint256,uint8,bytes32,bytes32)": {
        "details": "reverts if a block with that number cannot be found in either the latest 256 blocks or the blockhash registryreverts when tryin to convict someone with a correct blockhashreverts when trying to reveal immediately after calling convictreverts when the _signer did not sign the blockreverts when the wrong convict hash (see convict-function) is used",
        "params": {
          "_blockNumber": "number of the wrongly provided blockhash",
          "_blockhash": "the wrongly provided blockhash",
          "_r": "r of the signature",
          "_s": "s of the signature",
          "_signer": "the address that signed the wrong blockhash",
          "_v": "v of the signature"
        }
      },
      "supportedToken()": {
        "return": "the supported ERC20 token"
      },
      "totalNodes()": {
        "return": "the number of total in3-nodes"
      },
      "transferOwnership(address,address)": {
        "details": "reverts when trying to change ownership of an inactive nodereverts when trying to pass ownership to 0x0reverts when the sender is not the current owner",
        "params": {
          "_newOwner": "the new owner",
          "_signer": "the signer-address of the in3-node, used as an identifier"
        }
      },
      "unregisteringNode(address)": {
        "details": "reverts when the provided address is not an in3-signerreverts when not called by the owner of the nodereverts when the node is not active",
        "params": {
          "_signer": "the signer of the in3-node"
        }
      },
      "updateNode(address,string,uint192,uint64,uint256)": {
        "details": "if there is an additional deposit the owner has to approve the tokenTransfer beforereverts when the sender is not the owner of the nodereverts when the signer does not own a nodereverts when trying to change the url to an already existing one",
        "params": {
          "_additionalDeposit": "the additional deposit in erc20-token",
          "_props": "the new properties, will be changed if different from the current onec",
          "_signer": "the signer-address of the in3-node, used as an identifier",
          "_url": "the url, will be changed if different from the current one",
          "_weight": "the amount of requests per second the node is able to handle"
        }
      }
    },
    "title": "Registry for IN3-nodes"
  },
  "userdoc": {
    "methods": {
      "activateNewLogic()": {
        "notice": "applies the pending update"
      },
      "adminRemoveNodeFromRegistry(address)": {
        "notice": "removes an in3-server from the registry"
      },
      "adminUpdateLogic(address)": {
        "notice": "sets the address for a new (pending) logic         the update can only be applied after 47 days,         giving all the nodes enough time to unregister their node if they dislike the update"
      },
      "constructor": "constructor",
      "convict(bytes32)": {
        "notice": "commits a blocknumber and a hashmust be called before revealConvict"
      },
      "registerNode(string,uint192,uint64,uint256)": {
        "notice": "register a new node with the sender as owner"
      },
      "registerNodeFor(string,uint192,address,uint64,uint256,uint8,bytes32,bytes32)": {
        "notice": "register a new node as a owner using a different signer address"
      },
      "returnDeposit(address)": {
        "notice": "returns the deposit of a former node after the timeout has passed"
      },
      "revealConvict(address,bytes32,uint256,uint8,bytes32,bytes32)": {
        "notice": "reveals the wrongly provided blockhash, so that the node-owner will lose its deposit"
      },
      "supportedToken()": {
        "notice": "returns the supported ERC20 token for registering a node"
      },
      "totalNodes()": {
        "notice": "length of the nodelist"
      },
      "transferOwnership(address,address)": {
        "notice": "changes the ownership of an in3-node"
      },
      "unregisteringNode(address)": {
        "notice": "a node owner can unregister a node, removing it from the nodeListdoing so will also lock his deposit for the timeout of the node"
      },
      "updateNode(address,string,uint192,uint64,uint256)": {
        "notice": "updates a node by changing its props"
      }
    }
  }
}