{
  "contractName": "NodeRegistry",
  "abi": [
    {
      "constant": true,
      "inputs": [],
      "name": "registryId",
      "outputs": [
        {
          "name": "",
          "type": "bytes32"
        }
      ],
      "payable": false,
      "stateMutability": "view",
      "type": "function"
    },
    {
      "constant": true,
      "inputs": [
        {
          "name": "",
          "type": "address"
        }
      ],
      "name": "signerIndex",
      "outputs": [
        {
          "name": "lockedTime",
          "type": "uint64"
        },
        {
          "name": "owner",
          "type": "address"
        },
        {
          "name": "stage",
          "type": "uint8"
        },
        {
          "name": "depositAmount",
          "type": "uint256"
        },
        {
          "name": "index",
          "type": "uint256"
        }
      ],
      "payable": false,
      "stateMutability": "view",
      "type": "function"
    },
    {
      "constant": true,
      "inputs": [
        {
          "name": "",
          "type": "uint256"
        }
      ],
      "name": "nodes",
      "outputs": [
        {
          "name": "url",
          "type": "string"
        },
        {
          "name": "deposit",
          "type": "uint256"
        },
        {
          "name": "timeout",
          "type": "uint64"
        },
        {
          "name": "registerTime",
          "type": "uint64"
        },
        {
          "name": "props",
          "type": "uint128"
        },
        {
          "name": "weight",
          "type": "uint64"
        },
        {
          "name": "signer",
          "type": "address"
        },
        {
          "name": "proofHash",
          "type": "bytes32"
        }
      ],
      "payable": false,
      "stateMutability": "view",
      "type": "function"
    },
    {
      "constant": true,
      "inputs": [],
      "name": "unregisterKey",
      "outputs": [
        {
          "name": "",
          "type": "address"
        }
      ],
      "payable": false,
      "stateMutability": "view",
      "type": "function"
    },
    {
      "constant": true,
      "inputs": [],
      "name": "blockTimeStampDeployment",
      "outputs": [
        {
          "name": "",
          "type": "uint256"
        }
      ],
      "payable": false,
      "stateMutability": "view",
      "type": "function"
    },
    {
      "constant": true,
      "inputs": [
        {
          "name": "",
          "type": "bytes32"
        }
      ],
      "name": "urlIndex",
      "outputs": [
        {
          "name": "used",
          "type": "bool"
        },
        {
          "name": "signer",
          "type": "address"
        }
      ],
      "payable": false,
      "stateMutability": "view",
      "type": "function"
    },
    {
      "constant": true,
      "inputs": [],
      "name": "blockRegistry",
      "outputs": [
        {
          "name": "",
          "type": "address"
        }
      ],
      "payable": false,
      "stateMutability": "view",
      "type": "function"
    },
    {
      "constant": true,
      "inputs": [],
      "name": "VERSION",
      "outputs": [
        {
          "name": "",
          "type": "uint256"
        }
      ],
      "payable": false,
      "stateMutability": "view",
      "type": "function"
    },
    {
      "inputs": [
        {
          "name": "_blockRegistry",
          "type": "address"
        }
      ],
      "payable": false,
      "stateMutability": "nonpayable",
      "type": "constructor"
    },
    {
      "anonymous": false,
      "inputs": [
        {
          "indexed": false,
          "name": "url",
          "type": "string"
        },
        {
          "indexed": false,
          "name": "props",
          "type": "uint256"
        },
        {
          "indexed": false,
          "name": "signer",
          "type": "address"
        },
        {
          "indexed": false,
          "name": "deposit",
          "type": "uint256"
        }
      ],
      "name": "LogNodeRegistered",
      "type": "event"
    },
    {
      "anonymous": false,
      "inputs": [
        {
          "indexed": false,
          "name": "signer",
          "type": "address"
        }
      ],
      "name": "LogNodeConvicted",
      "type": "event"
    },
    {
      "anonymous": false,
      "inputs": [
        {
          "indexed": false,
          "name": "url",
          "type": "string"
        },
        {
          "indexed": false,
          "name": "signer",
          "type": "address"
        }
      ],
      "name": "LogNodeRemoved",
      "type": "event"
    },
    {
      "constant": false,
      "inputs": [
        {
          "name": "_blockNumber",
          "type": "uint256"
        },
        {
          "name": "_hash",
          "type": "bytes32"
        }
      ],
      "name": "convict",
      "outputs": [],
      "payable": false,
      "stateMutability": "nonpayable",
      "type": "function"
    },
    {
      "constant": false,
      "inputs": [
        {
          "name": "_url",
          "type": "string"
        },
        {
          "name": "_props",
          "type": "uint64"
        },
        {
          "name": "_timeout",
          "type": "uint64"
        },
        {
          "name": "_weight",
          "type": "uint64"
        }
      ],
      "name": "registerNode",
      "outputs": [],
      "payable": true,
      "stateMutability": "payable",
      "type": "function"
    },
    {
      "constant": false,
      "inputs": [
        {
          "name": "_url",
          "type": "string"
        },
        {
          "name": "_props",
          "type": "uint64"
        },
        {
          "name": "_timeout",
          "type": "uint64"
        },
        {
          "name": "_signer",
          "type": "address"
        },
        {
          "name": "_weight",
          "type": "uint64"
        },
        {
          "name": "_v",
          "type": "uint8"
        },
        {
          "name": "_r",
          "type": "bytes32"
        },
        {
          "name": "_s",
          "type": "bytes32"
        }
      ],
      "name": "registerNodeFor",
      "outputs": [],
      "payable": true,
      "stateMutability": "payable",
      "type": "function"
    },
    {
      "constant": false,
      "inputs": [
        {
          "name": "_signer",
          "type": "address"
        }
      ],
      "name": "removeNodeFromRegistry",
      "outputs": [],
      "payable": false,
      "stateMutability": "nonpayable",
      "type": "function"
    },
    {
      "constant": false,
      "inputs": [
        {
          "name": "_signer",
          "type": "address"
        }
      ],
      "name": "returnDeposit",
      "outputs": [],
      "payable": false,
      "stateMutability": "nonpayable",
      "type": "function"
    },
    {
      "constant": false,
      "inputs": [
        {
          "name": "_signer",
          "type": "address"
        },
        {
          "name": "_blockhash",
          "type": "bytes32"
        },
        {
          "name": "_blockNumber",
          "type": "uint256"
        },
        {
          "name": "_v",
          "type": "uint8"
        },
        {
          "name": "_r",
          "type": "bytes32"
        },
        {
          "name": "_s",
          "type": "bytes32"
        }
      ],
      "name": "revealConvict",
      "outputs": [],
      "payable": false,
      "stateMutability": "nonpayable",
      "type": "function"
    },
    {
      "constant": false,
      "inputs": [
        {
          "name": "_signer",
          "type": "address"
        },
        {
          "name": "_newOwner",
          "type": "address"
        }
      ],
      "name": "transferOwnership",
      "outputs": [],
      "payable": false,
      "stateMutability": "nonpayable",
      "type": "function"
    },
    {
      "constant": false,
      "inputs": [
        {
          "name": "_signer",
          "type": "address"
        }
      ],
      "name": "unregisteringNode",
      "outputs": [],
      "payable": false,
      "stateMutability": "nonpayable",
      "type": "function"
    },
    {
      "constant": false,
      "inputs": [
        {
          "name": "_signer",
          "type": "address"
        },
        {
          "name": "_url",
          "type": "string"
        },
        {
          "name": "_props",
          "type": "uint64"
        },
        {
          "name": "_timeout",
          "type": "uint64"
        },
        {
          "name": "_weight",
          "type": "uint64"
        }
      ],
      "name": "updateNode",
      "outputs": [],
      "payable": true,
      "stateMutability": "payable",
      "type": "function"
    },
    {
      "constant": true,
      "inputs": [],
      "name": "totalNodes",
      "outputs": [
        {
          "name": "",
          "type": "uint256"
        }
      ],
      "payable": false,
      "stateMutability": "view",
      "type": "function"
    }
  ],
  "bytecode": "0x60806040523480156200001157600080fd5b5060405162003bb638038062003bb68339810160408190526200003491620000b4565b60028054600160a060020a031916600160a060020a038316179055426003556040516200006d903090436000190140906020016200010d565b60408051601f1981840301815291905280516020909101206001555060048054600160a060020a0319163317905562000195565b8051620000ae816200017b565b92915050565b600060208284031215620000c757600080fd5b6000620000d58484620000a1565b949350505050565b620000f2620000ec8262000137565b62000160565b82525050565b620000f2620001078262000144565b62000144565b60006200011b8285620000dd565b6014820191506200012d8284620000f8565b5060200192915050565b6000620000ae8262000154565b90565b6000620000ae8262000137565b600160a060020a031690565b6000620000ae82826c01000000000000000000000000820283565b620001868162000147565b81146200019257600080fd5b50565b613a1180620001a56000396000f3fe60806040526004361061010d5760003560e060020a900480639592d42411610099578063d402353e11610068578063d402353e146102b6578063de7dda74146102d6578063ea42406414610304578063ecf55ad514610317578063ffa1ad74146103395761010d565b80639592d42414610259578063ac4898731461026e578063bdef930314610281578063bdfa59de146102a15761010d565b80631a91a0ab116100e05780631a91a0ab146101925780631b401f65146101c35780631c53c280146101e3578063607e7000146102175780636d435421146102395761010d565b80630224db0f1461011257806304ef898d146101275780630c4dc01214610152578063192f827814610172575b600080fd5b6101256101203660046129a6565b61034e565b005b34801561013357600080fd5b5061013c6109dc565b604051610149919061354c565b60405180910390f35b34801561015e57600080fd5b5061012561016d3660046128bf565b6109e2565b34801561017e57600080fd5b5061012561018d366004612bad565b610dd4565b34801561019e57600080fd5b506101b26101ad3660046128bf565b610e0d565b6040516101499594939291906137ec565b3480156101cf57600080fd5b506101256101de3660046128bf565b610e53565b3480156101ef57600080fd5b506102036101fe366004612a29565b611214565b6040516101499897969594939291906135d3565b34801561022357600080fd5b5061022c611315565b6040516101499190613523565b34801561024557600080fd5b506101256102543660046128e5565b611324565b34801561026557600080fd5b5061013c611613565b61012561027c366004612a65565b61161a565b34801561028d57600080fd5b5061012561029c3660046128bf565b611793565b3480156102ad57600080fd5b5061013c6118ca565b3480156102c257600080fd5b506101256102d136600461291f565b6118d0565b3480156102e257600080fd5b506102f66102f1366004612a29565b611d07565b604051610149929190613531565b610125610312366004612b30565b611d2c565b34801561032357600080fd5b5061032c611d7a565b6040516101499190613598565b34801561034557600080fd5b5061013c611d89565b856103576125cf565b600160a060020a03828116600090815260056020908152604091829020825160a081018452815467ffffffffffffffff81168252604060020a8104909516928101929092529092909183019060e060020a900460ff1660038111156103b857fe5b60038111156103c357fe5b81526001828101546020830152600290920154604090910152909150816040015160038111156103ef57fe5b146104185760405160e560020a62461bcd02815260040161040f906136dc565b60405180910390fd5b6104206125fe565b600082608001518154811061043157fe5b60009182526020918290206040805160059390930290910180546002610100600183161581026000190190921604601f810186900490950284016101209081019093528301848152929390928492909184918401828280156104d45780601f106104a9576101008083540402835291602001916104d4565b820191906000526020600020905b8154815290600101906020018083116104b757829003601f168201915b505050918352505060018201546020820152600282015467ffffffffffffffff8082166040840152604060020a80830482166060850152608060020a9092046001608060020a0316608080850191909152600385015491821660a0850152919004600160a060020a0390811660c084015260049093015460e0909201919091528401516000805493945091861692811061056a57fe5b6000918252602090912060059091020160030154604060020a9004600160a060020a03161461059557fe5b61059d6125cf565b600160a060020a038a8116600090815260056020908152604091829020825160a081018452815467ffffffffffffffff81168252604060020a8104909516928101929092529092909183019060e060020a900460ff1660038111156105fe57fe5b600381111561060957fe5b815260200160018201548152602001600282015481525050905033600160a060020a03168160200151600160a060020a03161461065b5760405160e560020a62461bcd02815260040161040f906136ac565b60008082608001518154811061066d57fe5b9060005260206000209060050201905060008a8a60405161068f929190613422565b60405190819003812091506106a5908390613451565b6040518091039020811461079f5760066000836000016040516106c89190613451565b604080519182900390912082526020808301939093529081016000908120805474ffffffffffffffffffffffffffffffffffffffffff19169055838152600690925290205460ff16156107305760405160e560020a62461bcd02815260040161040f906136ec565b610738612642565b600181523360208083019182526000848152600690915260409020825181549251600160a060020a03166101000274ffffffffffffffffffffffffffffffffffffffff001991151560ff19909416939093171691909117905561079c838d8d612659565b50505b34156107b057600182018054340190555b6107be826001015489611d93565b6002820154608060020a90046001608060020a031667ffffffffffffffff8a1614610807576002820180546001608060020a031667ffffffffffffffff8b16608060020a021790555b600282015467ffffffffffffffff90811690891611156108415760028201805467ffffffffffffffff191667ffffffffffffffff8a161790555b600382015467ffffffffffffffff8881169116146108795760038201805467ffffffffffffffff191667ffffffffffffffff89161790555b60408051835460206002610100600184161581026000190190931604601f8101829004909102830161012090810190945290820181815261098793869284929184919084018282801561090d5780601f106108e25761010080835404028352916020019161090d565b820191906000526020600020905b8154815290600101906020018083116108f057829003601f168201915b505050918352505060018201546020820152600282015467ffffffffffffffff8082166040840152604060020a80830482166060850152608060020a9092046001608060020a03166080840152600384015490811660a084015204600160a060020a031660c082015260049091015460e090910152611e03565b600483015560018201546040517f1ca262a77ac17942055c2ff991000041865fc4fe608b39c1f3c1073199656510916109c69185918d9133919061366f565b60405180910390a1505050505050505050505050565b60015481565b806109eb6125cf565b600160a060020a03828116600090815260056020908152604091829020825160a081018452815467ffffffffffffffff81168252604060020a8104909516928101929092529092909183019060e060020a900460ff166003811115610a4c57fe5b6003811115610a5757fe5b8152600182810154602083015260029092015460409091015290915081604001516003811115610a8357fe5b14610aa35760405160e560020a62461bcd02815260040161040f906136dc565b610aab6125fe565b6000826080015181548110610abc57fe5b60009182526020918290206040805160059390930290910180546002610100600183161581026000190190921604601f81018690049095028401610120908101909352830184815292939092849290918491840182828015610b5f5780601f10610b3457610100808354040283529160200191610b5f565b820191906000526020600020905b815481529060010190602001808311610b4257829003601f168201915b505050918352505060018201546020820152600282015467ffffffffffffffff8082166040840152604060020a80830482166060850152608060020a9092046001608060020a0316608080850191909152600385015491821660a0850152919004600160a060020a0390811660c084015260049093015460e09092019190915284015160008054939450918616928110610bf557fe5b6000918252602090912060059091020160030154604060020a9004600160a060020a031614610c2057fe5b6301e13380600354014210610c4a5760405160e560020a62461bcd02815260040161040f906136bc565b600454600160a060020a03163314610c775760405160e560020a62461bcd02815260040161040f906137dc565b600160a060020a0384166000908152600560205260409020610c976125fe565b6000826002015481548110610ca857fe5b60009182526020918290206040805160059390930290910180546002610100600183161581026000190190921604601f81018690049095028401610120908101909352830184815292939092849290918491840182828015610d4b5780601f10610d2057610100808354040283529160200191610d4b565b820191906000526020600020905b815481529060010190602001808311610d2e57829003601f168201915b505050918352505060018201546020820152600282015467ffffffffffffffff8082166040840152604060020a80830482166060850152608060020a9092046001608060020a03166080840152600384015490811660a084015204600160a060020a031660c082015260049091015460e0909101529050610dcc8282611e4f565b505050505050565b610ddc612642565b9081524360208083019182526000938452600781526040808520338652909152909220905181559051600190910155565b60056020526000908152604090208054600182015460029092015467ffffffffffffffff821692604060020a8304600160a060020a03169260e060020a900460ff169185565b80610e5c6125cf565b600160a060020a03828116600090815260056020908152604091829020825160a081018452815467ffffffffffffffff81168252604060020a8104909516928101929092529092909183019060e060020a900460ff166003811115610ebd57fe5b6003811115610ec857fe5b8152600182810154602083015260029092015460409091015290915081604001516003811115610ef457fe5b14610f145760405160e560020a62461bcd02815260040161040f906136dc565b610f1c6125fe565b6000826080015181548110610f2d57fe5b60009182526020918290206040805160059390930290910180546002610100600183161581026000190190921604601f81018690049095028401610120908101909352830184815292939092849290918491840182828015610fd05780601f10610fa557610100808354040283529160200191610fd0565b820191906000526020600020905b815481529060010190602001808311610fb357829003601f168201915b505050918352505060018201546020820152600282015467ffffffffffffffff8082166040840152604060020a80830482166060850152608060020a9092046001608060020a0316608080850191909152600385015491821660a0850152919004600160a060020a0390811660c084015260049093015460e0909201919091528401516000805493945091861692811061106657fe5b6000918252602090912060059091020160030154604060020a9004600160a060020a03161461109157fe5b600160a060020a03841660009081526005602052604090206110b16125fe565b60008260020154815481106110c257fe5b60009182526020918290206040805160059390930290910180546002610100600183161581026000190190921604601f810186900490950284016101209081019093528301848152929390928492909184918401828280156111655780601f1061113a57610100808354040283529160200191611165565b820191906000526020600020905b81548152906001019060200180831161114857829003601f168201915b505050918352505060018201546020820152600282015467ffffffffffffffff8082166040840152604060020a80830482166060850152608060020a9092046001608060020a03166080840152600384015490811660a0840152819004600160a060020a0390811660c084015260049093015460e0909201919091528454929350339204161461120a5760405160e560020a62461bcd02815260040161040f9061374c565b610dcc8282611e4f565b6000818154811061122157fe5b60009182526020918290206005919091020180546040805160026001841615610100026000190190931692909204601f8101859004850283018501909152808252919350918391908301828280156112ba5780601f1061128f576101008083540402835291602001916112ba565b820191906000526020600020905b81548152906001019060200180831161129d57829003601f168201915b505050506001830154600284015460038501546004909501549394919367ffffffffffffffff8083169450604060020a808404821694608060020a9094046001608060020a031693918216929104600160a060020a03169088565b600454600160a060020a031681565b8161132d6125cf565b600160a060020a03828116600090815260056020908152604091829020825160a081018452815467ffffffffffffffff81168252604060020a8104909516928101929092529092909183019060e060020a900460ff16600381111561138e57fe5b600381111561139957fe5b81526001828101546020830152600290920154604090910152909150816040015160038111156113c557fe5b146113e55760405160e560020a62461bcd02815260040161040f906136dc565b6113ed6125fe565b60008260800151815481106113fe57fe5b60009182526020918290206040805160059390930290910180546002610100600183161581026000190190921604601f810186900490950284016101209081019093528301848152929390928492909184918401828280156114a15780601f10611476576101008083540402835291602001916114a1565b820191906000526020600020905b81548152906001019060200180831161148457829003601f168201915b505050918352505060018201546020820152600282015467ffffffffffffffff8082166040840152604060020a80830482166060850152608060020a9092046001608060020a0316608080850191909152600385015491821660a0850152919004600160a060020a0390811660c084015260049093015460e0909201919091528401516000805493945091861692811061153757fe5b6000918252602090912060059091020160030154604060020a9004600160a060020a03161461156257fe5b600160a060020a03808616600090815260056020526040902080549091604060020a9091041633146115a95760405160e560020a62461bcd02815260040161040f9061374c565b600160a060020a0385166115d25760405160e560020a62461bcd02815260040161040f9061379c565b8054600160a060020a03909516604060020a027bffffffffffffffffffffffffffffffffffffffff0000000000000000199095169490941790935550505050565b6000545b90565b60606040518060400160405280601c81526020017f19457468657265756d205369676e6564204d6573736167653a0a333200000000815250905060008a8a8a8a893360405160200161167196959493929190613464565b6040516020818303038152906040528051906020012090506000828260405160200161169e92919061342f565b6040516020818303038152906040528051906020012090506000600182888888604051600081526020016040526040516116db949392919061355a565b6020604051602081039080840390855afa1580156116fd573d6000803e3d6000fd5b50505060206040510351905080600160a060020a031689600160a060020a03161461173d5760405160e560020a62461bcd02815260040161040f906137cc565b6117848d8d8080601f0160208091040260200160405190810160405280939291908181526020018383808284376000920191909152508f92508e91508d905033348e611ecc565b50505050505050505050505050565b600160a060020a03811660009081526005602052604090206003815460e060020a900460ff1660038111156117c457fe5b146117e45760405160e560020a62461bcd02815260040161040f906136fc565b8054604060020a9004600160a060020a031633146118175760405160e560020a62461bcd02815260040161040f9061377c565b805467ffffffffffffffff1642116118445760405160e560020a62461bcd02815260040161040f9061371c565b600180820154600160a060020a03841660009081526005602052604080822080547fffffff0000000000000000000000000000000000000000000000000000000000168155938401829055600290930181905591519091339183156108fc0291849190818181858888f193505050501580156118c4573d6000803e3d6000fd5b50505050565b60035481565b834080611973576002546040517fe877b873000000000000000000000000000000000000000000000000000000008152600160a060020a039091169063e877b8739061192090889060040161354c565b60206040518083038186803b15801561193857600080fd5b505afa15801561194c573d6000803e3d6000fd5b505050506040513d601f19601f820116820180604052506119709190810190612a47565b90505b806119935760405160e560020a62461bcd02815260040161040f9061372c565b858114156119b65760405160e560020a62461bcd02815260040161040f9061378c565b600160a060020a0387166000908152600560209081526040808320888452600783528184203385529092529091206001810154600201431015611a0e5760405160e560020a62461bcd02815260040161040f906136cc565b88600160a060020a031660018989600154604051602001611a31939291906133eb565b6040516020818303038152906040528051906020012088888860405160008152602001604052604051611a67949392919061355a565b6020604051602081039080840390855afa158015611a89573d6000803e3d6000fd5b50505060206040510351600160a060020a031614611abc5760405160e560020a62461bcd02815260040161040f9061375c565b8054604051611ad7908a9033908a908a908a90602001613392565b6040516020818303038152906040528051906020012014611b0d5760405160e560020a62461bcd02815260040161040f906137ac565b6002825460e060020a900460ff166003811115611b2657fe5b1415611b475760405160e560020a62461bcd02815260040161040f906137bc565b7f99cf870e2c7ee878455cc590c43877ba030304a8a5dd703bcfbd5c4822009f7889604051611b769190613523565b60405180910390a160006001835460e060020a900460ff166003811115611b9957fe5b1415611c1c5789600160a060020a03166000846002015481548110611bba57fe5b6000918252602090912060059091020160030154604060020a9004600160a060020a031614611be557fe5b6000836002015481548110611bf657fe5b9060005260206000209060050201600101549050611c178360020154612222565b611c38565b506001820180546000909155825467ffffffffffffffff191683555b82547cff0000000000000000000000000000000000000000000000000000000019167c0200000000000000000000000000000000000000000000000000000000178355600088815260076020908152604080832033808552925280832083815560010183905551600284049283156108fc02918491818181858888f19350505050158015611cca573d6000803e3d6000fd5b5060405160009082840380156108fc029183818181858288f19350505050158015611cf9573d6000803e3d6000fd5b505050505050505050505050565b60066020526000908152604090205460ff8116906101009004600160a060020a031682565b611d7385858080601f016020809104026020016040519081016040528093929190818152602001838380828437600092019190915250879250869150339050803487611ecc565b5050505050565b600254600160a060020a031681565b650b2fd2558df581565b6301e1338060035401421015611dce576802b5e3af16b18800008210611dce5760405160e560020a62461bcd02815260040161040f9061376c565b6301e133808167ffffffffffffffff161115611dff5760405160e560020a62461bcd02815260040161040f9061369c565b5050565b6020808201516040808401516060850151608086015160c087015187519451600097611e31979691016134bb565b6040516020818303038152906040528051906020012090505b919050565b604081015182546020830151600185015567ffffffffffffffff191667ffffffffffffffff9182164201909116177cff0000000000000000000000000000000000000000000000000000000019167c03000000000000000000000000000000000000000000000000000000001782556002820154611dff90612222565b662386f26fc10000821015611ef65760405160e560020a62461bcd02815260040161040f9061373c565b611f008286611d93565b86516020808901919091206000818152600690925260409091205460ff16158015611f5857506000600160a060020a03861660009081526005602052604090205460e060020a900460ff166003811115611f5657fe5b145b611f775760405160e560020a62461bcd02815260040161040f9061370c565b600160a060020a03858116600090815260056020526040812080547cff00000000000000000000000000000000000000000000000000000000191660e060020a1780825591546002820155918616604060020a027bffffffffffffffffffffffffffffffffffffffff000000000000000019909116179055611ff76125fe565b88815267ffffffffffffffff8089166080830152600160a060020a03871660c083015260208201859052610e109088161161203457610e10612036565b865b67ffffffffffffffff90811660408301524281166060830152831660a082015261205f81611e03565b60e082015260008054600181018083559180528251805184926005027f290decd9548b62a8d60345a988386fc84ba6bc95484008f6362f93160ef3e56301916120ad918391602001906126d7565b506020820151600182015560408201516002820180546060850151608086015167ffffffffffffffff1992831667ffffffffffffffff958616176fffffffffffffffff00000000000000001916604060020a9286168302176001608060020a03908116608060020a91909216021790925560a085015160038501805460c0880151931691909416177bffffffffffffffffffffffffffffffffffffffff00000000000000001916600160a060020a0390911690910217905560e0909101516004909101555061217a612642565b60018152600160a060020a0387811660208084019182526000868152600690915260409081902084518154935160ff199094169015151774ffffffffffffffffffffffffffffffffffffffff0019166101009390941692909202929092179055517f1ca262a77ac17942055c2ff991000041865fc4fe608b39c1f3c10731996565109061220e908c908c908b908a906135a6565b60405180910390a150505050505050505050565b7f78267f80e41fea0cce6d47208671d5c1d990b9fdaefd72a3989de95cde34bc626000828154811061225057fe5b90600052602060002090600502016000016000838154811061226e57fe5b906000526020600020906005020160030160089054906101000a9004600160a060020a03166040516122a192919061364f565b60405180910390a1600660008083815481106122b957fe5b90600052602060002090600502016000016040516122d79190613451565b604080519182900390912082526020820192909252016000908120805474ffffffffffffffffffffffffffffffffffffffffff19169055548061231657fe5b60006005600080858154811061232857fe5b6000918252602080832060059290920290910160030154604060020a9004600160a060020a031683528201929092526040019020600201556123686125fe565b6000600183038154811061237857fe5b60009182526020918290206040805160059390930290910180546002610100600183161581026000190190921604601f8101869004909502840161012090810190935283018481529293909284929091849184018282801561241b5780601f106123f05761010080835404028352916020019161241b565b820191906000526020600020905b8154815290600101906020018083116123fe57829003601f168201915b505050918352505060018201546020820152600282015467ffffffffffffffff8082166040840152604060020a80830482166060850152608060020a9092046001608060020a03166080840152600384015490811660a084015204600160a060020a031660c082015260049091015460e090910152600080549192508291859081106124a357fe5b906000526020600020906005020160008201518160000190805190602001906124cd9291906126d7565b506020828101516001830155604080840151600280850180546060880151608089015167ffffffffffffffff1992831667ffffffffffffffff968716176fffffffffffffffff00000000000000001916604060020a9287168302176001608060020a03908116608060020a91909216021790925560a088015160038801805460c0808c015191909416928716929092177bffffffffffffffffffffffffffffffffffffffff00000000000000001916600160a060020a039283169094029390931790925560e090970151600490960195909555948601519093166000908152600590925281209186169282019290925581549091611d73906000198301612745565b6040805160a0810182526000808252602082018190529091820190815260200160008152602001600081525090565b6040805161010081018252606080825260006020830181905292820183905281018290526080810182905260a0810182905260c0810182905260e081019190915290565b604080518082019091526000808252602082015290565b828054600181600116156101000203166002900490600052602060002090601f016020900481019282601f1061269a5782800160ff198235161785556126c7565b828001600101855582156126c7579182015b828111156126c75782358255916020019190600101906126ac565b506126d3929150612776565b5090565b828054600181600116156101000203166002900490600052602060002090601f016020900481019282601f1061271857805160ff19168380011785556126c7565b828001600101855582156126c7579182015b828111156126c757825182559160200191906001019061272a565b815481835581811115612771576005028160050283600052602060002091820191016127719190612790565b505050565b61161791905b808211156126d3576000815560010161277c565b61161791905b808211156126d35760006127aa82826127f2565b50600060018201819055600282018190556003820180547fffffffff000000000000000000000000000000000000000000000000000000001690556004820155600501612796565b50805460018160011615610100020316600290046000825580601f106128185750612836565b601f0160209004906000526020600020908101906128369190612776565b50565b80356128448161399f565b92915050565b8035612844816139b3565b8051612844816139b3565b60008083601f84011261287257600080fd5b50813567ffffffffffffffff81111561288a57600080fd5b6020830191508360018202830111156128a257600080fd5b9250929050565b8035612844816139bc565b8035612844816139c5565b6000602082840312156128d157600080fd5b60006128dd8484612839565b949350505050565b600080604083850312156128f857600080fd5b60006129048585612839565b925050602061291585828601612839565b9150509250929050565b60008060008060008060c0878903121561293857600080fd5b60006129448989612839565b965050602061295589828a0161284a565b955050604061296689828a0161284a565b945050606061297789828a016128b4565b935050608061298889828a0161284a565b92505060a061299989828a0161284a565b9150509295509295509295565b60008060008060008060a087890312156129bf57600080fd5b60006129cb8989612839565b965050602087013567ffffffffffffffff8111156129e857600080fd5b6129f489828a01612860565b95509550506040612a0789828a016128a9565b9350506060612a1889828a016128a9565b925050608061299989828a016128a9565b600060208284031215612a3b57600080fd5b60006128dd848461284a565b600060208284031215612a5957600080fd5b60006128dd8484612855565b60008060008060008060008060006101008a8c031215612a8457600080fd5b893567ffffffffffffffff811115612a9b57600080fd5b612aa78c828d01612860565b99509950506020612aba8c828d016128a9565b9750506040612acb8c828d016128a9565b9650506060612adc8c828d01612839565b9550506080612aed8c828d016128a9565b94505060a0612afe8c828d016128b4565b93505060c0612b0f8c828d0161284a565b92505060e0612b208c828d0161284a565b9150509295985092959850929598565b600080600080600060808688031215612b4857600080fd5b853567ffffffffffffffff811115612b5f57600080fd5b612b6b88828901612860565b95509550506020612b7e888289016128a9565b9350506040612b8f888289016128a9565b9250506060612ba0888289016128a9565b9150509295509295909350565b60008060408385031215612bc057600080fd5b6000612bcc858561284a565b92505060206129158582860161284a565b612be681613896565b82525050565b612be6612bf882613851565b6138f6565b612be681613851565b612be68161385c565b612be681611617565b612be6612c2482611617565b611617565b6000612c358385611e4a565b9350612c428385846138be565b50500190565b6000612c5382613844565b612c5d8185611e4a565b9350612c6d8185602086016138ca565b9290920192915050565b600081546001811660008114612c945760018114612cb757612cf6565b607f6002830416612ca58187611e4a565b60ff1984168152955085019250612cf6565b60028204612cc58187611e4a565b9550612cd085613838565b60005b82811015612cef57815488820152600190910190602001612cd3565b5050850192505b505092915050565b612be68161389d565b612be6816138a8565b6000612d1b82613844565b612d258185613848565b9350612d358185602086016138ca565b612d3e8161392d565b9093019392505050565b600081546001811660008114612d655760018114612d8b57612cf6565b607f6002830416612d768187613848565b60ff1984168152955050602085019250612cf6565b60028204612d998187613848565b9550612da485613838565b60005b82811015612dc357815488820152600190910190602001612da7565b9096019695505050505050565b6000612ddd601883613848565b7f6578636565646564206d6178696d756d2074696d656f75740000000000000000815260200192915050565b6000612e16601283613848565b7f6f6e6c7920666f7220746865206f776e65720000000000000000000000000000815260200192915050565b6000612e4f601083613848565b7f6f6e6c7920696e20317374207965617200000000000000000000000000000000815260200192915050565b6000612e88601a83613848565b7f72657665616c436f6e76696374207374696c6c206c6f636b6564000000000000815260200192915050565b6000612ec1601c83613848565b7f61646472657373206973206e6f7420616e20696e332d7369676e657200000000815260200192915050565b6000612efa601583613848565b7f75726c20697320616c726561647920696e207573650000000000000000000000815260200192915050565b6000612f33601883613848565b7f6e6f7420696e2074686520636f72726563742073746174650000000000000000815260200192915050565b6000612f6c603883613848565b7f61206e6f64652077697468207468652073616d652075726c206f72207369676e81527f657220697320616c726561647920726567697374657265640000000000000000602082015260400192915050565b6000612fcb601483613848565b7f6465706f736974207374696c6c206c6f636b6564000000000000000000000000815260200192915050565b6000613004600f83613848565b7f626c6f636b206e6f7420666f756e640000000000000000000000000000000000815260200192915050565b600061303d601283613848565b7f6e6f7420656e6f756768206465706f7369740000000000000000000000000000815260200192915050565b6000613076601b83613848565b7f6f6e6c7920666f722074686520696e332d6e6f6465206f776e65720000000000815260200192915050565b60006130af603283613848565b7f74686520626c6f636b20776173206e6f74207369676e6564206279207468652081527f7369676e6572206f6620746865206e6f64650000000000000000000000000000602082015260400192915050565b600061310e601783613848565b7f4c696d6974206f66203530204554482072656163686564000000000000000000815260200192915050565b6000613147601c83613848565b7f6f6e6c79206f776e65722063616e20636c61696d206465706f73697400000000815260200192915050565b6000613180602683613848565b7f796f752074727920746f20636f6e766963742077697468206120636f7272656381527f7420686173680000000000000000000000000000000000000000000000000000602082015260400192915050565b60006131df601683613848565b7f307830206164647265737320697320696e76616c696400000000000000000000815260200192915050565b6000613218601283613848565b7f77726f6e6720636f6e7669637420686173680000000000000000000000000000815260200192915050565b6000613251601683613848565b7f6e6f646520616c726561647920636f6e76696374656400000000000000000000815260200192915050565b600061328a603083613848565b7f6e6f742074686520636f7272656374207369676e6174757265206f662074686581527f207369676e65722070726f766964656400000000000000000000000000000000602082015260400192915050565b60006132e9602d83613848565b7f6f6e6c7920756e72656769737465724b657920697320616c6c6f77656420746f81527f2072656d6f7665206e6f64657300000000000000000000000000000000000000602082015260400192915050565b612be68161386b565b612be66133508261386b565b613901565b612be6816138b3565b612be681613883565b612be661337382613883565b613917565b612be681613890565b612be661338d82613890565b613922565b600061339e8288612c18565b6020820191506133ae8287612bec565b6014820191506133be8286613381565b6001820191506133ce8285612c18565b6020820191506133de8284612c18565b5060200195945050505050565b60006133f78286612c18565b6020820191506134078285612c18565b6020820191506134178284612c18565b506020019392505050565b60006128dd828486612c29565b600061343b8285612c48565b91506134478284612c18565b5060200192915050565b600061345d8284612c77565b9392505050565b600061347182888a612c29565b915061347d8287613367565b60088201915061348d8286613367565b60088201915061349d8285613367565b6008820191506134ad8284612bec565b506014019695505050505050565b60006134c78289612c18565b6020820191506134d78288613367565b6008820191506134e78287613367565b6008820191506134f78286613344565b6010820191506135078285612bec565b6014820191506135178284612c48565b98975050505050505050565b602081016128448284612bfd565b6040810161353f8285612c06565b61345d6020830184612bfd565b602081016128448284612c0f565b608081016135688287612c0f565b6135756020830186613378565b6135826040830185612c0f565b61358f6060830184612c0f565b95945050505050565b602081016128448284612cfe565b608080825281016135b78187612d10565b90506135c66020830186613355565b6135826040830185612bfd565b61010080825281016135e5818b612d10565b90506135f4602083018a612c0f565b613601604083018961335e565b61360e606083018861335e565b61361b608083018761333b565b61362860a083018661335e565b61363560c0830185612bfd565b61364260e0830184612c0f565b9998505050505050505050565b604080825281016136608185612d48565b905061345d6020830184612bfd565b608080825281016136808187612d48565b905061368f6020830186613355565b6135826040830185612bdd565b6020808252810161284481612dd0565b6020808252810161284481612e09565b6020808252810161284481612e42565b6020808252810161284481612e7b565b6020808252810161284481612eb4565b6020808252810161284481612eed565b6020808252810161284481612f26565b6020808252810161284481612f5f565b6020808252810161284481612fbe565b6020808252810161284481612ff7565b6020808252810161284481613030565b6020808252810161284481613069565b60208082528101612844816130a2565b6020808252810161284481613101565b602080825281016128448161313a565b6020808252810161284481613173565b60208082528101612844816131d2565b602080825281016128448161320b565b6020808252810161284481613244565b602080825281016128448161327d565b60208082528101612844816132dc565b60a081016137fa828861335e565b6138076020830187612bfd565b6138146040830186612d07565b6138216060830185612c0f565b61382e6080830184612c0f565b9695505050505050565b60009081526020902090565b5190565b90815260200190565b600061284482613877565b151590565b80611e4a81613995565b6001608060020a031690565b600160a060020a031690565b67ffffffffffffffff1690565b60ff1690565b6000612844825b600061284482613851565b600061284482613861565b600061284482613883565b82818337506000910152565b60005b838110156138e55781810151838201526020016138cd565b838111156118c45750506000910152565b60006128448261390c565b600061284482613937565b600061284482613983565b600061284482613940565b60006128448261395e565b601f01601f191690565b608060020a0290565b78010000000000000000000000000000000000000000000000000290565b7f01000000000000000000000000000000000000000000000000000000000000000290565b6c010000000000000000000000000290565b6004811061283657fe5b6139a881613851565b811461283657600080fd5b6139a881611617565b6139a881613883565b6139a88161389056fea365627a7a7230582073ae2858527bd8b954d3fa6b341f63cd4c2737057ae594142db3ddd0db88f89f6c6578706572696d656e74616cf564736f6c634300050a0040",
  "source": "/***********************************************************\n* This file is part of the Slock.it IoT Layer.             *\n* The Slock.it IoT Layer contains:                         *\n*   - USN (Universal Sharing Network)                      *\n*   - INCUBED (Trustless INcentivized remote Node Network) *\n************************************************************\n* Copyright (C) 2016 - 2018 Slock.it GmbH                  *\n* All Rights Reserved.                                     *\n************************************************************\n* You may use, distribute and modify this code under the   *\n* terms of the license contract you have concluded with    *\n* Slock.it GmbH.                                           *\n* For information about liability, maintenance etc. also   *\n* refer to the contract concluded with Slock.it GmbH.      *\n************************************************************\n* For more information, please refer to https://slock.it   *\n* For questions, please contact info@slock.it              *\n***********************************************************/\n\npragma solidity 0.5.10;\npragma experimental ABIEncoderV2;\n\nimport \"./BlockhashRegistry.sol\";\n\n\n/// @title Registry for IN3-nodes\ncontract NodeRegistry {\n\n    /// node has been registered or updated its registry props or deposit\n    event LogNodeRegistered(string url, uint props, address signer, uint deposit);\n\n    /// a node was convicted\n    event LogNodeConvicted(address signer);\n\n    /// a Node is removed\n    event LogNodeRemoved(string url, address signer);\n\n    struct In3Node {\n        string url;                         /// the url of the node\n\n        uint deposit;                       /// stored deposit\n\n        uint64 timeout;                     /// timeout after which the owner is allowed to receive his stored deposit\n        uint64 registerTime;                /// timestamp when the node was registered\n        uint128 props;                       /// a list of properties-flags representing the capabilities of the node\n\n        uint64 weight;                      ///  the flag for (future) incentivisation\n        address signer;                     /// the signer for requests\n\n        bytes32 proofHash;                  /// keccak(deposit,timeout,registerTime,props,signer,url)\n    }\n\n     /// information of a (future) convict (used to prevent frontrunning)\n    struct ConvictInformation {\n        bytes32 convictHash;                /// keccak256(wrong blockhash, msg.sender, v, r, s)\n        uint blockNumberConvict;            /// block number when convict had been called\n    }\n\n    /// information of a in3-node owner\n    struct SignerInformation {\n        uint64 lockedTime;                  /// timestamp until the deposit of an in3-node can not be withdrawn after the node was removed\n        address owner;                      /// the owner of the node\n\n        Stages stage;                       /// state of the address\n\n        uint depositAmount;                 /// amount of deposit to be locked, used only after a node had been removed\n\n        uint index;                         /// current index-position of the node in the node-array\n    }\n\n    /// information of an url\n    struct UrlInformation {\n        bool used;                          /// flag whether the url is currently used\n        address signer;                     /// address of the owner of the url\n    }\n\n    /// Different Stages a node can have\n    enum Stages {\n        NotInUse,                           /// node is not in use, so a new node with the same address can be registered\n        Active,                             /// node is active, so a new node with the same address cannot be registered\n        Convicted,                          /// node is convited, so he is inactive, but cannot be registered anymore\n        DepositNotWithdrawn                 /// node is not in use anymore, but still has some deposit stored within the contract\n    }\n\n    /// node list of incubed nodes\n    In3Node[] public nodes;\n\n    /// id used for signing in3-requests and in order to prevent cross-chain convicts\n    /// in case a fork happens there is the possibility that a node can be convicted on the other fork,\n    /// because they would use the very same registryId. Nevertheless we cannot change the registryId.\n    /// So in case of a fork a node should chose one of the forks and unregister his nodes on the others.\n    /// In this case it is also recommend to not sign requests until the node get his deposits from the forked contracts\n    bytes32 public registryId;\n\n    /// add your additional storage here. If you add information before this line you will break in3 nodelist\n\n    /// blockhash registry address\n    BlockhashRegistry public blockRegistry;\n\n    /// the timestamp of the deployment\n    uint public blockTimeStampDeployment;\n\n    /// admin-key to remove some server, only usable within the 1st year\n    address public unregisterKey;\n\n    /// mapping for information of the owner\n    mapping (address => SignerInformation) public signerIndex;\n\n    /// mapping for the information of the url\n    /// can be used to access the SignerInformation-struct\n    mapping (bytes32 => UrlInformation) public urlIndex;\n\n    /// mapping for convicts: blocknumber => address => convictInformation\n    mapping (uint => mapping(address => ConvictInformation)) internal convictMapping;\n\n    /// capping the max deposit timeout on 1 year\n    uint constant internal YEAR_DEFINITION = 1 days * 365;\n\n    /// limit for ether per node in the 1st year\n    uint constant internal MAX_ETHER_LIMIT = 50 ether;\n\n    /// version: major minor fork(000) date(yyyy/mm/dd)\n    uint constant public VERSION = 12300020190709;\n\n    modifier onlyActiveState(address _signer) {\n\n        SignerInformation memory si = signerIndex[_signer];\n        require(si.stage == Stages.Active, \"address is not an in3-signer\");\n\n        In3Node memory n = nodes[si.index];\n        assert(nodes[si.index].signer == _signer);\n        _;\n    }\n\n    /// @notice constructor\n    /// @param _blockRegistry address of a BlockhashRegistry-contract\n    /// @dev cannot be deployed in a genesis block\n    constructor(BlockhashRegistry _blockRegistry) public {\n        blockRegistry = _blockRegistry;\n\n        // solium-disable-next-line security/no-block-members\n        blockTimeStampDeployment = block.timestamp;  // solhint-disable-line not-rely-on-time\n        registryId = keccak256(abi.encodePacked(address(this), blockhash(block.number-1)));\n        unregisterKey = msg.sender;\n    }\n\n    /// @notice commits a blocknumber and a hash\n    /// @notice must be called before revealConvict\n    /// @param _blockNumber the blocknumber of the wrong blockhash\n    /// @param _hash keccak256(wrong blockhash, msg.sender, v, r, s); used to prevent frontrunning.\n    /// @dev The v,r,s paramaters are from the signature of the wrong blockhash that the node provided\n    function convict(uint _blockNumber, bytes32 _hash) external {\n\n        ConvictInformation memory ci;\n        ci.convictHash = _hash;\n        ci.blockNumberConvict = block.number;\n\n        convictMapping[_blockNumber][msg.sender] = ci;\n    }\n\n    /// @notice register a new node with the sender as owner\n    /// @param _url the url of the node, has to be unique\n    /// @param _props properties of the node\n    /// @param _timeout timespan of how long the node of a deposit will be locked. Will be at least for 1h\n    /// @param _weight how many requests per second the node is able to handle\n    /// @dev will call the registerNodeInteral function\n    function registerNode(\n        string calldata _url,\n        uint64 _props,\n        uint64 _timeout,\n        uint64 _weight\n    )\n        external\n        payable\n    {\n        registerNodeInternal(\n            _url,\n            _props,\n            _timeout,\n            msg.sender,\n            msg.sender,\n            msg.value,\n            _weight\n        );\n    }\n\n    /// @notice register a new node as a owner using a different signer address\n    /// @param _url the url of the node, has to be unique\n    /// @param _props properties of the node\n    /// @param _timeout timespan of how long the node of a deposit will be locked. Will be at least for 1h\n    /// @param _signer the signer of the in3-node\n    /// @param _weight how many requests per second the node is able to handle\n    /// @param _v v of the signed message\n    /// @param _r r of the signed message\n    /// @param _s s of the signed message\n    /// @dev will call the registerNodeInteral function\n    /// @dev in order to prove that the owner has controll over the signer-address he has to sign a message\n    /// @dev which is calculated by the hash of the url, properties, timeout, weight and the owner\n    /// @dev will revert when a wrong signature has been provided\n    function registerNodeFor(\n        string calldata _url,\n        uint64 _props,\n        uint64 _timeout,\n        address _signer,\n        uint64 _weight,\n        uint8 _v,\n        bytes32 _r,\n        bytes32 _s\n    )\n        external\n        payable\n    {\n\n        bytes memory prefix = \"\\x19Ethereum Signed Message:\\n32\";\n        bytes32 tempHash = keccak256(\n            abi.encodePacked(\n                _url,\n                _props,\n                _timeout,\n                _weight,\n                msg.sender\n            )\n        );\n        bytes32 prefixedHash = keccak256(abi.encodePacked(prefix, tempHash));\n\n        address signer = ecrecover(\n            prefixedHash,\n            _v,\n            _r,\n            _s\n        );\n\n        require(_signer == signer, \"not the correct signature of the signer provided\");\n\n        registerNodeInternal(\n            _url,\n            _props,\n            _timeout,\n            _signer,\n            msg.sender,\n            msg.value,\n            _weight\n        );\n    }\n\n    /// @notice removes an in3-server from the registry\n    /// @param _signer the signer-address of the in3-node\n    /// @dev only callable by the unregisterKey-account\n    /// @dev only callable in the 1st year after deployment\n    function removeNodeFromRegistry(address _signer)\n        external\n        onlyActiveState(_signer)\n    {\n\n        // solium-disable-next-line security/no-block-members\n        require(block.timestamp < (blockTimeStampDeployment + YEAR_DEFINITION), \"only in 1st year\");// solhint-disable-line not-rely-on-time\n        require(msg.sender == unregisterKey, \"only unregisterKey is allowed to remove nodes\");\n\n        SignerInformation storage si = signerIndex[_signer];\n        In3Node memory n = nodes[si.index];\n\n        unregisterNodeInternal(si, n);\n\n    }\n\n    /// @notice returns the deposit after a node has been removed due to inactivity\n    /// @notice only callable after the timeout of the deposit is over\n    /// @param _signer the signer-address of a former in3-node\n    /// @dev reverts when not the owner of the former in3-node\n    /// @dev reverts when there is nothing to transfer\n    /// @dev reverts if the deposit is still locked\n    function returnDeposit(address _signer) external {\n\n        SignerInformation storage si = signerIndex[_signer];\n\n        require(si.stage == Stages.DepositNotWithdrawn, \"not in the correct state\");\n        require(si.owner == msg.sender, \"only owner can claim deposit\");\n\n        // solium-disable-next-line security/no-block-members\n        require(block.timestamp > si.lockedTime, \"deposit still locked\"); // solhint-disable-line not-rely-on-time\n\n        uint payout = si.depositAmount;\n        delete signerIndex[_signer];\n        msg.sender.transfer(payout);\n    }\n\n    /// @notice reveals the wrongly provided blockhash, so that the node-owner will lose its deposit\n    /// @param _signer the address that signed the wrong blockhash\n    /// @param _blockhash the wrongly provided blockhash\n    /// @param _blockNumber number of the wrongly provided blockhash\n    /// @param _v v of the signature\n    /// @param _r r of the signature\n    /// @param _s s of the signature\n    /// @dev reverts if a block with that number cannot be found in either the latest 256 blocks or the blockhash registry\n    /// @dev reverts when tryin to convict someone with a correct blockhash\n    /// @dev reverts when trying to reveal immediately after calling convict\n    /// @dev reverts when the _signer did not sign the block\n    /// @dev reverts when the wrong convict hash (see convict-function) is used\n    function revealConvict(\n        address _signer,\n        bytes32 _blockhash,\n        uint _blockNumber,\n        uint8 _v,\n        bytes32 _r,\n        bytes32 _s\n    )\n        external\n    {\n        // solium-disable-next-line security/no-block-members\n        bytes32 evmBlockhash = blockhash(_blockNumber);\n\n        if (evmBlockhash == 0x0) {\n            evmBlockhash = blockRegistry.blockhashMapping(_blockNumber);\n        }\n\n        require(evmBlockhash != 0x0, \"block not found\");\n\n        // if the blockhash is correct you cannot convict the node\n        require(evmBlockhash != _blockhash, \"you try to convict with a correct hash\");\n\n        SignerInformation storage si = signerIndex[_signer];\n        ConvictInformation storage ci = convictMapping[_blockNumber][msg.sender];\n\n        require(block.number >= ci.blockNumberConvict + 2, \"revealConvict still locked\");\n        require(\n            ecrecover(\n                keccak256(\n                    abi.encodePacked(\n                        _blockhash,\n                        _blockNumber,\n                        registryId\n                    )\n                ),\n                _v, _r, _s) == _signer,\n            \"the block was not signed by the signer of the node\");\n\n        require(\n            keccak256(\n                abi.encodePacked(\n                    _blockhash, msg.sender, _v, _r, _s\n                )\n            ) == ci.convictHash, \"wrong convict hash\");\n\n        require(si.stage != Stages.Convicted, \"node already convicted\");\n        emit LogNodeConvicted(_signer);\n\n        uint deposit = 0;\n        // the signer is still active\n        if (si.stage == Stages.Active) {\n            assert(nodes[si.index].signer == _signer);\n            deposit = nodes[si.index].deposit;\n            removeNode(si.index);\n        } else {\n            // the signer is not active anymore\n            deposit = si.depositAmount;\n            si.depositAmount = 0;\n            si.lockedTime = 0;\n        }\n\n        si.stage = Stages.Convicted;\n        delete convictMapping[_blockNumber][msg.sender];\n\n        // remove the deposit\n        uint payout = deposit / 2;\n        // send 50% to the caller of this function\n        msg.sender.transfer(payout);\n        // and burn the rest by sending it to the 0x0-address\n        // this is done in order to make it useless trying to convict your own node with a second account\n        // and this getting all the deposit back after signing a wrong hash.\n        address(0).transfer(deposit-payout);\n    }\n\n    /// @notice changes the ownership of an in3-node\n    /// @param _signer the signer-address of the in3-node, used as an identifier\n    /// @param _newOwner the new owner\n    /// @dev reverts when trying to change ownership of an inactive node\n    /// @dev reverts when trying to pass ownership to 0x0\n    /// @dev reverts when the sender is not the current owner\n    /// @dev reverts when inacitivity is claimed\n    function transferOwnership(address _signer, address _newOwner)\n        external\n        onlyActiveState(_signer)\n    {\n        SignerInformation storage si = signerIndex[_signer];\n        require(si.owner == msg.sender, \"only for the in3-node owner\");\n\n        require(_newOwner != address(0x0), \"0x0 address is invalid\");\n        si.owner = _newOwner;\n    }\n\n    /// @notice a node owner can unregister a node, removing it from the nodeList\n    /// @notice doing so will also lock his deposit for the timeout of the node\n    /// @param _signer the signer of the in3-node\n    /// @dev reverts when the provided address is not an in3-signer\n    /// @dev reverts when the node is already unregistering\n    /// @dev reverts when not called by the owner of the node\n    function unregisteringNode(address _signer)\n        external\n        onlyActiveState(_signer)\n    {\n\n        SignerInformation storage si = signerIndex[_signer];\n        In3Node memory n = nodes[si.index];\n        require(si.owner == msg.sender, \"only for the in3-node owner\");\n\n        unregisterNodeInternal(si, n);\n    }\n\n    /// @notice updates a node by adding the msg.value to the deposit and setting the props or timeout\n    /// @param _signer the signer-address of the in3-node, used as an identifier\n    /// @param _url the url, will be changed if different from the current one\n    /// @param _props the new properties, will be changed if different from the current onec\n    /// @param _timeout the new timeout of the node, cannot be decreased. Has to be at least 1h\n    /// @param _weight the amount of requests per second the node is able to handle\n    /// @dev reverts when the sender is not the owner of the node\n    /// @dev reverts when the signer does not own a node\n    /// @dev reverts when trying to increase the timeout above 10 years\n    /// @dev reverts when trying to change the url to an already existing one\n    function updateNode(\n        address _signer,\n        string calldata _url,\n        uint64 _props,\n        uint64 _timeout,\n        uint64 _weight\n    )\n        external\n        payable\n        onlyActiveState(_signer)\n    {\n        SignerInformation memory si = signerIndex[_signer];\n        require(si.owner == msg.sender, \"only for the owner\");\n\n        In3Node storage node = nodes[si.index];\n\n        bytes32 newURl = keccak256(bytes(_url));\n\n        // the url got changed\n        if (newURl != keccak256(bytes(node.url))) {\n\n            // deleting the old entry\n            delete urlIndex[keccak256(bytes(node.url))];\n\n            // make sure the new url is not already in use\n            require(!urlIndex[newURl].used, \"url is already in use\");\n\n            UrlInformation memory ui;\n            ui.used = true;\n            ui.signer = msg.sender;\n            urlIndex[newURl] = ui;\n            node.url = _url;\n        }\n\n        if (msg.value > 0) {\n            node.deposit += msg.value;\n        }\n\n        checkNodeProperties(node.deposit, _timeout);\n\n        if (_props != node.props) {\n            node.props = _props;\n        }\n\n        if (_timeout > node.timeout) {\n            node.timeout = _timeout;\n        }\n\n        if (_weight != node.weight) {\n            node.weight = _weight;\n        }\n\n        node.proofHash = calcProofHash(node);\n\n        emit LogNodeRegistered(\n            node.url,\n            _props,\n            msg.sender,\n            node.deposit\n        );\n    }\n\n    /// @notice length of the nodelist\n    /// @return the number of total in3-nodes\n    function totalNodes() external view returns (uint) {\n        return nodes.length;\n    }\n\n    /// @notice calculates the sha3 hash of the most important properties in order to make the proof faster\n    /// @param _node the in3 node to calculate the hash from\n    /// @return the hash of the properties of an in3-node\n    function calcProofHash(In3Node memory _node) internal pure returns (bytes32) {\n\n        return keccak256(\n            abi.encodePacked(\n                _node.deposit,\n                _node.timeout,\n                _node.registerTime,\n                _node.props,\n                _node.signer,\n                _node.url\n            )\n        );\n    }\n\n    /// @notice function to check whether the allowed amount of ether as deposit per server has been reached\n    /// @param _deposit the new amount of deposit a server has\n    /// @param _timeout the timeout until a server can receive his depoist after unregistering\n    /// @dev will fail when the deposit is greater then 50 ether in the 1st year\n    /// @dev will fail when the provided timeout is greater then 1 year\n    function checkNodeProperties(uint256 _deposit, uint64 _timeout) internal view {\n\n        // solium-disable-next-line security/no-block-members\n        if (block.timestamp < (blockTimeStampDeployment + YEAR_DEFINITION)) { // solhint-disable-line not-rely-on-time\n            require(_deposit < MAX_ETHER_LIMIT, \"Limit of 50 ETH reached\");\n        }\n        require(_timeout <= YEAR_DEFINITION, \"exceeded maximum timeout\");\n    }\n\n    /// @notice registers a node\n    /// @param _url the url of a node\n    /// @param _props properties of a node\n    /// @param _timeout the time before the owner can access the deposit after unregistering a node\n    /// @param _signer the address that signs the answers of the node\n    /// @param _owner the owner address of the node\n    /// @param _deposit the deposit of a node\n    /// @param _weight the amount of requests per second a node is able to handle\n    /// @dev reverts when time timeout exceed the MAXDEPOSITTIMEOUT\n    /// @dev reverts when provided not enough deposit\n    /// @dev reverts when trying to register a node with more then 50 ether in the 1st year after deployment\n    /// @dev reverts when either the owner or the url is already in use\n    function registerNodeInternal (\n        string memory _url,\n        uint64 _props,\n        uint64 _timeout,\n        address _signer,\n        address payable _owner,\n        uint _deposit,\n        uint64 _weight\n    )\n        internal\n    {\n\n        // enforcing a minimum deposit\n        require(_deposit >= 10 finney, \"not enough deposit\");\n\n        checkNodeProperties(_deposit, _timeout);\n\n        bytes32 urlHash = keccak256(bytes(_url));\n\n        // make sure this url and also this owner was not registered before.\n        // solium-disable-next-line\n        require(!urlIndex[urlHash].used && signerIndex[_signer].stage == Stages.NotInUse,\n            \"a node with the same url or signer is already registered\");\n\n        // sets the information of the owner\n        signerIndex[_signer].stage = Stages.Active;\n        signerIndex[_signer].index = nodes.length;\n        signerIndex[_signer].owner = _owner;\n\n        // add new In3Node\n        In3Node memory m;\n        m.url = _url;\n        m.props = _props;\n        m.signer = _signer;\n        m.deposit = _deposit;\n        m.timeout = _timeout > 1 hours ? _timeout : 1 hours;\n        // solium-disable-next-line security/no-block-members\n        m.registerTime = uint64(block.timestamp); // solhint-disable-line not-rely-on-time\n        m.weight = _weight;\n\n        m.proofHash = calcProofHash(m);\n        nodes.push(m);\n\n        // sets the information of the url\n        UrlInformation memory ui;\n        ui.used = true;\n        ui.signer = _signer;\n        urlIndex[urlHash] = ui;\n\n        emit LogNodeRegistered(\n            _url,\n            _props,\n            _signer,\n            _deposit\n        );\n    }\n\n    /// @notice handes the setting of the unregister values for a node internally\n    /// @param _si information of the signer\n    /// @param _n information of the in3-node\n    function unregisterNodeInternal(SignerInformation  storage _si, In3Node memory _n) internal {\n\n        // solium-disable-next-line security/no-block-members\n        _si.lockedTime = uint64(block.timestamp + _n.timeout);// solhint-disable-line not-rely-on-time\n        _si.depositAmount = _n.deposit;\n        _si.stage = Stages.DepositNotWithdrawn;\n\n        removeNode(_si.index);\n    }\n\n    /// @notice removes a node from the node-array\n    /// @param _nodeIndex the nodeIndex to be removed\n    function removeNode(uint _nodeIndex) internal {\n        // trigger event\n        emit LogNodeRemoved(nodes[_nodeIndex].url, nodes[_nodeIndex].signer);\n        // deleting the old entry\n        delete urlIndex[keccak256(bytes(nodes[_nodeIndex].url))];\n        uint length = nodes.length;\n\n        assert(length > 0);\n\n        // reset the index position\n        signerIndex[nodes[_nodeIndex].signer].index = 0;\n\n        // move the last entry to the removed one.\n        In3Node memory m = nodes[length - 1];\n        nodes[_nodeIndex] = m;\n\n        SignerInformation storage si = signerIndex[m.signer];\n        si.index = uint64(_nodeIndex);\n        nodes.length--;\n    }\n}\n",
  "sourcePath": "/home/junaid/Desktop/work/contracts/contracts/NodeRegistry.sol",
  "compiler": {
    "name": "solc",
    "version": "0.5.10+commit.5a6ea5b1.Emscripten.clang"
  },
  "schemaVersion": "3.0.16",
  "updatedAt": "2019-09-27T19:15:41.298Z",
  "devdoc": {
    "methods": {
      "constructor": {
        "details": "cannot be deployed in a genesis block",
        "params": {
          "_blockRegistry": "address of a BlockhashRegistry-contract"
        }
      },
      "convict(uint256,bytes32)": {
        "details": "The v,r,s paramaters are from the signature of the wrong blockhash that the node provided",
        "params": {
          "_blockNumber": "the blocknumber of the wrong blockhash",
          "_hash": "keccak256(wrong blockhash, msg.sender, v, r, s); used to prevent frontrunning."
        }
      },
      "registerNode(string,uint64,uint64,uint64)": {
        "details": "will call the registerNodeInteral function",
        "params": {
          "_props": "properties of the node",
          "_timeout": "timespan of how long the node of a deposit will be locked. Will be at least for 1h",
          "_url": "the url of the node, has to be unique",
          "_weight": "how many requests per second the node is able to handle"
        }
      },
      "registerNodeFor(string,uint64,uint64,address,uint64,uint8,bytes32,bytes32)": {
        "details": "will call the registerNodeInteral functionin order to prove that the owner has controll over the signer-address he has to sign a messagewhich is calculated by the hash of the url, properties, timeout, weight and the ownerwill revert when a wrong signature has been provided",
        "params": {
          "_props": "properties of the node",
          "_r": "r of the signed message",
          "_s": "s of the signed message",
          "_signer": "the signer of the in3-node",
          "_timeout": "timespan of how long the node of a deposit will be locked. Will be at least for 1h",
          "_url": "the url of the node, has to be unique",
          "_v": "v of the signed message",
          "_weight": "how many requests per second the node is able to handle"
        }
      },
      "removeNodeFromRegistry(address)": {
        "details": "only callable by the unregisterKey-accountonly callable in the 1st year after deployment",
        "params": {
          "_signer": "the signer-address of the in3-node"
        }
      },
      "returnDeposit(address)": {
        "details": "reverts when not the owner of the former in3-nodereverts when there is nothing to transferreverts if the deposit is still locked",
        "params": {
          "_signer": "the signer-address of a former in3-node"
        }
      },
      "revealConvict(address,bytes32,uint256,uint8,bytes32,bytes32)": {
        "details": "reverts if a block with that number cannot be found in either the latest 256 blocks or the blockhash registryreverts when tryin to convict someone with a correct blockhashreverts when trying to reveal immediately after calling convictreverts when the _signer did not sign the blockreverts when the wrong convict hash (see convict-function) is used",
        "params": {
          "_blockNumber": "number of the wrongly provided blockhash",
          "_blockhash": "the wrongly provided blockhash",
          "_r": "r of the signature",
          "_s": "s of the signature",
          "_signer": "the address that signed the wrong blockhash",
          "_v": "v of the signature"
        }
      },
      "totalNodes()": {
        "return": "the number of total in3-nodes"
      },
      "transferOwnership(address,address)": {
        "details": "reverts when trying to change ownership of an inactive nodereverts when trying to pass ownership to 0x0reverts when the sender is not the current ownerreverts when inacitivity is claimed",
        "params": {
          "_newOwner": "the new owner",
          "_signer": "the signer-address of the in3-node, used as an identifier"
        }
      },
      "unregisteringNode(address)": {
        "details": "reverts when the provided address is not an in3-signerreverts when the node is already unregisteringreverts when not called by the owner of the node",
        "params": {
          "_signer": "the signer of the in3-node"
        }
      },
      "updateNode(address,string,uint64,uint64,uint64)": {
        "details": "reverts when the sender is not the owner of the nodereverts when the signer does not own a nodereverts when trying to increase the timeout above 10 yearsreverts when trying to change the url to an already existing one",
        "params": {
          "_props": "the new properties, will be changed if different from the current onec",
          "_signer": "the signer-address of the in3-node, used as an identifier",
          "_timeout": "the new timeout of the node, cannot be decreased. Has to be at least 1h",
          "_url": "the url, will be changed if different from the current one",
          "_weight": "the amount of requests per second the node is able to handle"
        }
      }
    },
    "title": "Registry for IN3-nodes"
  },
  "userdoc": {
    "methods": {
      "constructor": "constructor",
      "convict(uint256,bytes32)": {
        "notice": "commits a blocknumber and a hashmust be called before revealConvict"
      },
      "registerNode(string,uint64,uint64,uint64)": {
        "notice": "register a new node with the sender as owner"
      },
      "registerNodeFor(string,uint64,uint64,address,uint64,uint8,bytes32,bytes32)": {
        "notice": "register a new node as a owner using a different signer address"
      },
      "removeNodeFromRegistry(address)": {
        "notice": "removes an in3-server from the registry"
      },
      "returnDeposit(address)": {
        "notice": "returns the deposit after a node has been removed due to inactivityonly callable after the timeout of the deposit is over"
      },
      "revealConvict(address,bytes32,uint256,uint8,bytes32,bytes32)": {
        "notice": "reveals the wrongly provided blockhash, so that the node-owner will lose its deposit"
      },
      "totalNodes()": {
        "notice": "length of the nodelist"
      },
      "transferOwnership(address,address)": {
        "notice": "changes the ownership of an in3-node"
      },
      "unregisteringNode(address)": {
        "notice": "a node owner can unregister a node, removing it from the nodeListdoing so will also lock his deposit for the timeout of the node"
      },
      "updateNode(address,string,uint64,uint64,uint64)": {
        "notice": "updates a node by adding the msg.value to the deposit and setting the props or timeout"
      }
    }
  }
}