{
  "contractName": "NodeRegistry",
  "abi": [
    {
      "constant": true,
      "inputs": [],
      "name": "registryId",
      "outputs": [
        {
          "name": "",
          "type": "bytes32"
        }
      ],
      "payable": false,
      "stateMutability": "view",
      "type": "function"
    },
    {
      "constant": true,
      "inputs": [],
      "name": "MAX_ETHER_LIMIT_FIRST_YEAR",
      "outputs": [
        {
          "name": "",
          "type": "uint256"
        }
      ],
      "payable": false,
      "stateMutability": "view",
      "type": "function"
    },
    {
      "constant": true,
      "inputs": [
        {
          "name": "",
          "type": "address"
        }
      ],
      "name": "signerIndex",
      "outputs": [
        {
          "name": "lockedTime",
          "type": "uint64"
        },
        {
          "name": "owner",
          "type": "address"
        },
        {
          "name": "stage",
          "type": "uint8"
        },
        {
          "name": "depositAmount",
          "type": "uint256"
        },
        {
          "name": "index",
          "type": "uint256"
        }
      ],
      "payable": false,
      "stateMutability": "view",
      "type": "function"
    },
    {
      "constant": true,
      "inputs": [
        {
          "name": "",
          "type": "uint256"
        }
      ],
      "name": "nodes",
      "outputs": [
        {
          "name": "url",
          "type": "string"
        },
        {
          "name": "deposit",
          "type": "uint256"
        },
        {
          "name": "timeout",
          "type": "uint64"
        },
        {
          "name": "registerTime",
          "type": "uint64"
        },
        {
          "name": "props",
          "type": "uint128"
        },
        {
          "name": "weight",
          "type": "uint64"
        },
        {
          "name": "signer",
          "type": "address"
        },
        {
          "name": "proofHash",
          "type": "bytes32"
        }
      ],
      "payable": false,
      "stateMutability": "view",
      "type": "function"
    },
    {
      "constant": true,
      "inputs": [],
      "name": "unregisterKey",
      "outputs": [
        {
          "name": "",
          "type": "address"
        }
      ],
      "payable": false,
      "stateMutability": "view",
      "type": "function"
    },
    {
      "constant": true,
      "inputs": [],
      "name": "timestampAdminKeyActive",
      "outputs": [
        {
          "name": "",
          "type": "uint256"
        }
      ],
      "payable": false,
      "stateMutability": "view",
      "type": "function"
    },
    {
      "constant": true,
      "inputs": [
        {
          "name": "",
          "type": "address"
        },
        {
          "name": "",
          "type": "bytes32"
        }
      ],
      "name": "convictMapping",
      "outputs": [
        {
          "name": "",
          "type": "uint256"
        }
      ],
      "payable": false,
      "stateMutability": "view",
      "type": "function"
    },
    {
      "constant": true,
      "inputs": [
        {
          "name": "",
          "type": "bytes32"
        }
      ],
      "name": "urlIndex",
      "outputs": [
        {
          "name": "used",
          "type": "bool"
        },
        {
          "name": "signer",
          "type": "address"
        }
      ],
      "payable": false,
      "stateMutability": "view",
      "type": "function"
    },
    {
      "constant": true,
      "inputs": [],
      "name": "MIN_DEPOSIT",
      "outputs": [
        {
          "name": "",
          "type": "uint256"
        }
      ],
      "payable": false,
      "stateMutability": "view",
      "type": "function"
    },
    {
      "constant": true,
      "inputs": [],
      "name": "blockRegistry",
      "outputs": [
        {
          "name": "",
          "type": "address"
        }
      ],
      "payable": false,
      "stateMutability": "view",
      "type": "function"
    },
    {
      "constant": true,
      "inputs": [],
      "name": "VERSION",
      "outputs": [
        {
          "name": "",
          "type": "uint256"
        }
      ],
      "payable": false,
      "stateMutability": "view",
      "type": "function"
    },
    {
      "inputs": [
        {
          "name": "_blockRegistry",
          "type": "address"
        }
      ],
      "payable": false,
      "stateMutability": "nonpayable",
      "type": "constructor"
    },
    {
      "anonymous": false,
      "inputs": [
        {
          "indexed": false,
          "name": "url",
          "type": "string"
        },
        {
          "indexed": false,
          "name": "props",
          "type": "uint256"
        },
        {
          "indexed": false,
          "name": "signer",
          "type": "address"
        },
        {
          "indexed": false,
          "name": "deposit",
          "type": "uint256"
        }
      ],
      "name": "LogNodeRegistered",
      "type": "event"
    },
    {
      "anonymous": false,
      "inputs": [
        {
          "indexed": false,
          "name": "signer",
          "type": "address"
        }
      ],
      "name": "LogNodeConvicted",
      "type": "event"
    },
    {
      "anonymous": false,
      "inputs": [
        {
          "indexed": false,
          "name": "url",
          "type": "string"
        },
        {
          "indexed": false,
          "name": "signer",
          "type": "address"
        }
      ],
      "name": "LogNodeRemoved",
      "type": "event"
    },
    {
      "anonymous": false,
      "inputs": [
        {
          "indexed": false,
          "name": "url",
          "type": "string"
        },
        {
          "indexed": false,
          "name": "props",
          "type": "uint256"
        },
        {
          "indexed": false,
          "name": "signer",
          "type": "address"
        },
        {
          "indexed": false,
          "name": "deposit",
          "type": "uint256"
        }
      ],
      "name": "LogNodeUpdated",
      "type": "event"
    },
    {
      "anonymous": false,
      "inputs": [
        {
          "indexed": false,
          "name": "signer",
          "type": "address"
        },
        {
          "indexed": false,
          "name": "oldOwner",
          "type": "address"
        },
        {
          "indexed": false,
          "name": "newOwner",
          "type": "address"
        }
      ],
      "name": "LogOwnershipChanged",
      "type": "event"
    },
    {
      "anonymous": false,
      "inputs": [
        {
          "indexed": false,
          "name": "nodeOwner",
          "type": "address"
        },
        {
          "indexed": false,
          "name": "amount",
          "type": "uint256"
        }
      ],
      "name": "LogDepositReturned",
      "type": "event"
    },
    {
      "constant": false,
      "inputs": [
        {
          "name": "_signer",
          "type": "address"
        }
      ],
      "name": "adminRemoveNodeFromRegistry",
      "outputs": [],
      "payable": false,
      "stateMutability": "nonpayable",
      "type": "function"
    },
    {
      "constant": false,
      "inputs": [
        {
          "name": "_hash",
          "type": "bytes32"
        }
      ],
      "name": "convict",
      "outputs": [],
      "payable": false,
      "stateMutability": "nonpayable",
      "type": "function"
    },
    {
      "constant": false,
      "inputs": [
        {
          "name": "_url",
          "type": "string"
        },
        {
          "name": "_props",
          "type": "uint64"
        },
        {
          "name": "_timeout",
          "type": "uint64"
        },
        {
          "name": "_weight",
          "type": "uint64"
        }
      ],
      "name": "registerNode",
      "outputs": [],
      "payable": true,
      "stateMutability": "payable",
      "type": "function"
    },
    {
      "constant": false,
      "inputs": [
        {
          "name": "_url",
          "type": "string"
        },
        {
          "name": "_props",
          "type": "uint64"
        },
        {
          "name": "_timeout",
          "type": "uint64"
        },
        {
          "name": "_signer",
          "type": "address"
        },
        {
          "name": "_weight",
          "type": "uint64"
        },
        {
          "name": "_v",
          "type": "uint8"
        },
        {
          "name": "_r",
          "type": "bytes32"
        },
        {
          "name": "_s",
          "type": "bytes32"
        }
      ],
      "name": "registerNodeFor",
      "outputs": [],
      "payable": true,
      "stateMutability": "payable",
      "type": "function"
    },
    {
      "constant": false,
      "inputs": [
        {
          "name": "_signer",
          "type": "address"
        }
      ],
      "name": "returnDeposit",
      "outputs": [],
      "payable": false,
      "stateMutability": "nonpayable",
      "type": "function"
    },
    {
      "constant": false,
      "inputs": [
        {
          "name": "_signer",
          "type": "address"
        },
        {
          "name": "_blockhash",
          "type": "bytes32"
        },
        {
          "name": "_blockNumber",
          "type": "uint256"
        },
        {
          "name": "_v",
          "type": "uint8"
        },
        {
          "name": "_r",
          "type": "bytes32"
        },
        {
          "name": "_s",
          "type": "bytes32"
        }
      ],
      "name": "revealConvict",
      "outputs": [],
      "payable": false,
      "stateMutability": "nonpayable",
      "type": "function"
    },
    {
      "constant": false,
      "inputs": [
        {
          "name": "_signer",
          "type": "address"
        },
        {
          "name": "_newOwner",
          "type": "address"
        }
      ],
      "name": "transferOwnership",
      "outputs": [],
      "payable": false,
      "stateMutability": "nonpayable",
      "type": "function"
    },
    {
      "constant": false,
      "inputs": [
        {
          "name": "_signer",
          "type": "address"
        }
      ],
      "name": "unregisteringNode",
      "outputs": [],
      "payable": false,
      "stateMutability": "nonpayable",
      "type": "function"
    },
    {
      "constant": false,
      "inputs": [
        {
          "name": "_signer",
          "type": "address"
        },
        {
          "name": "_url",
          "type": "string"
        },
        {
          "name": "_props",
          "type": "uint64"
        },
        {
          "name": "_timeout",
          "type": "uint64"
        },
        {
          "name": "_weight",
          "type": "uint64"
        }
      ],
      "name": "updateNode",
      "outputs": [],
      "payable": true,
      "stateMutability": "payable",
      "type": "function"
    },
    {
      "constant": true,
      "inputs": [],
      "name": "totalNodes",
      "outputs": [
        {
          "name": "",
          "type": "uint256"
        }
      ],
      "payable": false,
      "stateMutability": "view",
      "type": "function"
    }
  ],
  "bytecode": "0x608060405234801561001057600080fd5b506040516134743803806134748339818101604052602081101561003357600080fd5b5051600160a060020a0381166100aa57604080517f08c379a000000000000000000000000000000000000000000000000000000000815260206004820152601360248201527f6e6f20616464726573732070726f766964656400000000000000000000000000604482015290519081900360640190fd5b60028054600160a060020a03909216600160a060020a0319928316179055426301e1338001600355604080516c01000000000000000000000000300260208083019190915243600019014060348084019190915283518084039091018152605490920190925280519101206001556004805490911633179055613342806101326000396000f3fe60806040526004361061012e5760003560e060020a90048063a82a2653116100af578063d402353e11610073578063d402353e146105cf578063de7dda7414610623578063e1e158a514610670578063ea42406414610685578063ecf55ad514610711578063ffa1ad74146107265761012e565b8063a82a265314610455578063ac4898731461048e578063bdef93031461053f578063c2db4dda14610572578063c64751bd146105a55761012e565b80631c53c280116100f65780631c53c280146102c6578063607e7000146103bf5780636d435421146103f0578063701ccdef1461042b5780639592d424146104405761012e565b80630224db0f1461013357806304ef898d146101d157806315266987146101f85780631a91a0ab1461020d5780631b401f6514610293575b600080fd5b6101cf600480360360a081101561014957600080fd5b600160a060020a03823516919081019060408101602082013564010000000081111561017457600080fd5b82018360208201111561018657600080fd5b803590602001918460018302840111640100000000831117156101a857600080fd5b919350915067ffffffffffffffff813581169160208101358216916040909101351661073b565b005b3480156101dd57600080fd5b506101e6610e69565b60408051918252519081900360200190f35b34801561020457600080fd5b506101e6610e6f565b34801561021957600080fd5b506102406004803603602081101561023057600080fd5b5035600160a060020a0316610e7c565b6040805167ffffffffffffffff87168152600160a060020a038616602082015290810184600381111561026f57fe5b60ff1681526020018381526020018281526020019550505050505060405180910390f35b34801561029f57600080fd5b506101cf600480360360208110156102b657600080fd5b5035600160a060020a0316610ec2565b3480156102d257600080fd5b506102f0600480360360208110156102e957600080fd5b50356111ab565b6040805160208082018a905267ffffffffffffffff808a169383019390935287831660608301526001608060020a038716608083015291851660a0820152600160a060020a03841660c082015260e081018390526101008082528a51908201528951909182916101208301918c019080838360005b8381101561037d578181015183820152602001610365565b50505050905090810190601f1680156103aa5780820380516001836020036101000a031916815260200191505b50995050505050505050505060405180910390f35b3480156103cb57600080fd5b506103d46112ac565b60408051600160a060020a039092168252519081900360200190f35b3480156103fc57600080fd5b506101cf6004803603604081101561041357600080fd5b50600160a060020a03813581169160200135166112bb565b34801561043757600080fd5b506101e6611553565b34801561044c57600080fd5b506101e6611559565b34801561046157600080fd5b506101e66004803603604081101561047857600080fd5b50600160a060020a038135169060200135611560565b6101cf60048036036101008110156104a557600080fd5b8101906020810181356401000000008111156104c057600080fd5b8201836020820111156104d257600080fd5b803590602001918460018302840111640100000000831117156104f457600080fd5b919350915067ffffffffffffffff81358116916020810135821691600160a060020a036040830135169160608101359091169060ff6080820135169060a08101359060c0013561157d565b34801561054b57600080fd5b506101cf6004803603602081101561056257600080fd5b5035600160a060020a0316611860565b34801561057e57600080fd5b506101cf6004803603602081101561059557600080fd5b5035600160a060020a0316611a71565b3480156105b157600080fd5b506101cf600480360360208110156105c857600080fd5b5035611d95565b3480156105db57600080fd5b506101cf600480360360c08110156105f257600080fd5b50600160a060020a038135169060208101359060408101359060ff6060820135169060808101359060a00135611db3565b34801561062f57600080fd5b5061064d6004803603602081101561064657600080fd5b503561239b565b604080519215158352600160a060020a0390911660208301528051918290030190f35b34801561067c57600080fd5b506101e66123c0565b6101cf6004803603608081101561069b57600080fd5b8101906020810181356401000000008111156106b657600080fd5b8201836020820111156106c857600080fd5b803590602001918460018302840111640100000000831117156106ea57600080fd5b919350915067ffffffffffffffff81358116916020810135821691604090910135166123cb565b34801561071d57600080fd5b506103d4612412565b34801561073257600080fd5b506101e6612421565b85610744612f96565b600160a060020a03828116600090815260056020908152604091829020825160a081018452815467ffffffffffffffff81168252604060020a8104909516928101929092529092909183019060e060020a900460ff1660038111156107a557fe5b60038111156107b057fe5b81526001828101546020830152600290920154604090910152909150816040015160038111156107dc57fe5b1461081f576040805160e560020a62461bcd02815260206004820152601c602482015260008051602061326b833981519152604482015290519081900360640190fd5b81600160a060020a0316600082608001518154811061083a57fe5b6000918252602090912060059091020160030154604060020a9004600160a060020a03161461086557fe5b61086d612f96565b600160a060020a03898116600090815260056020908152604091829020825160a081018452815467ffffffffffffffff81168252604060020a8104909516928101929092529092909183019060e060020a900460ff1660038111156108ce57fe5b60038111156108d957fe5b815260200160018201548152602001600282015481525050905033600160a060020a03168160200151600160a060020a031614610960576040805160e560020a62461bcd02815260206004820152601260248201527f6f6e6c7920666f7220746865206f776e65720000000000000000000000000000604482015290519081900360640190fd5b60008082608001518154811061097257fe5b906000526020600020906005020190506000898960405180838380828437604051920182900382208754909650600095508794509192508291849150600260001961010060018416150201909116048015610a045780601f106109e2576101008083540402835291820191610a04565b820191906000526020600020905b8154815290600101906020018083116109f0575b505091505060405180910390209050808214610b2a5760008281526006602052604090205460ff1615610a81576040805160e560020a62461bcd02815260206004820152601560248201527f75726c20697320616c726561647920696e207573650000000000000000000000604482015290519081900360640190fd5b610a89612fc5565b600181526003840154600160a060020a03604060020a9091048116602080840191825260008681526006909152604090208351815492519093166101000274ffffffffffffffffffffffffffffffffffffffff001993151560ff199093169290921792909216179055610afd848d8d612fdc565b50506000818152600660205260409020805474ffffffffffffffffffffffffffffffffffffffffff191690555b3415610b3b57600183018054340190555b610b4983600101548961242b565b6002830154608060020a90046001608060020a031667ffffffffffffffff8a1614610b92576002830180546001608060020a031667ffffffffffffffff8b16608060020a021790555b600283015467ffffffffffffffff9081169089161115610bd05760028301805467ffffffffffffffff191667ffffffffffffffff8a16179055610c38565b600283015467ffffffffffffffff898116911614610c38576040805160e560020a62461bcd02815260206004820181905260248201527f64656372656173696e672074696d656f7574206e6f7420737570706f72746564604482015290519081900360640190fd5b600383015467ffffffffffffffff888116911614610c705760038301805467ffffffffffffffff191667ffffffffffffffff89161790555b60408051845460206002610100600184161581026000190190931604601f81018290049091028301610120908101909452908201818152610d7e938792849291849190840182828015610d045780601f10610cd957610100808354040283529160200191610d04565b820191906000526020600020905b815481529060010190602001808311610ce757829003601f168201915b505050918352505060018201546020820152600282015467ffffffffffffffff8082166040840152604060020a80830482166060850152608060020a9092046001608060020a03166080840152600384015490811660a084015204600160a060020a031660c082015260049091015460e0909101526124ff565b60048401556001808401546040805167ffffffffffffffff8d166020820152339181018290526060810183905260808082528754600295811615610100026000190116949094049381018490527f19149f5697dd17986237a17af2606dd1db47143ad31215d628afb240b5c2422e9387938e93929091819060a082019087908015610e4a5780601f10610e1f57610100808354040283529160200191610e4a565b820191906000526020600020905b815481529060010190602001808311610e2d57829003601f168201915b50509550505050505060405180910390a1505050505050505050505050565b60015481565b6802b5e3af16b188000081565b60056020526000908152604090208054600182015460029092015467ffffffffffffffff821692604060020a8304600160a060020a03169260e060020a900460ff169185565b80610ecb612f96565b600160a060020a03828116600090815260056020908152604091829020825160a081018452815467ffffffffffffffff81168252604060020a8104909516928101929092529092909183019060e060020a900460ff166003811115610f2c57fe5b6003811115610f3757fe5b8152600182810154602083015260029092015460409091015290915081604001516003811115610f6357fe5b14610fa6576040805160e560020a62461bcd02815260206004820152601c602482015260008051602061326b833981519152604482015290519081900360640190fd5b81600160a060020a03166000826080015181548110610fc157fe5b6000918252602090912060059091020160030154604060020a9004600160a060020a031614610fec57fe5b600160a060020a038316600090815260056020526040902061100c61305a565b600082600201548154811061101d57fe5b60009182526020918290206040805160059390930290910180546002610100600183161581026000190190921604601f810186900490950284016101209081019093528301848152929390928492909184918401828280156110c05780601f10611095576101008083540402835291602001916110c0565b820191906000526020600020905b8154815290600101906020018083116110a357829003601f168201915b505050918352505060018201546020820152600282015467ffffffffffffffff8082166040840152604060020a80830482166060850152608060020a9092046001608060020a03166080840152600384015490811660a0840152819004600160a060020a0390811660c084015260049093015460e0909201919091528454929350339204161461119a576040805160e560020a62461bcd02815260206004820152601b60248201527f6f6e6c7920666f722074686520696e332d6e6f6465206f776e65720000000000604482015290519081900360640190fd5b6111a48282612623565b5050505050565b600081815481106111b857fe5b60009182526020918290206005919091020180546040805160026001841615610100026000190190931692909204601f8101859004850283018501909152808252919350918391908301828280156112515780601f1061122657610100808354040283529160200191611251565b820191906000526020600020905b81548152906001019060200180831161123457829003601f168201915b505050506001830154600284015460038501546004909501549394919367ffffffffffffffff8083169450604060020a808404821694608060020a9094046001608060020a031693918216929104600160a060020a03169088565b600454600160a060020a031681565b816112c4612f96565b600160a060020a03828116600090815260056020908152604091829020825160a081018452815467ffffffffffffffff81168252604060020a8104909516928101929092529092909183019060e060020a900460ff16600381111561132557fe5b600381111561133057fe5b815260018281015460208301526002909201546040909101529091508160400151600381111561135c57fe5b1461139f576040805160e560020a62461bcd02815260206004820152601c602482015260008051602061326b833981519152604482015290519081900360640190fd5b81600160a060020a031660008260800151815481106113ba57fe5b6000918252602090912060059091020160030154604060020a9004600160a060020a0316146113e557fe5b600160a060020a03808516600090815260056020526040902080549091604060020a909104163314611461576040805160e560020a62461bcd02815260206004820152601b60248201527f6f6e6c7920666f722074686520696e332d6e6f6465206f776e65720000000000604482015290519081900360640190fd5b600160a060020a0384166114bf576040805160e560020a62461bcd02815260206004820152601660248201527f307830206164647265737320697320696e76616c696400000000000000000000604482015290519081900360640190fd5b805460408051600160a060020a038089168252604060020a9093048316602082015291861682820152517fc9c065a583ca07c50dabe212e03f5c8f67ac75a99544c771e7222650481ea35b9181900360600190a18054600160a060020a03909416604060020a027bffffffffffffffffffffffffffffffffffffffff00000000000000001990941693909317909255505050565b60035481565b6000545b90565b600760209081526000928352604080842090915290825290205481565b60606040518060400160405280601c81526020017f19457468657265756d205369676e6564204d6573736167653a0a333200000000815250905060008a8a8a8a893360405160200180878780828437808301925050508567ffffffffffffffff1667ffffffffffffffff1660c060020a0281526008018467ffffffffffffffff1667ffffffffffffffff1660c060020a0281526008018367ffffffffffffffff1667ffffffffffffffff1660c060020a02815260080182600160a060020a0316600160a060020a03166c010000000000000000000000000281526014019650505050505050604051602081830303815290604052805190602001209050600082826040516020018083805190602001908083835b602083106116b05780518252601f199092019160209182019101611691565b51815160209384036101000a6000190180199092169116179052920193845250604080518085038152938201905282519201919091209250505060ff8616601b14806116ff57508560ff16601c145b611753576040805160e560020a62461bcd02815260206004820152601160248201527f696e76616c6964207369676e6174757265000000000000000000000000000000604482015290519081900360640190fd5b604080516000808252602080830180855285905260ff8a168385015260608301899052608083018890529251909260019260a080820193601f1981019281900390910190855afa1580156117ab573d6000803e3d6000fd5b50505060206040510351905080600160a060020a031689600160a060020a03161461180a5760405160e560020a62461bcd0281526004018080602001828103825260308152602001806132b16030913960400191505060405180910390fd5b6118518d8d8080601f0160208091040260200160405190810160405280939291908181526020018383808284376000920191909152508f92508e91508d905033348e6126a0565b50505050505050505050505050565b600160a060020a03811660009081526005602052604090206003815460e060020a900460ff16600381111561189157fe5b146118e6576040805160e560020a62461bcd02815260206004820152601860248201527f6e6f7420696e2074686520636f72726563742073746174650000000000000000604482015290519081900360640190fd5b8054604060020a9004600160a060020a0316331461194e576040805160e560020a62461bcd02815260206004820152601c60248201527f6f6e6c79206f776e65722063616e20636c61696d206465706f73697400000000604482015290519081900360640190fd5b805467ffffffffffffffff1642116119b0576040805160e560020a62461bcd02815260206004820152601460248201527f6465706f736974207374696c6c206c6f636b6564000000000000000000000000604482015290519081900360640190fd5b600180820154600160a060020a038416600090815260056020908152604080832080547fffffff00000000000000000000000000000000000000000000000000000000001681559485018390556002909401919091558251338152908101829052825191927f8a2e50dc482de7e2de602167110ceae9fd84085aedd24cfee0818612c8592c1292918290030190a1604051339082156108fc029083906000818181858888f19350505050158015611a6b573d6000803e3d6000fd5b50505050565b80611a7a612f96565b600160a060020a03828116600090815260056020908152604091829020825160a081018452815467ffffffffffffffff81168252604060020a8104909516928101929092529092909183019060e060020a900460ff166003811115611adb57fe5b6003811115611ae657fe5b8152600182810154602083015260029092015460409091015290915081604001516003811115611b1257fe5b14611b55576040805160e560020a62461bcd02815260206004820152601c602482015260008051602061326b833981519152604482015290519081900360640190fd5b81600160a060020a03166000826080015181548110611b7057fe5b6000918252602090912060059091020160030154604060020a9004600160a060020a031614611b9b57fe5b6003544210611bf4576040805160e560020a62461bcd02815260206004820152601060248201527f6f6e6c7920696e20317374207965617200000000000000000000000000000000604482015290519081900360640190fd5b600454600160a060020a03163314611c405760405160e560020a62461bcd02815260040180806020018281038252602d8152602001806132e1602d913960400191505060405180910390fd5b600160a060020a0383166000908152600560205260409020611c6061305a565b6000826002015481548110611c7157fe5b60009182526020918290206040805160059390930290910180546002610100600183161581026000190190921604601f81018690049095028401610120908101909352830184815292939092849290918491840182828015611d145780601f10611ce957610100808354040283529160200191611d14565b820191906000526020600020905b815481529060010190602001808311611cf757829003601f168201915b505050918352505060018201546020820152600282015467ffffffffffffffff8082166040840152604060020a80830482166060850152608060020a9092046001608060020a03166080840152600384015490811660a084015204600160a060020a031660c082015260049091015460e09091015290506111a48282612623565b33600090815260076020908152604080832093835292905220439055565b600160a060020a03861660009081526005602052604090206002815460e060020a900460ff166003811115611de457fe5b1415611e3a576040805160e560020a62461bcd02815260206004820152601660248201527f6e6f646520616c726561647920636f6e76696374656400000000000000000000604482015290519081900360640190fd5b844080611ed557600254604080517fe877b873000000000000000000000000000000000000000000000000000000008152600481018990529051600160a060020a039092169163e877b87391602480820192602092909190829003018186803b158015611ea657600080fd5b505afa158015611eba573d6000803e3d6000fd5b505050506040513d6020811015611ed057600080fd5b505190505b80611f2a576040805160e560020a62461bcd02815260206004820152600f60248201527f626c6f636b206e6f7420666f756e640000000000000000000000000000000000604482015290519081900360640190fd5b86811415611f6c5760405160e560020a62461bcd02815260040180806020018281038252602681526020018061328b6026913960400191505060405180910390fd5b6040805160208082018a9052336c0100000000000000000000000081028385015260ff89167f01000000000000000000000000000000000000000000000000000000000000000260548401526055830188905260758084018890528451808503909101815260959093018452825192820192909220600092835260078252838320818452909152919020548061204c576040805160e560020a62461bcd02815260206004820152601260248201527f77726f6e6720636f6e7669637420686173680000000000000000000000000000604482015290519081900360640190fd5b806002014310156120a7576040805160e560020a62461bcd02815260206004820152601a60248201527f72657665616c436f6e76696374207374696c6c206c6f636b6564000000000000604482015290519081900360640190fd5b8660ff16601b14806120bc57508660ff16601c145b612110576040805160e560020a62461bcd02815260206004820152600f60248201527f77726f6e67207369676e61747572650000000000000000000000000000000000604482015290519081900360640190fd5b89600160a060020a031660018a8a6001546040516020018084815260200183815260200182815260200193505050506040516020818303038152906040528051906020012089898960405160008152602001604052604051808581526020018460ff1660ff1681526020018381526020018281526020019450505050506020604051602081039080840390855afa1580156121af573d6000803e3d6000fd5b50505060206040510351600160a060020a0316146122015760405160e560020a62461bcd0281526004018080602001828103825260328152602001806132396032913960400191505060405180910390fd5b60408051600160a060020a038c16815290517f99cf870e2c7ee878455cc590c43877ba030304a8a5dd703bcfbd5c4822009f789181900360200190a160006001855460e060020a900460ff16600381111561225857fe5b14156122db578a600160a060020a0316600086600201548154811061227957fe5b6000918252602090912060059091020160030154604060020a9004600160a060020a0316146122a457fe5b60008560020154815481106122b557fe5b90600052602060002090600502016001015490506122d68560020154612b11565b6122f7565b506001840180546000909155845467ffffffffffffffff191685555b84547cff0000000000000000000000000000000000000000000000000000000019167c02000000000000000000000000000000000000000000000000000000001785556040516002820490339082156108fc029083906000818181858888f1935050505015801561236c573d6000803e3d6000fd5b5060405160009082840380156108fc029183818181858288f19350505050158015611851573d6000803e3d6000fd5b60066020526000908152604090205460ff8116906101009004600160a060020a031682565b662386f26fc1000081565b6111a485858080601f0160208091040260200160405190810160405280939291908181526020018383808284376000920191909152508792508691503390508034876126a0565b600254600160a060020a031681565b650b2fd2558df581565b600354421015612495576802b5e3af16b18800008210612495576040805160e560020a62461bcd02815260206004820152601760248201527f4c696d6974206f66203530204554482072656163686564000000000000000000604482015290519081900360640190fd5b6301e133808167ffffffffffffffff1611156124fb576040805160e560020a62461bcd02815260206004820152601860248201527f6578636565646564206d6178696d756d2074696d656f75740000000000000000604482015290519081900360640190fd5b5050565b600081602001518260400151836060015184608001518560c001518660000151604051602001808781526020018667ffffffffffffffff1667ffffffffffffffff1660c060020a0281526008018567ffffffffffffffff1667ffffffffffffffff1660c060020a028152600801846001608060020a03166001608060020a0316608060020a02815260100183600160a060020a0316600160a060020a03166c0100000000000000000000000002815260140182805190602001908083835b602083106125dc5780518252601f1990920191602091820191016125bd565b6001836020036101000a0380198251168184511680821785525050505050509050019650505050505050604051602081830303815290604052805190602001209050919050565b604081015182546020830151600185015567ffffffffffffffff191667ffffffffffffffff9182164201909116177cff0000000000000000000000000000000000000000000000000000000019167c030000000000000000000000000000000000000000000000000000000017825560028201546124fb90612b11565b662386f26fc100008210156126ff576040805160e560020a62461bcd02815260206004820152601260248201527f6e6f7420656e6f756768206465706f7369740000000000000000000000000000604482015290519081900360640190fd5b610e108567ffffffffffffffff161015612763576040805160e560020a62461bcd02815260206004820152601160248201527f74696d656f757420746f6f20736d616c6c000000000000000000000000000000604482015290519081900360640190fd5b61276d828661242b565b86516020808901919091206000818152600690925260409091205460ff161580156127c557506000600160a060020a03861660009081526005602052604090205460e060020a900460ff1660038111156127c357fe5b145b6128035760405160e560020a62461bcd0281526004018080602001828103825260388152602001806132016038913960400191505060405180910390fd5b600160a060020a03858116600090815260056020526040812080547cff00000000000000000000000000000000000000000000000000000000191660e060020a1780825591546002820155918616604060020a027bffffffffffffffffffffffffffffffffffffffff00000000000000001990911617905561288361305a565b88815267ffffffffffffffff8089166080830152600160a060020a03871660c08301526020820185905287811660408301524281166060830152831660a08201526128cd816124ff565b60e082015260008054600181018083559180528251805184926005027f290decd9548b62a8d60345a988386fc84ba6bc95484008f6362f93160ef3e563019161291b9183916020019061309e565b506020820151600182015560408201516002820180546060850151608086015167ffffffffffffffff1992831667ffffffffffffffff958616176fffffffffffffffff00000000000000001916604060020a9286168302176001608060020a03908116608060020a91909216021790925560a085015160038501805460c0880151931691909416177bffffffffffffffffffffffffffffffffffffffff00000000000000001916600160a060020a0390911690910217905560e090910151600490910155506129e8612fc5565b60018152600160a060020a038781166020808401828152600087815260068352604080822087518154945160ff199095169015151774ffffffffffffffffffffffffffffffffffffffff001916610100949097169390930295909517909155835167ffffffffffffffff8e1681840152938401929092526060830188905260808084528d51908401528c517f1ca262a77ac17942055c2ff991000041865fc4fe608b39c1f3c1073199656510938e938e938d938c9392839260a0840192908901918190849084905b83811015612ac8578181015183820152602001612ab0565b50505050905090810190601f168015612af55780820380516001836020036101000a031916815260200191505b509550505050505060405180910390a150505050505050505050565b6000548110612b6a576040805160e560020a62461bcd02815260206004820152601b60248201527f696e76616c6964206e6f646520696e6465782070726f76696465640000000000604482015290519081900360640190fd5b7f78267f80e41fea0cce6d47208671d5c1d990b9fdaefd72a3989de95cde34bc6260008281548110612b9857fe5b906000526020600020906005020160000160008381548110612bb657fe5b6000918252602091829020600591909102016003015460408051604060020a909204600160a060020a03169282018390528082528354600261010060018316150260001901909116049082018190528190606082019085908015612c5b5780601f10612c3057610100808354040283529160200191612c5b565b820191906000526020600020905b815481529060010190602001808311612c3e57829003601f168201915b5050935050505060405180910390a160066000808381548110612c7a57fe5b90600052602060002090600502016000016040518082805460018160011615610100020316600290048015612ce65780601f10612cc4576101008083540402835291820191612ce6565b820191906000526020600020905b815481529060010190602001808311612cd2575b50506040805191829003909120845260208401949094525050016000908120805474ffffffffffffffffffffffffffffffffffffffffff191690555480612d2957fe5b612d3161305a565b60006001830381548110612d4157fe5b60009182526020918290206040805160059390930290910180546002610100600183161581026000190190921604601f81018690049095028401610120908101909352830184815292939092849290918491840182828015612de45780601f10612db957610100808354040283529160200191612de4565b820191906000526020600020905b815481529060010190602001808311612dc757829003601f168201915b505050918352505060018201546020820152600282015467ffffffffffffffff8082166040840152604060020a80830482166060850152608060020a9092046001608060020a03166080840152600384015490811660a084015204600160a060020a031660c082015260049091015460e09091015260008054919250829185908110612e6c57fe5b90600052602060002090600502016000820151816000019080519060200190612e9692919061309e565b506020828101516001830155604080840151600280850180546060880151608089015167ffffffffffffffff1992831667ffffffffffffffff968716176fffffffffffffffff00000000000000001916604060020a9287168302176001608060020a03908116608060020a91909216021790925560a088015160038801805460c0808c01519190941692909616919091177bffffffffffffffffffffffffffffffffffffffff00000000000000001916600160a060020a039586169093029290921790915560e0909601516004909501949094559385015190931660009081526005909152918220908101859055815490916111a490600019830161310c565b6040805160a0810182526000808252602082018190529091820190815260200160008152602001600081525090565b604080518082019091526000808252602082015290565b828054600181600116156101000203166002900490600052602060002090601f016020900481019282601f1061301d5782800160ff1982351617855561304a565b8280016001018555821561304a579182015b8281111561304a57823582559160200191906001019061302f565b5061305692915061313d565b5090565b6040805161010081018252606080825260006020830181905292820183905281018290526080810182905260a0810182905260c0810182905260e081019190915290565b828054600181600116156101000203166002900490600052602060002090601f016020900481019282601f106130df57805160ff191683800117855561304a565b8280016001018555821561304a579182015b8281111561304a5782518255916020019190600101906130f1565b815481835581811115613138576005028160050283600052602060002091820191016131389190613157565b505050565b61155d91905b808211156130565760008155600101613143565b61155d91905b8082111561305657600061317182826131b9565b50600060018201819055600282018190556003820180547fffffffff00000000000000000000000000000000000000000000000000000000169055600482015560050161315d565b50805460018160011615610100020316600290046000825580601f106131df57506131fd565b601f0160209004906000526020600020908101906131fd919061313d565b5056fe61206e6f64652077697468207468652073616d652075726c206f72207369676e657220697320616c7265616479207265676973746572656474686520626c6f636b20776173206e6f74207369676e656420627920746865207369676e6572206f6620746865206e6f646561646472657373206973206e6f7420616e20696e332d7369676e657200000000796f752074727920746f20636f6e766963742077697468206120636f727265637420686173686e6f742074686520636f7272656374207369676e6174757265206f6620746865207369676e65722070726f76696465646f6e6c7920756e72656769737465724b657920697320616c6c6f77656420746f2072656d6f7665206e6f646573a265627a7a72305820723e3fe6c50ef09ee71f24f109aa2e9b810e13a6d0766040d1bc6b6e6679cf2064736f6c634300050a0032",
  "source": "/***********************************************************\n* This file is part of the Slock.it IoT Layer.             *\n* The Slock.it IoT Layer contains:                         *\n*   - USN (Universal Sharing Network)                      *\n*   - INCUBED (Trustless INcentivized remote Node Network) *\n************************************************************\n* Copyright (C) 2016 - 2018 Slock.it GmbH                  *\n* All Rights Reserved.                                     *\n************************************************************\n* You may use, distribute and modify this code under the   *\n* terms of the license contract you have concluded with    *\n* Slock.it GmbH.                                           *\n* For information about liability, maintenance etc. also   *\n* refer to the contract concluded with Slock.it GmbH.      *\n************************************************************\n* For more information, please refer to https://slock.it   *\n* For questions, please contact info@slock.it              *\n***********************************************************/\n\npragma solidity 0.5.10;\n\nimport \"./BlockhashRegistry.sol\";\n\n\n/// @title Registry for IN3-nodes\ncontract NodeRegistry {\n\n    /// node has been registered\n    event LogNodeRegistered(string url, uint props, address signer, uint deposit);\n\n    /// a node was convicted\n    event LogNodeConvicted(address signer);\n\n    /// a Node is removed\n    event LogNodeRemoved(string url, address signer);\n\n    /// a node has been updated\n    event LogNodeUpdated(string url, uint props, address signer, uint deposit);\n\n    /// the ownership of a node changed\n    event LogOwnershipChanged(address signer, address oldOwner, address newOwner);\n\n    /// a user received its deposit back\n    event LogDepositReturned(address nodeOwner, uint amount);\n\n    struct In3Node {\n        string url;                         /// the url of the node\n\n        uint deposit;                       /// stored deposit\n\n        uint64 timeout;                     /// timeout after which the owner is allowed to receive his stored deposit\n        uint64 registerTime;                /// timestamp when the node was registered\n        uint128 props;                       /// a list of properties-flags representing the capabilities of the node\n\n        uint64 weight;                      ///  the flag for (future) incentivisation\n        address signer;                     /// the signer for requests\n\n        bytes32 proofHash;                  /// keccak(deposit,timeout,registerTime,props,signer,url)\n    }\n\n    /// information of a in3-node owner\n    struct SignerInformation {\n        uint64 lockedTime;                  /// timestamp until the deposit of an in3-node can not be withdrawn after the node was removed\n        address owner;                      /// the owner of the node\n\n        Stages stage;                       /// state of the address\n\n        uint depositAmount;                 /// amount of deposit to be locked, used only after a node had been removed\n\n        uint index;                         /// current index-position of the node in the node-array\n    }\n\n    /// information of an url\n    struct UrlInformation {\n        bool used;                          /// flag whether the url is currently used\n        address signer;                     /// address of the owner of the url\n    }\n\n    /// Different Stages a node can have\n    enum Stages {\n        NotInUse,                           /// node is not in use, so a new node with the same address can be registered\n        Active,                             /// node is active, so a new node with the same address cannot be registered\n        Convicted,                          /// node is convited, so he is inactive, but cannot be registered anymore\n        DepositNotWithdrawn                 /// node is not in use anymore, but still has some deposit stored within the contract\n    }\n\n    /// node list of incubed nodes\n    In3Node[] public nodes;\n\n    /// id used for signing in3-requests and in order to prevent cross-chain convicts\n    /// in case a fork happens there is the possibility that a node can be convicted on the other fork,\n    /// because they would use the very same registryId. Nevertheless we cannot change the registryId.\n    /// So in case of a fork a node should chose one of the forks and unregister his nodes on the others.\n    /// In this case it is also recommend to not sign requests until the node get his deposits from the forked contracts\n    bytes32 public registryId;\n\n    /// add your additional storage here. If you add information before this line you will break in3 nodelist\n\n    /// blockhash registry address\n    BlockhashRegistry public blockRegistry;\n\n    /// timestamp until the unregisterKey is active\n    uint public timestampAdminKeyActive;\n\n    /// admin-key to remove some server, only usable within the 1st year\n    address public unregisterKey;\n\n    /// mapping for information of the owner\n    mapping (address => SignerInformation) public signerIndex;\n\n    /// mapping for the information of the url\n    /// can be used to access the SignerInformation-struct\n    mapping (bytes32 => UrlInformation) public urlIndex;\n\n    /// mapping for convicts: sender => convictHash => block number when the convict-tx had been mined)\n    mapping (address => mapping(bytes32 => uint)) public convictMapping;\n\n    /// capping the max deposit timeout on 1 year\n    uint constant internal YEAR_DEFINITION = 1 days * 365;\n\n    /// limit for ether per node in the 1st year\n    uint constant public MAX_ETHER_LIMIT_FIRST_YEAR = 50 ether;\n\n    /// min deposit required for registering a node\n    uint constant public MIN_DEPOSIT = 10 finney;\n\n    /// version: major minor fork(000) date(yyyy/mm/dd)\n    uint constant public VERSION = 12300020190709;\n\n    modifier onlyActiveState(address _signer) {\n\n        SignerInformation memory si = signerIndex[_signer];\n        require(si.stage == Stages.Active, \"address is not an in3-signer\");\n\n        assert(nodes[si.index].signer == _signer);\n        _;\n    }\n\n    /// @notice constructor\n    /// @param _blockRegistry address of a BlockhashRegistry-contract\n    /// @dev cannot be deployed in a genesis block\n    constructor(BlockhashRegistry _blockRegistry) public {\n\n        require(address(_blockRegistry) != address(0x0), \"no address provided\");\n        blockRegistry = _blockRegistry;\n\n        // solium-disable-next-line security/no-block-members\n        timestampAdminKeyActive = block.timestamp + YEAR_DEFINITION;  // solhint-disable-line not-rely-on-time\n        registryId = keccak256(abi.encodePacked(address(this), blockhash(block.number-1)));\n        unregisterKey = msg.sender;\n    }\n\n    /// @notice removes an in3-server from the registry\n    /// @param _signer the signer-address of the in3-node\n    /// @dev only callable by the unregisterKey-account\n    /// @dev only callable in the 1st year after deployment\n    function adminRemoveNodeFromRegistry(address _signer)\n        external\n        onlyActiveState(_signer)\n    {\n\n        // solium-disable-next-line security/no-block-members\n        require(block.timestamp < timestampAdminKeyActive, \"only in 1st year\");// solhint-disable-line not-rely-on-time\n        require(msg.sender == unregisterKey, \"only unregisterKey is allowed to remove nodes\");\n\n        SignerInformation storage si = signerIndex[_signer];\n        In3Node memory n = nodes[si.index];\n\n        _unregisterNodeInternal(si, n);\n\n    }\n\n    /// @notice commits a blocknumber and a hash\n    /// @notice must be called before revealConvict\n    /// @param _hash keccak256(wrong blockhash, msg.sender, v, r, s); used to prevent frontrunning.\n    /// @dev The v,r,s paramaters are from the signature of the wrong blockhash that the node provided\n    function convict(bytes32 _hash) external {\n        convictMapping[msg.sender][_hash] = block.number;\n    }\n\n    /// @notice register a new node with the sender as owner\n    /// @param _url the url of the node, has to be unique\n    /// @param _props properties of the node\n    /// @param _timeout timespan of how long the node of a deposit will be locked. Will be at least for 1h\n    /// @param _weight how many requests per second the node is able to handle\n    /// @dev will call the registerNodeInteral function\n    function registerNode(\n        string calldata _url,\n        uint64 _props,\n        uint64 _timeout,\n        uint64 _weight\n    )\n        external\n        payable\n    {\n        _registerNodeInternal(\n            _url,\n            _props,\n            _timeout,\n            msg.sender,\n            msg.sender,\n            msg.value,\n            _weight\n        );\n    }\n\n    /// @notice register a new node as a owner using a different signer address\n    /// @param _url the url of the node, has to be unique\n    /// @param _props properties of the node\n    /// @param _timeout timespan of how long the node of a deposit will be locked. Will be at least for 1h\n    /// @param _signer the signer of the in3-node\n    /// @param _weight how many requests per second the node is able to handle\n    /// @param _v v of the signed message\n    /// @param _r r of the signed message\n    /// @param _s s of the signed message\n    /// @dev will call the registerNodeInteral function\n    /// @dev in order to prove that the owner has controll over the signer-address he has to sign a message\n    /// @dev which is calculated by the hash of the url, properties, timeout, weight and the owner\n    /// @dev will revert when a wrong signature has been provided\n    function registerNodeFor(\n        string calldata _url,\n        uint64 _props,\n        uint64 _timeout,\n        address _signer,\n        uint64 _weight,\n        uint8 _v,\n        bytes32 _r,\n        bytes32 _s\n    )\n        external\n        payable\n    {\n\n        bytes memory prefix = \"\\x19Ethereum Signed Message:\\n32\";\n        bytes32 tempHash = keccak256(\n            abi.encodePacked(\n                _url,\n                _props,\n                _timeout,\n                _weight,\n                msg.sender\n            )\n        );\n        bytes32 prefixedHash = keccak256(abi.encodePacked(prefix, tempHash));\n\n        require(_v == 27 || _v == 28, \"invalid signature\");\n\n        address signer = ecrecover(\n            prefixedHash,\n            _v,\n            _r,\n            _s\n        );\n\n        require(_signer == signer, \"not the correct signature of the signer provided\");\n\n        _registerNodeInternal(\n            _url,\n            _props,\n            _timeout,\n            _signer,\n            msg.sender,\n            msg.value,\n            _weight\n        );\n    }\n\n    /// @notice returns the deposit after a node has been removed due to inactivity\n    /// @notice only callable after the timeout of the deposit is over\n    /// @param _signer the signer-address of a former in3-node\n    /// @dev reverts when not the owner of the former in3-node\n    /// @dev reverts when there is nothing to transfer\n    /// @dev reverts if the deposit is still locked\n    function returnDeposit(address _signer) external {\n\n        SignerInformation storage si = signerIndex[_signer];\n\n        require(si.stage == Stages.DepositNotWithdrawn, \"not in the correct state\");\n        require(si.owner == msg.sender, \"only owner can claim deposit\");\n\n        // solium-disable-next-line security/no-block-members\n        require(block.timestamp > si.lockedTime, \"deposit still locked\"); // solhint-disable-line not-rely-on-time\n\n        uint payout = si.depositAmount;\n        delete signerIndex[_signer];\n\n        emit LogDepositReturned(msg.sender, payout);\n\n        msg.sender.transfer(payout);\n    }\n\n    /// @notice reveals the wrongly provided blockhash, so that the node-owner will lose its deposit\n    /// @param _signer the address that signed the wrong blockhash\n    /// @param _blockhash the wrongly provided blockhash\n    /// @param _blockNumber number of the wrongly provided blockhash\n    /// @param _v v of the signature\n    /// @param _r r of the signature\n    /// @param _s s of the signature\n    /// @dev reverts if a block with that number cannot be found in either the latest 256 blocks or the blockhash registry\n    /// @dev reverts when tryin to convict someone with a correct blockhash\n    /// @dev reverts when trying to reveal immediately after calling convict\n    /// @dev reverts when the _signer did not sign the block\n    /// @dev reverts when the wrong convict hash (see convict-function) is used\n    function revealConvict(\n        address _signer,\n        bytes32 _blockhash,\n        uint _blockNumber,\n        uint8 _v,\n        bytes32 _r,\n        bytes32 _s\n    )\n        external\n    {\n        SignerInformation storage si = signerIndex[_signer];\n        require(si.stage != Stages.Convicted, \"node already convicted\");\n\n        // solium-disable-next-line security/no-block-members\n        bytes32 evmBlockhash = blockhash(_blockNumber);\n\n        if (evmBlockhash == 0x0) {\n            evmBlockhash = blockRegistry.blockhashMapping(_blockNumber);\n        }\n\n        require(evmBlockhash != 0x0, \"block not found\");\n\n        // if the blockhash is correct you cannot convict the node\n        require(evmBlockhash != _blockhash, \"you try to convict with a correct hash\");\n\n        bytes32 wrongBlockHashIdent = keccak256(\n            abi.encodePacked(\n                _blockhash, msg.sender, _v, _r, _s\n            )\n        );\n\n        uint convictBlockNumber = convictMapping[msg.sender][wrongBlockHashIdent];\n\n        // as we cannot deploy the contract at block 0, a convicting at block 0 is also impossible\n        // and as 0 is the standard value this also means that the convict hash is also wrong\n        require(convictBlockNumber != 0, \"wrong convict hash\");\n\n        require(block.number >= convictBlockNumber + 2, \"revealConvict still locked\");\n        require(_v == 27 || _v == 28, \"wrong signature\");\n        require(\n            ecrecover(\n                keccak256(\n                    abi.encodePacked(\n                        _blockhash,\n                        _blockNumber,\n                        registryId\n                    )\n                ),\n                _v, _r, _s) == _signer,\n            \"the block was not signed by the signer of the node\");\n\n        emit LogNodeConvicted(_signer);\n\n        uint deposit = 0;\n        // the signer is still active\n        if (si.stage == Stages.Active) {\n            assert(nodes[si.index].signer == _signer);\n            deposit = nodes[si.index].deposit;\n            _removeNodeInternal(si.index);\n        } else {\n            // the signer is not active anymore\n            deposit = si.depositAmount;\n            si.depositAmount = 0;\n            si.lockedTime = 0;\n        }\n\n        si.stage = Stages.Convicted;\n\n        // remove the deposit\n        uint payout = deposit / 2;\n        // send 50% to the caller of this function\n        msg.sender.transfer(payout);\n        // and burn the rest by sending it to the 0x0-address\n        // this is done in order to make it useless trying to convict your own node with a second account\n        // and this getting all the deposit back after signing a wrong hash.\n        address(0).transfer(deposit-payout);\n    }\n\n    /// @notice changes the ownership of an in3-node\n    /// @param _signer the signer-address of the in3-node, used as an identifier\n    /// @param _newOwner the new owner\n    /// @dev reverts when trying to change ownership of an inactive node\n    /// @dev reverts when trying to pass ownership to 0x0\n    /// @dev reverts when the sender is not the current owner\n    /// @dev reverts when inacitivity is claimed\n    function transferOwnership(address _signer, address _newOwner)\n        external\n        onlyActiveState(_signer)\n    {\n        SignerInformation storage si = signerIndex[_signer];\n        require(si.owner == msg.sender, \"only for the in3-node owner\");\n\n        require(_newOwner != address(0x0), \"0x0 address is invalid\");\n        emit LogOwnershipChanged(_signer, si.owner, _newOwner);\n\n        si.owner = _newOwner;\n    }\n\n    /// @notice a node owner can unregister a node, removing it from the nodeList\n    /// @notice doing so will also lock his deposit for the timeout of the node\n    /// @param _signer the signer of the in3-node\n    /// @dev reverts when the provided address is not an in3-signer\n    /// @dev reverts when the node is already unregistering\n    /// @dev reverts when not called by the owner of the node\n    function unregisteringNode(address _signer)\n        external\n        onlyActiveState(_signer)\n    {\n\n        SignerInformation storage si = signerIndex[_signer];\n        In3Node memory n = nodes[si.index];\n        require(si.owner == msg.sender, \"only for the in3-node owner\");\n\n        _unregisterNodeInternal(si, n);\n    }\n\n    /// @notice updates a node by adding the msg.value to the deposit and setting the props or timeout\n    /// @param _signer the signer-address of the in3-node, used as an identifier\n    /// @param _url the url, will be changed if different from the current one\n    /// @param _props the new properties, will be changed if different from the current onec\n    /// @param _timeout the new timeout of the node, cannot be decreased. Has to be at least 1h\n    /// @param _weight the amount of requests per second the node is able to handle\n    /// @dev reverts when the sender is not the owner of the node\n    /// @dev reverts when the signer does not own a node\n    /// @dev reverts when trying to increase the timeout above 10 years\n    /// @dev reverts when trying to change the url to an already existing one\n    function updateNode(\n        address _signer,\n        string calldata _url,\n        uint64 _props,\n        uint64 _timeout,\n        uint64 _weight\n    )\n        external\n        payable\n        onlyActiveState(_signer)\n    {\n        SignerInformation memory si = signerIndex[_signer];\n        require(si.owner == msg.sender, \"only for the owner\");\n\n        In3Node storage node = nodes[si.index];\n\n        bytes32 newURL = keccak256(bytes(_url));\n        bytes32 oldURL = keccak256(bytes(node.url));\n\n        // the url got changed\n        if (newURL != oldURL) {\n\n            // make sure the new url is not already in use\n            require(!urlIndex[newURL].used, \"url is already in use\");\n\n            UrlInformation memory ui;\n            ui.used = true;\n            ui.signer = node.signer;\n            urlIndex[newURL] = ui;\n            node.url = _url;\n\n            // deleting the old entry\n            delete urlIndex[oldURL];\n        }\n\n        if (msg.value > 0) {\n            node.deposit += msg.value;\n        }\n\n        _checkNodePropertiesInternal(node.deposit, _timeout);\n\n        if (_props != node.props) {\n            node.props = _props;\n        }\n\n        if (_timeout > node.timeout) {\n            node.timeout = _timeout;\n        } else {\n            require(_timeout == node.timeout, \"decreasing timeout not supported\");\n        }\n\n        if (_weight != node.weight) {\n            node.weight = _weight;\n        }\n\n        node.proofHash = _calcProofHashInternal(node);\n\n        emit LogNodeUpdated(\n            node.url,\n            _props,\n            msg.sender,\n            node.deposit\n        );\n    }\n\n    /// @notice length of the nodelist\n    /// @return the number of total in3-nodes\n    function totalNodes() external view returns (uint) {\n        return nodes.length;\n    }\n\n    /// @notice calculates the sha3 hash of the most important properties in order to make the proof faster\n    /// @param _node the in3 node to calculate the hash from\n    /// @return the hash of the properties of an in3-node\n    function _calcProofHashInternal(In3Node memory _node) internal pure returns (bytes32) {\n\n        return keccak256(\n            abi.encodePacked(\n                _node.deposit,\n                _node.timeout,\n                _node.registerTime,\n                _node.props,\n                _node.signer,\n                _node.url\n            )\n        );\n    }\n\n    /// @notice function to check whether the allowed amount of ether as deposit per server has been reached\n    /// @param _deposit the new amount of deposit a server has\n    /// @param _timeout the timeout until a server can receive his depoist after unregistering\n    /// @dev will fail when the deposit is greater then 50 ether in the 1st year\n    /// @dev will fail when the provided timeout is greater then 1 year\n    function _checkNodePropertiesInternal(uint256 _deposit, uint64 _timeout) internal view {\n\n        // solium-disable-next-line security/no-block-members\n        if (block.timestamp < timestampAdminKeyActive) { // solhint-disable-line not-rely-on-time\n            require(_deposit < MAX_ETHER_LIMIT_FIRST_YEAR, \"Limit of 50 ETH reached\");\n        }\n        require(_timeout <= YEAR_DEFINITION, \"exceeded maximum timeout\");\n    }\n\n    /// @notice registers a node\n    /// @param _url the url of a node\n    /// @param _props properties of a node\n    /// @param _timeout the time before the owner can access the deposit after unregistering a node\n    /// @param _signer the address that signs the answers of the node\n    /// @param _owner the owner address of the node\n    /// @param _deposit the deposit of a node\n    /// @param _weight the amount of requests per second a node is able to handle\n    /// @dev reverts when time timeout exceed the MAXDEPOSITTIMEOUT\n    /// @dev reverts when provided not enough deposit\n    /// @dev reverts when trying to register a node with more then 50 ether in the 1st year after deployment\n    /// @dev reverts when either the owner or the url is already in use\n    function _registerNodeInternal (\n        string memory _url,\n        uint64 _props,\n        uint64 _timeout,\n        address _signer,\n        address _owner,\n        uint _deposit,\n        uint64 _weight\n    )\n        internal\n    {\n\n        // enforcing a minimum deposit\n        require(_deposit >= MIN_DEPOSIT, \"not enough deposit\");\n        require(_timeout >= 1 hours, \"timeout too small\");\n\n        _checkNodePropertiesInternal(_deposit, _timeout);\n\n        bytes32 urlHash = keccak256(bytes(_url));\n\n        // make sure this url and also this owner was not registered before.\n        // solium-disable-next-line\n        require(!urlIndex[urlHash].used && signerIndex[_signer].stage == Stages.NotInUse,\n            \"a node with the same url or signer is already registered\");\n\n        // sets the information of the owner\n        signerIndex[_signer].stage = Stages.Active;\n        signerIndex[_signer].index = nodes.length;\n        signerIndex[_signer].owner = _owner;\n\n        // add new In3Node\n        In3Node memory m;\n        m.url = _url;\n        m.props = _props;\n        m.signer = _signer;\n        m.deposit = _deposit;\n        m.timeout = _timeout;\n        // solium-disable-next-line security/no-block-members\n        m.registerTime = uint64(block.timestamp); // solhint-disable-line not-rely-on-time\n        m.weight = _weight;\n\n        m.proofHash = _calcProofHashInternal(m);\n        nodes.push(m);\n\n        // sets the information of the url\n        UrlInformation memory ui;\n        ui.used = true;\n        ui.signer = _signer;\n        urlIndex[urlHash] = ui;\n\n        emit LogNodeRegistered(\n            _url,\n            _props,\n            _signer,\n            _deposit\n        );\n    }\n\n    /// @notice handes the setting of the unregister values for a node internally\n    /// @param _si information of the signer\n    /// @param _n information of the in3-node\n    function _unregisterNodeInternal(SignerInformation  storage _si, In3Node memory _n) internal {\n\n        // solium-disable-next-line security/no-block-members\n        _si.lockedTime = uint64(block.timestamp + _n.timeout);// solhint-disable-line not-rely-on-time\n        _si.depositAmount = _n.deposit;\n        _si.stage = Stages.DepositNotWithdrawn;\n\n        _removeNodeInternal(_si.index);\n    }\n\n    /// @notice removes a node from the node-array\n    /// @param _nodeIndex the nodeIndex to be removed\n    function _removeNodeInternal(uint _nodeIndex) internal {\n\n        require(_nodeIndex < nodes.length, \"invalid node index provided\");\n        // trigger event\n        emit LogNodeRemoved(nodes[_nodeIndex].url, nodes[_nodeIndex].signer);\n        // deleting the old entry\n        delete urlIndex[keccak256(bytes(nodes[_nodeIndex].url))];\n        uint length = nodes.length;\n\n        assert(length > 0);\n\n        // move the last entry to the removed one.\n        In3Node memory m = nodes[length - 1];\n        nodes[_nodeIndex] = m;\n\n        SignerInformation storage si = signerIndex[m.signer];\n        si.index = _nodeIndex;\n        nodes.length--;\n    }\n}\n",
  "sourcePath": "/home/junaid/Desktop/work/contracts/contracts/NodeRegistry.sol",
  "compiler": {
    "name": "solc",
    "version": "0.5.10+commit.5a6ea5b1.Emscripten.clang"
  },
  "schemaVersion": "3.0.16",
  "updatedAt": "2019-10-08T09:55:20.359Z",
  "devdoc": {
    "methods": {
      "adminRemoveNodeFromRegistry(address)": {
        "details": "only callable by the unregisterKey-accountonly callable in the 1st year after deployment",
        "params": {
          "_signer": "the signer-address of the in3-node"
        }
      },
      "constructor": {
        "details": "cannot be deployed in a genesis block",
        "params": {
          "_blockRegistry": "address of a BlockhashRegistry-contract"
        }
      },
      "convict(bytes32)": {
        "details": "The v,r,s paramaters are from the signature of the wrong blockhash that the node provided",
        "params": {
          "_hash": "keccak256(wrong blockhash, msg.sender, v, r, s); used to prevent frontrunning."
        }
      },
      "registerNode(string,uint64,uint64,uint64)": {
        "details": "will call the registerNodeInteral function",
        "params": {
          "_props": "properties of the node",
          "_timeout": "timespan of how long the node of a deposit will be locked. Will be at least for 1h",
          "_url": "the url of the node, has to be unique",
          "_weight": "how many requests per second the node is able to handle"
        }
      },
      "registerNodeFor(string,uint64,uint64,address,uint64,uint8,bytes32,bytes32)": {
        "details": "will call the registerNodeInteral functionin order to prove that the owner has controll over the signer-address he has to sign a messagewhich is calculated by the hash of the url, properties, timeout, weight and the ownerwill revert when a wrong signature has been provided",
        "params": {
          "_props": "properties of the node",
          "_r": "r of the signed message",
          "_s": "s of the signed message",
          "_signer": "the signer of the in3-node",
          "_timeout": "timespan of how long the node of a deposit will be locked. Will be at least for 1h",
          "_url": "the url of the node, has to be unique",
          "_v": "v of the signed message",
          "_weight": "how many requests per second the node is able to handle"
        }
      },
      "returnDeposit(address)": {
        "details": "reverts when not the owner of the former in3-nodereverts when there is nothing to transferreverts if the deposit is still locked",
        "params": {
          "_signer": "the signer-address of a former in3-node"
        }
      },
      "revealConvict(address,bytes32,uint256,uint8,bytes32,bytes32)": {
        "details": "reverts if a block with that number cannot be found in either the latest 256 blocks or the blockhash registryreverts when tryin to convict someone with a correct blockhashreverts when trying to reveal immediately after calling convictreverts when the _signer did not sign the blockreverts when the wrong convict hash (see convict-function) is used",
        "params": {
          "_blockNumber": "number of the wrongly provided blockhash",
          "_blockhash": "the wrongly provided blockhash",
          "_r": "r of the signature",
          "_s": "s of the signature",
          "_signer": "the address that signed the wrong blockhash",
          "_v": "v of the signature"
        }
      },
      "totalNodes()": {
        "return": "the number of total in3-nodes"
      },
      "transferOwnership(address,address)": {
        "details": "reverts when trying to change ownership of an inactive nodereverts when trying to pass ownership to 0x0reverts when the sender is not the current ownerreverts when inacitivity is claimed",
        "params": {
          "_newOwner": "the new owner",
          "_signer": "the signer-address of the in3-node, used as an identifier"
        }
      },
      "unregisteringNode(address)": {
        "details": "reverts when the provided address is not an in3-signerreverts when the node is already unregisteringreverts when not called by the owner of the node",
        "params": {
          "_signer": "the signer of the in3-node"
        }
      },
      "updateNode(address,string,uint64,uint64,uint64)": {
        "details": "reverts when the sender is not the owner of the nodereverts when the signer does not own a nodereverts when trying to increase the timeout above 10 yearsreverts when trying to change the url to an already existing one",
        "params": {
          "_props": "the new properties, will be changed if different from the current onec",
          "_signer": "the signer-address of the in3-node, used as an identifier",
          "_timeout": "the new timeout of the node, cannot be decreased. Has to be at least 1h",
          "_url": "the url, will be changed if different from the current one",
          "_weight": "the amount of requests per second the node is able to handle"
        }
      }
    },
    "title": "Registry for IN3-nodes"
  },
  "userdoc": {
    "methods": {
      "adminRemoveNodeFromRegistry(address)": {
        "notice": "removes an in3-server from the registry"
      },
      "constructor": "constructor",
      "convict(bytes32)": {
        "notice": "commits a blocknumber and a hashmust be called before revealConvict"
      },
      "registerNode(string,uint64,uint64,uint64)": {
        "notice": "register a new node with the sender as owner"
      },
      "registerNodeFor(string,uint64,uint64,address,uint64,uint8,bytes32,bytes32)": {
        "notice": "register a new node as a owner using a different signer address"
      },
      "returnDeposit(address)": {
        "notice": "returns the deposit after a node has been removed due to inactivityonly callable after the timeout of the deposit is over"
      },
      "revealConvict(address,bytes32,uint256,uint8,bytes32,bytes32)": {
        "notice": "reveals the wrongly provided blockhash, so that the node-owner will lose its deposit"
      },
      "totalNodes()": {
        "notice": "length of the nodelist"
      },
      "transferOwnership(address,address)": {
        "notice": "changes the ownership of an in3-node"
      },
      "unregisteringNode(address)": {
        "notice": "a node owner can unregister a node, removing it from the nodeListdoing so will also lock his deposit for the timeout of the node"
      },
      "updateNode(address,string,uint64,uint64,uint64)": {
        "notice": "updates a node by adding the msg.value to the deposit and setting the props or timeout"
      }
    }
  }
}